:1000000000000420750300005D030000118801005A
:1000100061030000630300006503000000000000AE
:100020000000000000000000000000006703000066
:1000300069030000000000006B0300006D03000076
:10004000C58A01006F030000558C01006F0300009A
:100050006F0300006F030000458801006F0300007C
:100060006F0300006F0300006F0300006F030000C8
:100070006F0300006F0300006F0300006F030000B8
:100080006F030000FD8701006F0300006F03000095
:100090006F0300006F0300006F0300006F03000098
:1000A0006F0300006F0300006F0300006F03000088
:1000B0006F0300006F03000000000000000000005C
:1000C0006F0300006F0300006F0300006F03000068
:1000D0006F030000498D01006F0300008D8C01004B
:1000E0006F0300006D8C01006F0300000000000032
:1000F000000000006F030000000000006F0300001C
:1001000000000000000000000000000000000000EF
:1001100000000000000000000000000000000000DF
:1001200000000000000000000000000000000000CF
:1001300000000000000000000000000000000000BF
:1001400000000000000000000000000000000000AF
:10015000000000000000000000000000000000009F
:10016000000000000000000000000000000000008F
:10017000000000000000000000000000000000007F
:10018000000000000000000000000000000000006F
:10019000000000000000000000000000000000005F
:1001A000000000000000000000000000000000004F
:1001B000000000000000000000000000000000003F
:1001C000000000000000000000000000000000002F
:1001D000000000000000000000000000000000001F
:1001E000000000000000000000000000000000000F
:1001F00000000000000000000000000000000000FF
:10020000354936480A1A02D0072291438D463449AF
:1002100034480A1A06D00722914381F30988022242
:1002200082F3148830483149314A00F044F83148AB
:100230003149324A00F03FF831483249324A00F041
:100240003AF832483249334A00F035F832483349F7
:10025000334A00F030F833483349344A00F02BF881
:1002600033483449344A00F026F8344834490022EF
:1002700000F02CF833483449002200F027F83348C6
:100280003349091A082902DB002202604160314A21
:1002900090471F481F49884205D00268043003B4C4
:1002A000904703BCF7E700208646EC46002000217B
:1002B000294A9047FEE7884207D0521A05D00378B2
:1002C00001300B700131013AF9D17047884202D0F8
:1002D00002700130FAE7704700000420008003201C
:1002E0000000042000000420482D0200000000202F
:1002F00044000020D0030000D003000070B70100CC
:10030000482D0200000000200000002004B8010079
:1003100004B8010004B8010004B8010004B80100E9
:1003200004B8010004B8010004B801003F2D020028
:100330008C2D0200440000204400002044000020D6
:100340001C0701201C0701201C0701201C0701209D
:100350001C8701209D03000019930100FEE7FEE7C2
:10036000FEE7FEE7FEE7FEE7FEE7FEE7FEE7FEE765
:1003700000F002B8FFF7FCBF0F484FF007018843B9
:1003800085460E4880470E48016841F470010160BF
:10039000BFF34F8FBFF36F8FFFF732BF09480A4992
:1003A0000A4A884207D0521A05D0037801300B70F0
:1003B0000131013AF9D1704700000420A5A30100E2
:1003C00088ED00E004B801000000002000000020DB
:1003D000704700BF037813F0040207D003F0030353
:1003E000012B0DD0022B03D001207047104670471F
:1003F0000B684288033303EB92130B6001207047B4
:1004000000880A68C0F38310033202440A60184669
:10041000704700BF38B5084BD3F8104401251D7054
:100420004CB12368E2685B68557120469847E368E1
:100430001C68002CF5D138BDFCF0002000B583B05D
:1004400002900091019244F2010071466A460DF05B
:1004500033FE03B000BD00BFD0E90223D1E90201A1
:10046000994208BF90422CBF01200020704700BF76
:10047000014B1888704700BFF8F00020002070473B
:10048000BFF34F8F0549064BCA6802F4E06213437D
:10049000CB60BFF34F8F00BFFDE700BF00ED00E072
:1004A0000400FA0510B483B050E8013F9CB2C28941
:1004B00014448289944228BFA41A0289944202BF3C
:1004C000BFF32F8F002007E0C4EA030440E8014295
:1004D000002AE9D14FF001008DF803000193019B40
:1004E0009DF803000B6003B05DF8044B704700BF3C
:1004F00010B483B050E8023F1FFAA3F4C2889442BC
:1005000002BFBFF32F8F00200DE0C28914448289FF
:10051000944228BFA41AC3EA044440E80242002AD5
:10052000E8D14FF001008DF803000193019B9DF885
:1005300003000B6003B05DF8044B704710B568B959
:100540000E4CA368012262703BB1D3E90023002066
:10055000A2609847A368002BF7D110BD0128FCD1F9
:10056000064C2369A070002BF7D0D3E900230120AB
:10057000226198472369002BF7D110BD5CEA002067
:1005800011494A79EAB910B403460C6802F0FF0039
:100590000E4A03F18043106003F5243344B10C4C40
:1005A00001224A71C4F804235DF8044B1A607047B5
:1005B000012119601368002BFCD000205DF8044B6A
:1005C00070471120704700BF38EA002000910240B8
:1005D0000090024010B5094B09491A68094C82B0D5
:1005E000002301208DF804008DF80730ADF80530A8
:1005F00001A823700B70904702B010BD88ED002059
:10060000FAF00020C0E90020704700BF704700BF2B
:100610002DE9F843D0E90295A9EB05089045044679
:10062000164607D94068284435441AF0FCFAE560BC
:10063000BDE8F8834068284435440F464246A5EBA0
:1006400009051AF0F0FA606807EB08012A461AF06B
:10065000EAFAE560BDE8F88338B5114C114BE36167
:100660004FF4007310482362102500230F4AA36241
:100670000F49E06425656362A3656365E01D01239E
:100680000225E362E365A261A264C4E904551AF09D
:1006900000FD084920461AF0FCFC2023A37138BD58
:1006A0004C000020D4000020C400002004B8010049
:1006B00010B8010014B8010020BF70470168F1B103
:1006C00010B40C78202C10D90A46234603E012F807
:1006D000013F202B09D93A2BF9D101318A4208D0A8
:1006E0004FF0FF305DF8044B704700205DF8044B7D
:1006F0007047302CF4D1013202600020F6E74FF051
:10070000FF307047F0B4B0FA80F6A6F11102B1FAEA
:1007100081F34FF4804790404FF2DB55A3F1110C69
:1007200010FB057441F6FC6201FA0CF111FB057532
:1007300002EBE434A4B202EBE53200B200FB04F0B9
:100740009B1B92B209B23844DB0201FB02F139442F
:1007500003EBE030A0EBE130F0BC70472DE9F04F47
:1007600083B0DDE90E8C85690D9ED0F824E035F963
:1007700016700C98109C9A46BCF1010F0EFB08F302
:1007800008FB07F7019304D093FBFCF39F42A8BF3B
:100790001F46002C40F09B80019B35F91040DB1B6D
:1007A00008FB04F40193002C02EB870307EE903A58
:1007B00001EB440909DD00210B4617460131A14236
:1007C00047F8043BFAD102EB840286425ADD4849DD
:1007D0000AEB400A05EB4603AAF1020A009305EB77
:1007E000400E00EB010B3AF9023F1BF9010F3EF9F5
:1007F000021F03EB8013B3F5004FA44608FB01F47E
:100800004ADA13F5004F58DB43F38527C7F1100789
:100810001F2F1BB251DCC3F309031B0142F2DC7131
:1008200001FB03F043F6E31101EBD03003FB00F0D2
:1008300045F6141101EBD03003FB00F043F6FF73D3
:1008400003EBD030002F06B23ADB61464E46154628
:1008500036F9023B013100FB03F33B418C4245F882
:10086000043BF5DCA445A4EB0C034FEA83014FEAFB
:100870004303A8BF02239944009BA8BF04217345EA
:100880000A44B0D1019B17EE900A9A00002103B0F0
:10089000BDE8F04F1AF0CABB02274FF4804661460C
:1008A0004D46104635F9023B013106FB03F3BB40D0
:1008B0008C4240F8043BF5DCD4E700200746C4E74F
:1008C0007B1C1ABF4FF4804602270127E7E7B5F9E2
:1008D000004008FB04F4002CD8BF07EE902A01EB7F
:1008E0004409CFDD002607EE902A304663E700BFBB
:1008F000D7EE0100002A32DD2DE9F043491005460C
:1009000000EB42064FEA820C4FF0000E45F68227BC
:1009100000291ADD002004462B5A36F8009013FBFC
:1009200007F319FB07F903EB0908A3EB090308F523
:10093000804803F5804301344FEAE838DB13A142D5
:1009400025F8008033526044E6D10EF1010E724565
:1009500005F1020506F10206DAD1BDE8F083704721
:100960002DE9F84F02FB01FC4FEA4C0C0CF1070497
:1009700024F0070400AFADEB040DEE4613BB002AD4
:1009800019DDC1EBC17A4FEA4A0A4FEA410B0EEB7F
:1009900041084FEA4209002909DD00EB430508EB55
:1009A0000A042E8824F8026B44454D44F9D10133E2
:1009B0009A42D844EFD1624671461AF034F9BD46E6
:1009C000BDE8F88F002AF6DD134B03EB8209A9F18D
:1009D000080956004FF00008002911DD59F82830A9
:1009E00003FB01F301EB030A0EEB4A0A0EEB430390
:1009F00000EB4804258823F8025B53453444F9D1C1
:100A000008F101084245E7D1624671461AF00BF938
:100A1000BD46BDE8F88F00BFE41102000129F0B423
:100A200015DD061FA2F5803706EB4106851E35F958
:100A3000023F02FB03F302FB07F4DB130133E41371
:100A40005B100134AE422B8002EB6402EFD101F166
:100A500000410139F0BC30F9113002FB03F3DB1324
:100A600001335B1020F81130704700BF0129F0B549
:100A700016DDA0F1080CA2F5803E0CEB810C051FE1
:100A800055F8046F82FB064702FB0EF3DB13240CC0
:100A900004EB0744013365452C6002EB6302EFD1A0
:100AA00001F18041013950F8214082FB04351B0CD3
:100AB00003EB054340F82130F0BD00BF2DE9F04FB6
:100AC0008BB000AFC7E903236B4607EE903A3B6D4E
:100AD0007C6D012B00F0FB80FD68B4F90040A34E53
:100AE0007962AB00DA1D043BBB603B69AC463D6DEF
:100AF0009CFBF5F9BD6D22F007024FEA430E3B6DFA
:100B0000ADEB020D043D002204387A6124043D62FD
:100B1000B861C7F804D0FA614FEA830A47F6FF7C50
:100B20003A6A52F8043F3A62BA6952F8040FBA615D
:100B30003A6D012A35DCFA6D002A78D1FA68002A6C
:100B400017DDBA68051F10447A6A55F8041F0B4474
:100B500003F500610913B142B8BF31466145A8BF32
:100B60006146A842118083FB048172444FEA41032D
:100B7000EBD13A6A13607B69002B40F08E80002332
:100B80007B617A6AFB6902327A623A6901339A427E
:100B9000FB61C5DC17EE903A9D462C37BD46BDE89B
:100BA000F08FFA68002A0FDDB968021F08447968DF
:100BB0000D1F52F8041F0B44904245F8043F83FB7D
:100BC00004814FEA4103F4D13A6A1360FB6D002BB4
:100BD00063D0B9F1000F27DD7D68796A00200AE053
:100BE00013F5004FC0F2C0801BB2013081450B806D
:100BF0005544714418D02B68B1F9002003F5006307
:100C00001B13B342B8BF33466345D4BFD31802EBBE
:100C10000C03B3F5004FE3DB013047F6FF7381456A
:100C20000B8055447144E6D101237B61A9E7FA6842
:100C3000002A2BDDBA687D6AA0F10408104408E0A0
:100C400012F5004FC0F28E8012B240452A807544E2
:100C50001CD058F8042FB5F90010134403F50062B6
:100C60001213B242B8BF32466245D4BF8A1801EBB4
:100C70000C02B2F5004F83FB04B14FEA4103DFDB06
:100C800047F6FF7240452A807544E2D13A6A136004
:100C90007B69002B3FF473AF9BE7B9F1000FC3DD15
:100CA0007868796A0022036803F500631B13B34276
:100CB000B8BF3346634502F10102A8BF63469145C0
:100CC0000B8050447144EED101237B6159E73B69AD
:100CD000022B7FF401AFFB6D002B7FF4FDAEFD68AE
:100CE000BB6DB4F90060002DD0E90040D3E90023CA
:100CF00031DD01EB850ADFF87490BD6D3604A4F197
:100D0000040EA0F1040C47F6FF785EF8044F5CF87F
:100D1000040F2244184402F50064241300F5006314
:100D20001B134C45B8BF4C464B45B8BF4B464445DA
:100D3000A8BF44464345A8BF43460C804B800431BE
:100D40008A4582FB063480FB06234FEA44024FEAC1
:100D50004303DAD1BD65B96D4B6017EE903A0A6076
:100D60009D461AE7324670E733463EE70080FFFFB4
:100D70000EB4F0B582B007AA044652F8043B0192C3
:100D8000B3F57D6F14DBA3F51C53173B092B08D873
:100D9000092B06D8DFE803F04B570560056C050505
:100DA00078816FF0040002B0BDE8F04003B07047F6
:100DB000A3F6BC73132BF4D801A252F823F000BFA2
:100DC000A30E0000A30D0000A30D0000130F0000F0
:100DD000A30D0000230F0000A30D0000A30D0000D1
:100DE000A30D0000A30D0000A30D0000A30D000043
:100DF000A30D0000A30D0000A30D0000A30D000033
:100E0000A30D0000A30D0000330F0000110E000021
:100E1000019B1A6804330193002A00F09280036A50
:100E20001360002002B0BDE8F04003B07047019BA2
:100E30001A6804330193002A00F08380E36A136088
:100E40000023E362EDE7019B1A68511E0433012978
:100E5000019376D8E260E4E7019B1A680433002A24
:100E600001936EDB23689B6893426ADD6261D8E779
:100E7000019B1A680433002A019362DD23689B6892
:100E800093425EDBA261CCE7019B1A6804330193B5
:100E9000002A56D023681360C3E7019B1B68E361F7
:100EA000BFE70546806855F8583B00EB4001D3E9A1
:100EB00001268F006368163707EB860702F500628C
:100EC00000FB027203F5006300FB0363090192005B
:100ED00001EB8303283A002104F128001D441AF095
:100EE000A5F8236898684300002B4FEA86060DDDBD
:100EF000B21E05EB80002A440238AB1E4FF41041AD
:100F000022F8021F23F8021F8342F9D10123A363B1
:100F100087E7019B1A680433019392B1836A1360D7
:100F20007FE7019B1A680433019352B1C36B1360CE
:100F300077E7019B1A680433012A019301D8026202
:100F40006FE74FF0FF302EE72DE9F04F85B002AF8D
:100F50008246D7F8348039604FEA480B0BF107041A
:100F600024F00704396BADEB040D0DF1080EA8EB6E
:100F7000010473B3B8F1000F0ADD811E01EB0B060B
:100F8000AEF1020031F8025F20F8025F8E42F9D123
:100F9000002B1DDDAAF102000EEB480100EB430619
:100FA000951E0AEB480A8B1EAEF1020C35F9029F22
:100FB00030F8021F3AF8022D11FB09F112FB09F279
:100FC000C913D21386422CF8021F23F80229EDD14F
:100FD000F2464FEAC81218F0010102F1010205D0F1
:100FE000BAF9003003FB03F302EB6322414580F2C0
:100FF000A8800AF102053AF9110035F9113000FB19
:1010000000F0023102EB602003FB03F3884500EBA4
:101010006322F0DCB2FA82F3C3F11F03152B74DCF8
:1010200000237B603B6B3D6803F10109BB6B5146BC
:10103000CDE900932A462346504619F02BFB04F1D4
:10104000004EABF102010EF1FF3E234651440AEB84
:101050004E0EA5F1040B0020984537DD1C1A0AEB53
:1010600044047246002532F802CF34F9026B9142F3
:101070001CFB0655F7D15BF8042F01301544484599
:1010800003F101030EF1020ECBF80050E4D17B68AE
:10109000002B51D03B681B68B3F1805F18DA3A68C7
:1010A0003C6B101DB3FA83F100EB8400033900E0C0
:1010B00013688B4042F8043B9042F9D17B685B1A7D
:1010C0007B6078680C37BD46BDE8F08F0025D2E71D
:1010D000B3F1005FF5DB3A68386BB3F1804F02F192
:1010E000040101EB8001ACBF0220012000E0136885
:1010F000034142F8043B9142F9D17B6803447B6091
:1011000078680C37BD46BDE8F08F143B5B100125B5
:101110009D40AAF1020A6D10AEF1020000213AF9D9
:10112000022F01312A441A41884520F8022FF6DCAB
:101130005B007B60F24675E73A6813680133136021
:10114000AAE7B2FA82F3C3F11F03152B7FF768AF4A
:10115000143BB8F1010F4FEA6303E9D1D7E700BFB1
:10116000C2694069B2FA82F3C3F11001CA40110B9F
:1011700010B40839074CC3F12003DB00C3EBC003F4
:1011800054F821005DF8044B5B1A90422CBF1846BE
:10119000581E704780EE0100C169B1F5000F28D8D4
:1011A000F0B445694668026A836A083500E0234660
:1011B00084694561B44204F1010738BF87614FEA91
:1011C000012138BF0768C16134BF3C5D002444EA97
:1011D000032312026FEA630352FA83F323F00042FF
:1011E000B1F5000F0262846205F10805DFD9F0BC99
:1011F00070477047B1F5807F70B4C4690ED9B4FBF5
:10120000F1F24C1E036AB3FBF2F3E41A01334262BB
:101210008B4294BF2046002070BC70474A420A406F
:10122000B2FA82F2C2F1200221FA02F5074B013A2A
:1012300053F8253024FA02F2A2FB035601FB1642B2
:1012400091428CBF3246721CDBE700BF54E70100BD
:1012500030B4D0E908549B1A04FB03F3ED1A05627D
:1012600031B1531A04FB03F3C36130BCFFF794BFE1
:10127000C469E31AC36130BCFFF78EBFD0E907230E
:1012800022FA01F18B4210B534BF0124002402D3AD
:101290005B1A0362511AC161FFF77EFF204610BD41
:1012A0002DE9F041D0E907364C1E23FA02F2C1F1D4
:1012B000010505EB040814F8011F1F4602FB01F3AA
:1012C0009E42F6D3F61AFB1AC0E90736FFF764FF11
:1012D0004046BDE8F08100BF034600698842F0B493
:1012E0000246DF6819D25E689C68651CB442A6EBB2
:1012F000050C05D21C689D6014F80C4094402743EF
:101300000832182AF0DDC0F11802182822F007026E
:1013100000F10800C8BF002202445C694FF0FF30B2
:101320000C44521A884027FA01F127EA0000C3E969
:101330000424F0BCD9607047F8B54F1EB7FA87F4A3
:10134000C4F12003082B06461BDDC4F1180527FA5B
:1013500005F10131FFF74EFF0B46421C01460446E2
:101360003046FFF775FF2946FFF7B6FFAC40044350
:10137000A74201D32046F8BD01233C46F362204634
:10138000F8BDFFF737FF04460B463046621C214686
:10139000FFF75EFF2046F8BDB3F5807F2DE9F00131
:1013A000C66957D9B6FBF3F400294ED0056A5B1A1B
:1013B000521A2E4404FB02F204FB1364C0E9072412
:1013C000B2F5000F3AD8036AD90DFF2939D0836AE4
:1013D000002B4FEA21220CDBD0E90165846925440A
:1013E000B542134451D20568661C86612B55C36A09
:1013F000C362436A93B1FF32D0E901658469254431
:10140000B54204F101073DD2036887611A55C46AE9
:10141000436AC462013B4362002BEDD1C9B2036A47
:101420008162C269416912021B0223F00043083144
:10143000B2F5000FC0E907234161C5D9BDE8F0014D
:101440007047426A01324262EBE79A1A04FB126269
:10145000C261B5E75C421C40B4FA84F4C4F12004D4
:1014600023FA04F70A4D013C55F8275026FA04F4F4
:10147000A4FB057803FB1864A3428CBF444608F123
:10148000010491E74FF0FF34C3E74FF0FF33AFE7BC
:1014900054E701002DE9F041D0E9034E0EEB0205BF
:1014A000202D884622D97546D0E9016381695F1CE9
:1014B0000B44B342A6EB070C22D20368876003F803
:1014C0000C40C36AC362083D072D4FEA1424EBDCCD
:1014D000AEF1080525F00703BEF1070FC3F1000EBA
:1014E000D8BF4FF0000EAE440EEB02054369056114
:1014F00008FA0EF10C431A44C4604261BDE8F08161
:101500004FF0FF33DEE700BF2DE9F04FD0F8009039
:101510000446D0E907B083B0B2F100084FF00005EF
:10152000CDE900310E46174618BF4FF00108AA4614
:10153000034609E0626812B14FF480423280D04520
:101540001EDD3E464FF0010A072BF3DDB9F1000F17
:1015500010D03588ED0B294601225846FFF79AFF37
:10156000236A6268083B2362002AE8D0002DE3D09A
:10157000094AE3E701215846FFF7AEFE0546EFE7CB
:10158000009A22B1019BB3F900301B111380012096
:1015900003B0BDE8F08F00BF00C0FFFF531E2DE970
:1015A000F041B3FA83F4C4F12007082F0D4611DD92
:1015B000C4F11804E140E3404A1C0133FFF7ECFE9C
:1015C0004FF0FF31A14025EA01012246BDE8F0417C
:1015D000FFF760BF1346BDE8F0414A1CFFF7DCBED1
:1015E000B0FA80F3C3F11F035B10012110B49940DE
:1015F000002401EB44029A40904224BF6418801AF0
:10160000013B4FEA5101F4D520465DF8044B704789
:10161000A0F5004003B2C3EB0311C3EB8111C1EB92
:10162000C101C913A1F55251323911FB03F145F63D
:10163000054000EBE13110B40CB204FB04F2D2130C
:1016400012FB03F0A2F5804303EBE03343F30E03F8
:101650009A0002EB4302D210A2F580425B0012FB1B
:1016600003F3DB1304FB03F3DB1313FA81F108B27A
:101670005DF8044B704700BF00283CD0B0F1804FAC
:101680003ADAB0FA80F2C2F11F02521010B4D41F3D
:10169000002C2ADD610040FA01F1A1F500414FF66E
:1016A000685311FB03F3DB1303F2A36309B29BB28C
:1016B00001FB03F3DB13A3F6C33313FB01F342F681
:1016C000295000EBE33080B2C4F1070401FB00F0C5
:1016D00045F68723002C03EBE03000B2D6BF0E3A6C
:1016E000204190405DF8044B7047C4EBC471490041
:1016F00000FA01F1D1E7704747F6FF70704700BF6D
:101700002DE9F843DDE90848204453F8246053F8F4
:101710002000B0420346B8BF3346002B0C461546A6
:101720003ADDB3FA83F3C3F11F039BB2A3F10D07B4
:10173000002F3ADD46FA07F940FA07F70FFA89F960
:101740003FB2012009FB090007FB0700FFF794FFE8
:10175000B8F1000F00F1010003B24FEA87364FEAFB
:10176000893096FBF3F690FBF3F036B200B211DD50
:1017700004EB4808A8F10208A11E023D35F8022F2B
:1017800031F8023F12FB06F213FB00239B13414585
:101790000B80F3D1BDE8F8830D2306FA03F900FAB4
:1017A00003F70FFA89F93FB2CBE7C3F10D03F4E772
:1017B00030B4B0FA80F4C4F11F040F2CCBBFA4F1F5
:1017C0000F03C4F10F0340FA03F300FA03F3A3F588
:1017D00000431BB24CF2C43113FB01F1C1F3CF3112
:1017E00001F5F042783210B203FB00F5A1F5F1618A
:1017F00001EBE53111FB00F192B2A2EBE13291B2C3
:1018000012B203FB02F3A1F5004000EBE33010FB42
:1018100002F2481E102CA0EBE23000B2CBBF103C0D
:10182000C4F110042041A04030BC7047B1FA81F3EC
:1018300070B5C3F10204002C23DD40FA04F641FA2E
:1018400004F404F500400014FFF7B2FF031D43F356
:10185000CF031B0486FB0312520082FB0445E10FF9
:10186000023641EA4501C1EBA60181FB034002EBD0
:10187000C000B0F1005F0DDAB0F1604F0DDD800007
:1018800070BDC3F11F03C3F11D0400FA04F601FA91
:1018900004F4D6E76FF0004070BD014870BD00BF92
:1018A000010000802DE9F04FA5B08B460346099258
:1018B0000CA8920000210B93DBF8004019F0B6FB56
:1018C000DBF80030002B79D09B120A930BAB0BF1A5
:1018D000040B05930023DA46994621464B46002B1C
:1018E0007ED00CA85446002550F8042B54F8043D33
:1018F00082FB0367F20F42EA4702A3451544F3D186
:10190000DAF80000009105EBE000C000FFF78EFF61
:10191000C0F1000C6046C117059C4A460132CDE972
:1019200006014FEAEC03009908924FEA620E6360E9
:101930000CAD00222368286883FB0C67CDE90067A3
:1019400080FB0C67CDE90267039F4FEAD678009EC3
:1019500048EA4708019FF60F46EA4706013243442A
:101960003044724545F8040B44F80439E2DBDDE904
:10197000064504FB05F0A4FB046707EB4007F20FE4
:1019800042EA4702CD1702FB05F3F81701FB0030CE
:10199000A2FB0134DA0F04440A9B42EA4402891A8A
:1019A0008B420BDC4B4601339946059B0433059370
:1019B000DDE9082393420AF1040A8FDC0B9B991E90
:1019C000099B0CA801EB430250F8043B03F50043CC
:1019D0001B1421F8023F8A42F6D125B0BDE8F08FF2
:1019E000DAF80000009120F00700FFF71FFF059ACA
:1019F00000994042C3105360C4170346CDE9063432
:101A000001230893B3E700BF2DE9F041B2F902408A
:101A1000966903FB04F303EBD373002C06EB630618
:101A20002DDD002300F1020C4F1C16F8014BD2F8FB
:101A30001480C4F3420E0EEBCE0E20F813E0B2F980
:101A4000025004F0010E013D0EFB05854FEA541EC5
:101A5000ED5CCD540EEBCE0E2CF813E05569B2F9C7
:101A600002E01D44C4F300140EF1FF3E0EFB0454CB
:101A70006478FC54B2F9024002339C42D5DCBDE8E4
:101A8000F08100BF2DE9F0438DB00446DDF85080B1
:101A90000D4633B900EB8202D2F86439002B00F016
:101AA0009D809C4908222846FFF7FAFB023040F34C
:101AB0004703B8F1020F00F0010084F8CD3A84F832
:101AC000CE0A00F0DC809449082201EBC3012846CD
:101AD000FFF7E6FBC00084F8B00A904908222846C8
:101AE000FFF7DEFB94F8B03A184484F8B00AD4F853
:101AF0001439012B11DD8A4FDFF840923F1B04F6A9
:101B0000B126082249462846FFF7CAFB06F8010B12
:101B1000D4F81429BB199A42F3DCD4F8AC2A94F90E
:101B2000CD3AB2F9001012695B1001FB032128467F
:101B30000822FFF7B5FB43B2D4F8AC2A84F8B83AD0
:101B400004A86946FFF760FFD4F8AC2AB2F9023066
:101B5000002B2CDD734F04AE04F6B8290FE00828E3
:101B60001ED0021F89F80120D4F8AC2AA9F6B723A9
:101B7000B2F902101B1B994209F1010917DDD16965
:101B800036F9023B082219442846FFF789FB002852
:101B9000E5D1082239462846FFF782FB4042E0E7BC
:101BA000024639462846FFF77BFB0830D9E7D4F8D0
:101BB0001439042B74D0042384F8CF3A94F9CD3A25
:101BC000022B11D05849C4F85C3928460822FFF787
:101BD00067FB84F8D20A0DB0BDE8F08353490822B0
:101BE0002846FFF75DFB62E7B8F1020F03D1D4F896
:101BF0005C39022B66D04E4908222846FFF750FB7D
:101C0000D4F80C39D4F84C195B1013FB00F3A4F88A
:101C1000CA3A08222846FFF743FBB4F8CA3AD4F878
:101C20005019184403B2A4F8CA3AA4F8603908223B
:101C30002846FFF735FB3F4984F8CC0A082228469E
:101C4000FFF72EFBD4F8143940B2002B84F8D00AE9
:101C50001DDD394FDFF8F4903F1B04F6B42659F828
:101C6000201008222846FFF71BFB06F8010BD4F8CA
:101C70001429BB199A420ADD94F9D00AEFE72F49DB
:101C800008222846FFF70CFB84F8B00A2FE7B8F1CA
:101C9000000F0DD0002294F9CD3A84F8D12A91E7B3
:101CA000274908222846FFF7FBFA84F8CF0A85E780
:101CB000244908222846FFF7F3FA94F9CD3A84F82C
:101CC000D10A7FE7204908222846FFF7E9FA00B247
:101CD000002890DDB4F86029D4F85019A0F1090368
:101CE00013441BB2A4F8CA3AA4F860390822284663
:101CF000FFF7D6FA0F4984F8CC0A08222846FFF7E6
:101D0000CFFAD4F8143940B2002B84F8D00AA0DC02
:101D1000C0E700BF74290200D82402009429020001
:101D200050F5FFFF68230200802902007829020095
:101D30004C250200C81502004CF5FFFFAC24020040
:101D4000A4230200D815020034250200A4140200C6
:101D500090F900300078002B1CDB00F06003602B52
:101D60000BD0C0F3C10003281ED0144B814083FB6D
:101D70000130C917C1EB60107047104B10F0080F0D
:101D80004FEAE17083FB013114BFC0EB2110C0EBBF
:101D900061107047094BC0F3C100814083FB0130E3
:101DA000C917C1EBE01070470548C1EB011189006C
:101DB00080FB0130C917C1EBA01070471F85EB51A4
:101DC000D34D62102DE9F04FDDF824800B9CB8F163
:101DD000000F4BF6803595FBF4F42BDD4FEA440EF3
:101DE0004FEA480A4FF0000B47F6FF79002B1DDD44
:101DF0000A9FCDF824804FEA4B050026B7F9004032
:101E000030F8058004FB04F4A9EBE43C18FB0CFC5F
:101E100031F80580E41314FB08C40136E413B3421F
:101E2000545377445544E9D1DDF824800BF1010B7C
:101E3000D845DBD1BDE8F08F2DE9F04F87B0DDE963
:101E40001156B6FA86F6C6F11F07C6F1110A109EA2
:101E50004FF0000C0124002AC6E900C40BDDA1F1FB
:101E6000020C0CEB420E3CF9026F06FB06F62E410B
:101E7000E6453444F7D1002B6ADD02F10042013A15
:101E800004384FF0000E4FF0FF3601EB420200EB3A
:101E9000830B0239C7F10E074FF0FF330296CDE9ED
:101EA000001205977646CDF810E003931FE01099D5
:101EB0000F68C1E90067039F0297CDE90334964696
:101EC000019A32F9023F0192009A32F9027F0092A0
:101ED00003FB03F307FB07F72B412F41DF1B3C44B8
:101EE000012CB8BF0124834506F1010630D050F81B
:101EF000047F002FE4DDBAF1000F47FA0AF3D8BFE0
:101F0000059B029AD8BF07FA03F31BB203FB03F346
:101F100043F3CF334FEA034C8EFB0C877F004FEA2D
:101F2000024884FB0829B7EB490F039F4FEA074794
:101F3000C6DD049A82FB0C8E4FEA4E0E84FB078CA2
:101F4000BEEB4C0FB3DC109A02935660A646B7E77F
:101F500007B0BDE8F08F00BF70B5044641F2A8029B
:101F6000002119F063F8D4F8242941F24801002334
:101F700001254FF480309A422060C4F8485902EBA2
:101F80000500635047F6FF7191FBF0F108DD18463C
:101F900004EB4305013308449A42A5F8D40FF7DC5B
:101FA000D4F818390E4E41F24C0241F23405DB01EF
:101FB000A35041F2380141F29402002060514FF4E5
:101FC000803341F298056650A35041F2A40104F514
:101FD00085526351142502236550136070BD00BF04
:101FE0008078300038B50446FFF7B6FF054604F5A3
:101FF00085500C220021083019F018F841F2BC037A
:102000000022E250284638BD2DE9F04F8FB004463B
:1020100000AF18343C607863D0F81441D0F80C015C
:10202000BB6220448000073020F00700ADEB000DBC
:10203000E8460E4615463968A2004046C7E90865DD
:1020400018F0F1FD7A6BD2F828B1D2F81031FB62AA
:102050000BF104037B6092465B46DAF80C11BC6A14
:10206000DAF81401A1420A46A8BF22468100002ADC
:102070003A63F96140F39F827A6AB3F90060396B81
:10208000B3F902507863941E8200A2F1040EDAE9DB
:10209000003C7246360404EB410949002D044244D9
:1020A000B961B64634F9021F03EB0121A14542F89C
:1020B000041F4FEA810181FB0E6381FB0506634427
:1020C000B446EFD1CAE90036786B3B6B18284FEA6B
:1020D00003437B6319D0242800F08481122800F088
:1020E000B780BB6A396B7A6AB8695B1A0244012B04
:1020F0007A62BB62FA6940F3618208EB8101404673
:1021000018F091FDDAF82831A7E77B6B002BE8DDAA
:102110003D6AC7F814A000240CE012F5004FC0F28D
:10212000918013B2FA6A25F8023B7B6B1444A342F8
:1021300040F38A80221408EB820358F82220D86DDD
:102140005968BBF90460BBF906C010449A6D3604A7
:1021500011444FEA0C4C80FB062E586D81FB0C920B
:102160009968BBF90860BBF90AC0724401EB000E24
:10217000D868196D36048EFB06A900EB010E1869AC
:10218000D96CBBF90C604A444FEA0C4C8EFB0CA98D
:1021900000EB010E5869996CBBF90EC04A44360435
:1021A0008EFB06A900EB010E9869596CBBF9106013
:1021B0004A444FEA0C4C8EFB0CA900EB010ED86987
:1021C000196CBBF912C04A4436048EFB06A900EB19
:1021D000010E186AD96BBBF914604A444FEA0C4CE3
:1021E0008EFB0CA900EB010E586A996BBBF916C067
:1021F0004A4436048EFB06A94A4400EB0109986A5A
:10220000596BBBF9186001444FEA0C4C89FB0CAECA
:10221000D3E90B097244BBF91AC0360481FB06E30B
:10222000134448444FEA0C4C80FB0C1213445B11DE
:102230000133B3F5803F4FEA6302FFF66EAF47F616
:10224000FF736FE76C4B6DE7D7F814A03D6248E76A
:102250007B6B002B7FF745AFDAF81831D7F804E035
:10226000C7F808A01A04013BC7E903B300267A6146
:102270000EE012F5004FC0F2B38013B2FA6A1644B2
:102280003A6A22F8023B7B6B3A62B34240F3908198
:102290007A69B3B2104683FB001202EBC2010EEB67
:1022A000410033143EF9115058F82340B0F902C0F0
:1022B000B0F904A008EB83032D044FEA0C4C84FB17
:1022C00005915D6885FB0C94B0F906C09D68B0F976
:1022D000089021444FEA0A4A4FEA0C4C85FB0AB4A5
:1022E000DD680C4485FB0C1A39691D69B0F90CC016
:1022F0005444B0F90AA08A1A4FEA094985FB09B18A
:1023000021445D6902EBC2024FEA0A4A85FB0A9446
:10231000B0F90EA09D69B0F9109021444FEA0C4C21
:1023200085FB0C040EEB42052144D8693EF912C02E
:102330004FEA0A4A80FB0A420A44186A4FEA0949EE
:1023400080FB0941B5F90240586C0A444FEA0C4C35
:1023500080FB0C91B5F904C0186C0A44240480FB7E
:102360000491B5F90640D86B0A444FEA0C4C80FB47
:102370000C91B5F908C0986B0A44240480FB041939
:10238000B5F90A40596B4A444FEA0C4C81FB0C09E1
:10239000B5F90C00196B4A442404D3F8249081FB4E
:1023A00004CAD3E90A4CB5F90E1002EB0A03000483
:1023B000B5F910208CFB00A52B44090484FB0150C7
:1023C0000344120489FB021003445B110133B3F58B
:1023D000803F4FEA6302FFF64CAF47F6FF734DE7CD
:1023E000054B4BE77B6B002B7FF77BAE3D6AC7F855
:1023F00014A000240FE000BF0080FFFF12F5004F83
:10240000C0F2D48013B2FA6A25F8023B7B6B144405
:10241000A3427FF719AF221408EB820358F8222059
:10242000D3F88C005968BBF90460BBF906C01044AE
:10243000D3F88820360411444FEA0C4C80FB062E5A
:10244000D3F8840081FB0C929968BBF90860BBF952
:102450000AC0724401EB000ED868D3F8801036042D
:102460008EFB06A900EB010E1869D96FBBF90C6051
:102470004A444FEA0C4C8EFB0CA900EB010E586944
:10248000996FBBF90EC04A4436048EFB06A900EBD7
:10249000010E9869596FBBF910604A444FEA0C4C21
:1024A0008EFB0CA900EB010ED869196FBBF912C0A5
:1024B0004A4436048EFB06A900EB010E186AD96E59
:1024C000BBF914604A444FEA0C4C8EFB0CA900EB9C
:1024D000010E586A996EBBF916C04A4436048EFB49
:1024E00006A900EB010E986A596EBBF918604A44C0
:1024F0004FEA0C4C8EFB0CA900EB010ED86A196E4A
:10250000BBF91AC04A4436048EFB06A900EB010E43
:10251000186BD96DBBF91C604A444FEA0C4C8EFB1A
:102520000CA900EB010E586B996DBBF91EC04A4413
:1025300036048EFB06A900EB010E986B596DBBF9B2
:1025400020604A444FEA0C4C8EFB0CA900EB010EB4
:10255000D86B196DBBF922C04A4436048EFB06A91C
:102560004A4400EB0109186CD96CBBF924600144A2
:102570004FEA0C4C89FB0CAED3E911097244BBF94C
:1025800026C0360481FB06E3134448444FEA0C4C52
:1025900080FB0C1213445B110133B3F5803F4FEA0B
:1025A0006302FFF62BAF47F6FF732CE7084B2AE7D1
:1025B000D7E902AB95E55300BB6186E53B6B386814
:1025C00008EB830118F02FFB3C37BD46BDE8F08FC8
:1025D0000080FFFF2DE9F04F85B0002B03907EDDDA
:1025E000044601EB8303D0E900EC80680293931E5C
:1025F000D4E90376D4F814B00093824631E010F5A4
:10260000004F6FDB03B20193D31B394D83FB0540B1
:1026100000EB0709A9EB0603364D83FB054808EBE1
:102620000605A5EB0B03344F83FB0764234403EB40
:102630000B0464120134019E0E80B4F5803F05EB5B
:10264000030B02EB000709EB08064FEA640337DAD5
:1026500013F5004F49DB1BB24B80029B04319942BA
:1026600035D0009B254C33F9022F0093CEEB82230B
:1026700083FB040909EB0E08A8EB0C03204C83FB39
:1026800004050CEB05030193A3EB0A031D4C83FB2C
:1026900004C0184400EB0A03019C5B12013304449C
:1026A000B3F5803F09EB822E08EB050C4FEA82223E
:1026B000A2464FEA6300A2DB47F6FF730193A3E74C
:1026C00047F6FF734B80029B04319942C9D1039BAB
:1026D000C3E900ECC3E902A71E61C3F814B005B05A
:1026E000BDE8F08F084B01938EE7074BB4E700BFBE
:1026F0000000C61A0000A9640000F6D80000D20647
:1027000000008A3A0000AB980080FFFF2DE9F04FEF
:102710002DED028B87B0804600AF18307860D8F876
:102720000C018000173020F00700ADEB000D6D4666
:102730000E46144679687E61284610229B4618F0A2
:1027400072FAD8F81031BB6005F1100308EE103AA8
:102750002646D8F80C415C45A8BF5C46234618EED7
:10276000101A32464046FFF735FF6304002B3B61E9
:1027700057DD0023FC600CE012F5004F5FDB12B266
:10278000B9680B44796921F8022B3A6979619A4258
:1027900046DD1FFA83FC4FF440248CFB04E02E4CF2
:1027A0001A1405EB420104EBC00EB1F80290BEF81A
:1027B00002C034F830A035F8122019FB0CFC12FBD3
:1027C0000AC2BEF80490B1F804C0BEF806E0C0F139
:1027D0000B0004EBC00A1CFB0929CA88BAF806C022
:1027E00034F830000C8912FB0E99BAF804E0BAF8FC
:1027F0000220B1F80AA014FB0C99B1F80CC0C989E9
:102800001AFB0E991CFB029211FB00218913013166
:10281000B1F5803F4FEA6102AEDB47F6FF72AFE7EA
:10282000FC68ABEB040BBBF1000F06EB440605EBB9
:10283000840106DD1022284618F0F5F989E7074AD9
:102840009EE77868102218F0EEF91C37BD46BDEC03
:10285000028BBDE8F08F00BF342602000080FFFF2E
:102860002DE9F041082286B00C462949294F05463A
:10287000FEF716FD284A294982FB0032C317C3EB35
:102880006203C3EB8372C3EB820216182846082248
:1028900002930596FEF704FD2149224E03460822C5
:1028A00028460093FEF7FCFC1C49034608222846F4
:1028B0000193FEF7F5FC08220346194903932846C5
:1028C000FEF7EEFC251F04906A46D2E900109368DB
:1028D00003EB43030B44591C37F913C037F91110AC
:1028E00013604000AE460130A1EB0C03A64583FB0C
:1028F000068111FB00C045F8040F02F10C02E4D17F
:10290000D4E900329B1A236006B0BDE8F08100BF15
:102910003829020054290200676666667C29020095
:102920008429020000009A192DE9F043002B53D0AE
:102930005E1EB3FA83F8002EC8F11F0952DD9E46D1
:102940000025971C32F915C037F915400CFB0CFC1B
:1029500004FB04C4023524FA09F4B542A644F1DBB1
:102960009C1E24F00104C8F122080234A34206DDB3
:1029700032F9144004FB04F424FA09F9CE44BEFAF7
:102980008EFEA8EB0E0E002E2EEAEE7E4FF0000912
:1029900026DD4D46971C32F915C037F915400CFB62
:1029A0000CFC04FB04C4023524FA0EF4B542A14425
:1029B000F1DB9C1E24F001040234A34206DD32F94F
:1029C000143003FB03F323FA0EF39944C1F800E03B
:1029D000C0F80090BDE8F0839E4699461C46ECE79F
:1029E0004C46EAE7C8F122089E460024BEE700BF35
:1029F0002DE9F047BDF92050891A6E42002936B200
:102A000021DD00EB420E00EB4108AEF1020EA8F111
:102A10000208A0F1020C3CF9024F3EF9027F04FBD0
:102A200005FA07FB06F904FB039407FB03A707F568
:102A3000804704F58044FF13E413E045AEF80070CE
:102A4000ACF80040E7D1891A01F10044013C0029AB
:102A500000EB44001DDD0132C1F1010100EB420435
:102A600000EB4107023030F9022D34F9021D02FB60
:102A700005FE01FB06FC02FB03C201FB03E101F5BD
:102A8000804102F58042C913D213B84221800280EE
:102A9000E9D1BDE8F08700BF2DE9F041B3FA83FC2E
:102AA000CCF11F0CBCF10F0FBDF9188005460C4688
:102AB00016464FEA6C071EDDF81F400043FA00F08F
:102AC000FEF7A6FD01374FF48041012300FB0810FB
:102AD000BB4040F3CF32043D023C5810002155F872
:102AE000043F013113FB02033B41B14224F8023F92
:102AF000F5DBBDE8F081C7F10700400003FA00F004
:102B0000DEE700BF2DE9F04F099F9F425EDA07F133
:102B10000048FC1F08F1FF3801EB430364086FF025
:102B2000030B01EB480CA3F1020A00EB4808ABEBE6
:102B3000840B0646B2F800E0BCF800503CF8021CDA
:102B4000538894883CF8040C15FB0EF511FB0355D3
:102B5000B2F806E03CF8061C3CF8083C10FB0450B8
:102B600014893CF80A5C11FB0E01508913FB041315
:102B7000062F15FB003515DD11460BEB0C0E6346D9
:102B800033F80E4CB1F80E9033F80C0C14FB09F42A
:102B9000B1F80C90043B10FB09449E45254401F11B
:102BA0000401EDD13CF9023FC5EB0335ED120135CF
:102BB000B5F5803F4FEA65030EDA13F5004F0EDBE3
:102BC0001BB2E24528F8023FB4D130467A0000211A
:102BD000BDE8F04F18F02ABA47F6FF73F1E7014B52
:102BE000EFE700BF0080FFFF00293DDDF8B500EBF7
:102BF00041060446831E1746023E4D00002033F96D
:102C0000021F9E4201FB0100F9D10130B0FA80F3AE
:102C1000C3F11F030F2B4FEA630618DDF31F5B00A0
:102C20001841FEF7F5FC4FF4804300FB073040F3FA
:102C3000CF37701C0122824025445210238813FB99
:102C40000723034124F8023BAC42F7D1F8BDC6F19B
:102C500007035B009840FEF7DBFC4FF4804307FB63
:102C6000003040F3CF37E4E7704700BF2DE9F04F65
:102C7000AFB08769399E05683A9C2297002E219251
:102C8000259308DD00233A4601336D10B34202EB71
:102C90004502F9D1229202366B1050F8262038985E
:102CA000D2F830C01392219A23935F1E4010AB10CC
:102CB00004FB07F702EB8002002B2093249001EB2A
:102CC00087071D923EDD209B1D9E03F10043013BC3
:102CD0000CEB430202320192229A4FEAC40902EB42
:102CE0004305A2F10208C9F1000ACDF80890CDF819
:102CF0000080A946009A39F902EF32F9023FD1F873
:102D000000B03CF9025B00924FEA0E4E8BFB0E24A2
:102D10003A681B049046640088FB0E028BFB030E8E
:102D200088FB03B006EBC50304EB40005860019B31
:102D3000029C5200C2EB4E029C4546F835202144CD
:102D40005744D7D1139CE368012123EAE37304F1CC
:102D500010071F93269127A800221E9704F1120541
:102D600037F9223035F9226003FB01F1012E1446B8
:102D700040F8041B02F10102F2D113990C9401EB0B
:102D800082020C99B2F90E200092002900F09E8177
:102D9000139A0E32023B32F921200392032B00F2E8
:102DA0008581DFE813F046039402AD01060001239C
:102DB0000393139B1F99D3F834C00C9B26AA52F897
:102DC000232014921346002A03FA01F340F36E8184
:102DD00003EB430292001A92009A1D9F049711017F
:102DE000D60015919A0003991992CDE91BC6DA0015
:102DF0001B01C90017930023169118920D931C9B79
:102E0000049901EB4302D018059202EB43020B44F4
:102E10000193009B0690002B029240F33C81049B9F
:102E2000029A159903F1080A1B9B0A93CDE907330F
:102E3000521A109209930A99019A0C46B4F900307B
:102E400092E80300B4F9022081FB0349C0FB024968
:102E5000C2F1000280FB033C4FEAD434C1FB023CC8
:102E600044EA49494FEAD33343EA4C4C0599099D5A
:102E70000E46B5F9003096E80300B5F9024081FB33
:102E8000035BC0FB045BC4F1000480FB03324FEA28
:102E9000D535C1FB043245EA4B4B4FEAD33343EA05
:102EA0004242069C089E2746B6F9004097E8030078
:102EB000B6F9025081FB0468C0FB0568C5F1000546
:102EC00080FB04434FEAD636C1FB054346EA484837
:102ED0004FEAD43444EA4343029D079FB7F90040C8
:102EE00095E80300B7F9026081FB047EC0FB067E13
:102EF000C6F1000680FB04454FEAD737C1FB064503
:102F000047EA4E4E4FEAD43444EA4545774F0BEB3F
:102F10000806ABEB0808D418CDF82C8084FB07100A
:102F200040000F90D31A38460CEB050286FB0017C1
:102F3000ACEB050C6E4884FB00150B99CDF838C03E
:102F400009EB0E0802EB040CA9EB0E0E694C8B4644
:102F50008BFB041982FB00410F98644C00EB41008D
:102F60005AF8081C6D0008440F9082FB0401614C64
:102F700083FB042005EB41055F4C83FB04125C4995
:102F800086FB013408EB06035AF8086C0CEB0601CB
:102F900011915AF8046C0B9933448C46564E8CFBB5
:102FA000061B5AF8081C12930D4433460B957F00FC
:102FB0004F4D88FB05165AF8041C4C4D4FEA490941
:102FC00007EB460664000E44400088FB057104EBE5
:102FD00041048EFB031709EB47070E9B454D8EFB03
:102FE0000581B946444F83FB078E00EB4E0083FBFF
:102FF000058E5AF8045C119B0F9F4AF8083C2C443C
:10300000129B4AF8043C4D462B463B44A7EB09096A
:103010001F46019B0B9D06EB000852004900C1EBC7
:103020004B0CC3E90098A1EB4B010833C2EB4E0BEC
:10303000A2EB4E02301A2244199E019329440CEB54
:1030400005030BEB04050A9CA6190A96099C189E19
:10305000A6190996089C1A9EA6190896079C179E01
:103060003444029E079470600598376003604560A1
:103070000346069842601A460832059200F108029B
:10308000019B0692109A0160083693420AF1080AE1
:1030900002967FF4D0AE049A16990D9B0A440492CE
:1030A000149A01339A420D937FF4A9AE039B0093C7
:1030B0000C9B013B1A4601320C9300F035821E9A9C
:1030C0000C9932F9233000297FF462AE023B032BC6
:1030D00000F22A8201A252F823F000BF233500003B
:1030E000CB320000FD300000AF2D000000007298D0
:1030F00000008E270000C3B4000044860123039320
:103100000C9B26AA52F823300E93009B012B00F053
:10311000A5820E9B0098002B00EB4002C6DD1F9994
:10312000139C1D9E646B14948B4003EB4301D200EF
:1031300008928A0011929A00DB0010930301079312
:10314000039B0F92DB00C700129300230A9306979C
:10315000B046009A002A434640F3AD800699CDF868
:10316000348041440B9114990291CDE9041108F186
:103170000402069C02991C440D46B5F9006094E8CF
:103180000300B5F9025081FB067CC0FB057CC5F14C
:10319000000580FB06644FEAD737C1FB056447EAA8
:1031A0004C4C4FEAD63646EA44440799049D0194B4
:1031B00001EB030EB5F900609EE80300B5F902507B
:1031C00081FB067EC0FB057EC5F1000580FB06681D
:1031D0004FEAD737C1FB056847EA4E4E4FEAD6366D
:1031E00046EA48480898059EC518B6F9009095E843
:1031F0000300B6F9027081FB09A5C0FB07A5C7F162
:10320000000780FB09964FEADA3AC1FB07964AEAC3
:1032100045454FEAD93949EA4646596852F8040CFF
:1032200001EB0E070CEB050904EB060AA7EB0904FA
:103230000994079C00EB080B42F804BC5F60ABEB01
:103240000A0B274643F804B0099CD45152F8047C79
:10325000019C574442F8047C5F68A6EB040BA0EB8A
:103260000800A41BA1EB0E01ACEB050AA5EB0C05B5
:10327000824428440BEB01052144069C059E4F44E3
:103280005F6043F804A01551089C0F9F18510298E5
:10329000049D11513844029010980B9928180490FD
:1032A0001198083330188B42059002F108027FF420
:1032B00060AFDDF83480129A0A9B90440E9A013375
:1032C0009A420A937FF445AFF0E6012303930C9BE7
:1032D0001F9926AA52F8232006921346002A03FAC1
:1032E00001F37FF7E3AE009A1399DDF874B0496BF0
:1032F0000791D200089204320D929A00DB000A93E3
:10330000039B0992DB000B930023059308990B465E
:103310000BEB41070D99019701EB0B040799029103
:103320008A46009904910BF108025B44BAF900C087
:1033300093E80300BAF902E081FB0C86C0FB0E861D
:10334000CEF1000E80FB0CC54FEAD838C1FB0EC58C
:1033500048EA46464FEADC3C4CEA454502990F46AE
:1033600001998C46B7F900809CE80300B7F90290F8
:1033700081FB087EC0FB097EC9F1000980FB088C37
:103380004FEAD737C1FB098C47EA4E4E4FEAD8388F
:1033900048EA4C4C52F8081CAE4F05EB0C09A1EB67
:1033A000690144F8041C52F8041C06EB0E08A1EB5A
:1033B0006801596052E902014844414442E902016E
:1033C00054F8041CA6EB0E0686FB07E0019E01EBF9
:1033D000400131605968A5EB0C0585FB07C6019FCC
:1033E000A1EB4601796054F8045CA5EB400044F879
:1033F000040C5968099D029801EB46015960AA44E2
:1034000004990A9D083728440139029002F1080204
:10341000019704F1080403F10803049186D10B9A83
:10342000059B9344069A01339A4205937FF46EAF4D
:103430003CE6039B00930C9B26AA52F82380B8F12C
:10344000000F7FF735AE1D9B834A4033002753E9B9
:1034500002E053E90A5453E906C100EB0E06764236
:10346000A0EB0E0086FB029E80FB029604EB4E0052
:10347000A4EB4E0953F8384C43F8240CA5EB460E48
:1034800053F8340C43F808EC05EB46050CEB010E41
:1034900053F81C6C43F8285CA1EB0C018EFB02C5B1
:1034A00081FB02EC53F83C1C43F8049CA4EB450E52
:1034B00004EB450543F8385CA0EB4C0553F8404C51
:1034C00043F818EC00EB4C0053F820EC43F8145C84
:1034D0008D1B314453F810CC43F8340C43F81C5C7A
:1034E00053F82C0C53F80C5C43F83C1C53F8301C7C
:1034F000A4EB0E060137744443F8206C43F8404CAB
:1035000000EB0C064C1BA0EB0C002944B84543E92A
:10351000044643F82C0C43F8301C03F1400396D1C9
:10352000C6E50123009386E7209A249B511C03F1F2
:103530008043239A023B4910134400294FEA830336
:1035400053DD209A2298239C02F1004C1D9A0832E8
:1035500002EBC101019121990CF1FF3C083B00EB0A
:103560004C0E0B44811E00EB44080EF1020E00EBE2
:103570004C0C009100993CF9024F31F9025F38F987
:10358000020D00913EF9021D52E9027B240487FBE3
:10359000049676002D040004090487FB05A94FEA70
:1035A000490A8BFB05978BFB045906EB47069F687E
:1035B00087FB004587FB01B46D006400DF6842F8BB
:1035C000086CCAEB490987FB00BA87FB01B0C4EB62
:1035D0004A04019905EB4005C3E90259083242F853
:1035E0000C4C9142A3F10803C4D1389B03EBD37771
:1035F000012B4FEA670729DD219B3899389803EBA7
:1036000081051A1F259B002403EB40069C463CF9CC
:10361000023B36F9021D55F8040D52F8049F0904C7
:103620001B04013480FB03EA80FB018E4FEA4A0A47
:103630004FEA4E00BC4289FB01E889FB031ECAEB3E
:10364000480100EB4E0011602860E0DB2FB0BDE8C0
:10365000F08F00BF000026910000825A0E9F002FBD
:103660007FF724AD1D9B4FF0000E203353E90685F4
:1036700053F820CC53F8104C53F8041C53F81C9CFE
:1036800053F80C2C53F8080CACEB04066444A6EB7E
:10369000010C761BAC440E440D44A9EB020143F827
:1036A00018CCA1EB080C4A44091A84440EF1010E0F
:1036B000404441447745A4EB00082044A2EB0504B4
:1036C0002A4443F8086C43F814CC43F8041C43F82C
:1036D000108C43F8200C43F80C4C43F81C2C03F1DD
:1036E0002003C3D1E2E400BF2DE9F04F2DED028BA2
:1036F00095B006AF466AFD6F7A6080464068786193
:1037000006FA05F0B8608000C41D24F00704ADEB94
:10371000040D38609946012006ABBA6F3B6200FA8F
:1037200005F3D8F808A0BB61002A00F08780D8F81C
:103730001C20C7E90B237B6F022B00F089807B6F75
:10374000012B00F0E9804FEA4A033B61BB683A6B0A
:10375000C7F828905B00FB603B6A796208F1380A81
:103760004FEA860903EB820B7E68002308EE10AA5D
:10377000FB61D7F884300493D7F880300393BB699A
:103780000293FB6E0193BB6E0093D7E90821BB6ADD
:103790004046FCF7E3FF3B6B002B1BDDC2463C6A57
:1037A000B04618EE100A7E6900253B6BD8F8002061
:1037B0000293FB6A7863CDE900632A442146DAF874
:1037C00034300434FFF752FAA345786B4D44ECD102
:1037D0004646D0467A6AF968FB690A447A623969D2
:1037E000BA6A0A44BA627A6F01339A42FB6106F1FF
:1037F0000406BEDC3B687E4C7E48D7F874E0D7E90F
:10380000018C1E1F0025BCF1000F0EDD58F825109D
:103810000A1F314452F8043FA342B8BF23468342F3
:10382000A8BF03468A421360F4D10135AE45EADCF5
:103830003C37BD46BDEC028BBDE8F08FD8F81C309C
:10384000BE6838635B1BFB627B6F022B7FF477AF34
:103850003B6F012B7FF477AFD7F884300493D7F810
:1038600080300393BB693C6A0293FB6E0193BB6E8D
:10387000009322464B464046FCF770FF78687B6910
:1038800045683A6803EBD3735B1005EB8305284664
:10389000214617F0C8F93B6B002BABDD3B6B4FEAC1
:1038A000830AC7F834A0D7F804A04FEA860905EBCD
:1038B000830408F1380B00263B6BDAF800200293F2
:1038C000FB6A01937B69009332442946D8F834306F
:1038D00058460435FFF7CAF9AC424E44ECD1D7F84C
:1038E00034A03C6A7E695846D7F804B0A24400254B
:1038F0003B6BDBF804200293FB6A7863CDE900633D
:103900002A442146D8F834300434FFF7AFF9A245F1
:10391000786B4D44ECD16DE73B6F022B7FF413AF16
:103920007A687B691468D7F884200492D7F88020DD
:10393000039203EBD373FA6EBD6901925B10BA6E0A
:103940000295009204EB83043A6A79634B46404641
:10395000FCF704FFD7F884300493D7F88030796BF4
:10396000CDE90253FB6EBD680193BB6E009301EB82
:10397000450109EB4A0322464046FCF7EFFE002DC5
:103980000FDD3B68191F3B6A043C19441A1F54F8A9
:10399000043F52F8040F5B1003EB60039142136085
:1039A000F5D13B6B002B7FF725AF3C6A3B6B08F1F1
:1039B000380A04EB83055046AB46D7F804A07D696E
:1039C000B6004FF000093B6BDAF800200293FB6A67
:1039D0007863CDE900534A442146D8F834300434A2
:1039E000FFF744F9A345786BB144ECD102E700BF7F
:1039F000005D1EEE00A3E1112DE9F04F97B0239F6B
:103A00000197DDE924B7BDF98850BDF984400397DB
:103A1000269F209E0C952543CDE90E7013960D919F
:103A200004D1814200F0CE81B200DAE1019941482F
:103A300001EB410C0BEB4B050F2B00EB4C06B8BF19
:103A40000F2300EB4501C3EB837E4FEA8E0730F86E
:103A50001CC0B6F802A0B6F804E030F8156048883B
:103A60008D880D9902930B461597DB5904933946BF
:103A70003B1D043F11970C9F1093A1F108084FF4D0
:103A8000804117FB061617FB001017FB051514FBEA
:103A90000A1A119FCDF8488014FB0E1E14FB0C1C53
:103AA0000D99109B51F80790129F51F80380C95946
:103AB00014914AF3CF3109914EF3CF310A914CF36F
:103AC000CF310C9B089146F3CF310F2A059140F37B
:103AD000CF31B8BF0F2206919C4245F3CF310791F9
:103AE00000F084810E9B002BD8BF4FF0000C40F3F8
:103AF0009780029B039D0E98049F149C9100C3F134
:103B000080430D9A013302EB830305EB40000293DF
:103B1000831E0B93131F01930F9B81F00301A3F1ED
:103B2000040AC943A5F1020ECDF80CA01144F246D7
:103B300004E000BF64000200B9462F46019A3AF93A
:103B4000023F52F8046F019203FB03F347F6FF7242
:103B5000A2EBE332089851F8045F12B202FB00F0C6
:103B600040F3CF30000485FB00CE0A9D099802FB8C
:103B700000F002FB05F251F8085C049506EB4E0ECE
:103B800051F8045C4E6840F3CF302E44000486FBAD
:103B900000BC0598049D43F3CF3303FB00FB88680A
:103BA00042F3CF320EEB4C0C1204054485FB0206A7
:103BB000069A0CEB460C4BF3CF3B03FB02F04FEAAB
:103BC0000B4B87FB0B62079E0CEB420C029A45469F
:103BD00003FB06F352F8048F029240F3CF3043F315
:103BE000CF3300041B04444405EB090686FB00E2C6
:103BF0000CEB420284FB030C824B02EB4C029A4218
:103C0000B8BF1A46804B9A42A8BF1A46039B43F896
:103C1000042F03930B9B53454C468DD1DDF838C0E0
:103C20000C9B002B00F0D1800D9B1098159D1199D5
:103C30000F9E03EB8C0E139B5EF800405EF80110A4
:103C40005EF80500A3EB0C02129B043A5EF8033009
:103C50000492002A4FEA43034FEA41014FEA440429
:103C600006EB8C0C4FEA40000EEB050740F3AA80F0
:103C7000059A1604069A4FEA024B079A1504CDE9F5
:103C8000016500220392DEF80020019E80FB068978
:103C9000D7F808804A4404EB010A03EB48038AFB87
:103CA0000B59029D4A4483FB05A9564B564D4A4485
:103CB0009A42B8BF1A46AA42A8BF2A46CCF80020AA
:103CC000DEF8043084FB06299944FB6800EB480ABF
:103CD00001EB43018AFB0B62029E4A4481FB06A969
:103CE0004849019E4A448A42B8BF0A46AA42A8BF30
:103CF0002A46CCF80420DEF8082039694FEA480843
:103D000088FB06A94A4404EB430A00EB41008AFB06
:103D10000B69029E4A4480FB06A93A48019E4A4428
:103D20008242B8BF0246AA42A8BF2A46CCF8082061
:103D3000DEF80C2078695B0083FB06A9914408EB50
:103D4000410A04EB40048AFB0B62029E4A4484FB56
:103D500006A92C4C4A44A242B8BF2246AA42A8BF98
:103D60002A46CCF80C20DEF81020BC69019D4900E1
:103D700081FB05A9914403EB400A029D8AFB0B627B
:103D800008EB44084A4488FB05A91E4D4A44AA4250
:103D9000B8BF2A46039D05352E4603951A4DAA4203
:103DA000A8BF2A46CCF81020049A96420EF1140EB1
:103DB0004FEA40004FEA440407F114070CF1140CD9
:103DC000FFF661AF17B0BDE8F08F0D9B0F988342EF
:103DD000F8D00E9C139A121B920003EB840100EBA7
:103DE000840017B0BDE8F04F16F0C9BE029B9A429E
:103DF0007FF478AE019B5B457FF474AE00230E9395
:103E00009C460DE7005D1EEE00A3E11110B4074BC8
:103E1000024653E8000F00EA020143E8001494F060
:103E2000000FF6D15DF8044B704700BF40EB002057
:103E300010B5174B1B68082B82B002D1154B00221E
:103E40001A60154B15499A7B0020032A08700AD086
:103E50001C6874B1124B01221A60BFF36F8FBFF35D
:103E60004F8F02B010BD6FF48030FFF7CFFF02B06C
:103E700010BD6FF48030FFF7C9FF0A4BADF8064064
:103E800006221B688DF8042001A8984702B010BDD7
:103E9000300100101C7C0240B4EB0020C1EA00207D
:103EA0004C70024088ED00202DE9F8432F4FFE6A48
:103EB000012E8146884606D0022E24D0A6B10026C7
:103EC0003046BDE8F883BB6A7E6AB34248D9013BFD
:103ED0009E1B464528BF4646254849463246FCF7C4
:103EE00097FB3046BDE8F883BB6A796A8B4232D9CA
:103EF000013B5B1A9845E3D81D4849464246464671
:103F0000FCF786FBDCE7D7E908140026BB6AF869F2
:103F1000A342A1EB040503F1FF329CBF03F1FF3282
:103F20005218454528BF4546121B954228BF1546E5
:103F3000494620442A4616F076FE396A2C448C42C3
:103F400008BF0024B8EB05082E44A9447C62DDD1EB
:103F50003046BDE8F8833A6A1A44013A531AC9E771
:103F60003A6A1A44013A961BB3E700BF4C0000209E
:103F700064000020FAB12DE9F843114B114E884638
:103F8000144643F0010903270025214608EB0500EC
:103F9000FFF78AFF03461D444FF47A40E41A23B921
:103FA000337833B1C847013F06D001233370002C6A
:103FB000EBD1BDE8F88370473770BDE8F88300BFE8
:103FC000C0EE0100E4F00020054B1A68D20700D5CE
:103FD0007047C02283F8002301221A60F8E700BF6F
:103FE00000E100E0704700BF0C4B0D4A19680D4B13
:103FF00010B4D1F80445D2E90001D3E90023001937
:1040000041F10001994208BF904203D210F1807043
:1040100041F100015DF8044B704700BF240000200F
:1040200060D9002020F600202DE9F8430446D0F89E
:104030002401D4F81C61361A17467600543089469C
:1040400004EB4000324639461D4616F0ECFDD4F82C
:104050000831022B21D0032B45D0012B30D0D4F8CE
:104060001C2104F1A80852004146484616F0DBFD29
:10407000D4E94720AA1AB919520009EB400016F0FA
:10408000D2FDD4F82421A91A07EB41015200404681
:1040900016F0C9FD0020BDE8F88304F1A808D4F8A3
:1040A0001C31424649462046FEF730FBD4E94731F1
:1040B000BA19EB1A09EB41012046FEF727FBE0E7AE
:1040C00004F1A808D4F81C31424649462046FEF7C0
:1040D00081FAD4E94731BA19EB1A09EB41012046BC
:1040E000FEF778FACDE704F1A808D4F81C3142466F
:1040F00049462046FDF788FFD4E94731BA19EB1A43
:1041000009EB41012046FDF77FFFBAE710B4043008
:10411000012350E8002F02EB030140E8001494F063
:10412000000FF6D15DF8044B704700BF70B51A4E12
:1041300082B005460C46304601A9FCF7B3F968B1D8
:10414000BDF804303268D11808D0D554BDF8062027
:104150004C609A4205D0002002B070BD042002B02D
:1041600070BD56E8012FC2EA024246E80123002B47
:10417000F7D10A4B93F90430002BECDB5A090848BD
:104180004032012103F01F0301FA03F340F822300B
:10419000002002B070BD00BFC4F500202400002044
:1041A00000E100E043F2C840704700BF0F2810B4A0
:1041B00006D0102820D00E2810D05DF8044B704790
:1041C000144B022253E8001F41EA020043E80004B6
:1041D00094F0000FF6D15DF8044B70470D4B0122AF
:1041E00053E8001F41EA020043E8000494F0000F86
:1041F000F6D15DF8044B7047064B042253E8001FCC
:1042000041EA020043E8000494F0000FF6D15DF8A3
:10421000044B7047F4F000200B4B1B68082B02D1B5
:104220000A4B00221A600A4B0A4993F89E2000208C
:10423000032A087003D0D3F8903003B170476FF0B1
:104240000100FFF7E3BD00BF300100101C7C0240FD
:10425000B4EB0020C1EA00202DE9F04FB5B0C64D07
:104260000892521002EBC2020C46A91808220494CC
:1042700009930446FDF714F83E9B3E9A3E99BF4FC2
:1042800023F00F038B424FEA22120192BCBF01328E
:104290000192019B00EBC000002B07EB400940F3AB
:1042A000B080019A0CAD20AE07F1A30800950696E8
:1042B00005EB820BA237002345F8043B0822494650
:1042C0002046FCF7EDFF112846F8040B15D14FF0FE
:1042D000010A2B4655469A460A2D0CBF41463946DF
:1042E0004AF8045C08222046FCF7DAFF112805F1A1
:1042F000010546F8040CEFD055465D45DBD1019B26
:10430000049DDFF88CB25A0105EB43130193069B21
:10431000079298462EE01BF80610994B0822194484
:104320002046FCF7BDFF1FFA80FA00B2A6EB0A0692
:104330000028B7B236B200F3318100232B806B80A6
:10434000AB80EB8000232B816B810023AB81EB8161
:10435000002E00F39D8000232B826B82AB82EB82C8
:1043600000232B836B830023AB83EB83019B2035DE
:104370009D420CD058F8046B002ECCDC284620223D
:10438000002116F053FE019B20359D42F2D1049B83
:10439000DFF800B2DDF8189003F11E08079B4344D4
:1043A000019306E0019B08F12008984509F10409F2
:1043B00027D0009B53F8046B0093002EF2DDA8F188
:1043C000200737F9023F4FF0000A1D4608225946E0
:1043D0002046FCF765FF0AF1010A6D0056450544C9
:1043E000F4D147453D80ECD1D9F8003043EA46137B
:1043F000C9F80030019B08F12008984509F104092B
:10440000D7D13E9B03F10807DDE908233F1103EBF9
:10441000420800239F420FFA88F88DF82D3034DDD2
:10442000049BDFF8749103F11E0A0AEB471720AED4
:1044300003E00AF1200A574527D056F8043B002B29
:10444000F7DD03F01F03052BC8BF0623072218FB67
:104450000233AAF1200519F803308DF82C3035F914
:10446000023F002B4FF008020BA9204607DDFCF7A6
:1044700017FF2A884000431E12FB03F32B80AA4536
:10448000EDD10AF1200A5745D7D135B0BDE8F08FFC
:104490001BF806103B4B082219442046FCF700FF8E
:1044A0001FFA80F9A7EB090603B2B2B2002B029201
:1044B00036B240F3ED801BF803303349082219442B
:1044C0002046FCF7EDFE1FFA80FA03B2A9EB0A07BB
:1044D000002B1FFA87F93FB240F3F4801BF803303A
:1044E0002A49082219442046FCF7DAFEAAEB000A02
:1044F000A5F812A02882002F40F3CD801BF80730CA
:104500002249082219442046FCF7CAFEA9EB0009FB
:10451000A5F81690A882002E7FF722AF1BF8063070
:104520001949082219442046FCF7BAFE029B87B2BB
:10453000DE1B03B2002B1FFA86F936B240F3B680B9
:104540001BF803301149082219442046FCF7A8FE45
:104550003F1A6F832883002E7FF705AF1BF80630C4
:104560000A49082219442046FCF79AFEA9EB0009E3
:10457000A5F81E90A883F9E6202602006C2502000B
:104580005C280200C42702002C27020094260200A7
:10459000F4280200F0240200082902001BF8001091
:1045A0004A4B082219442046FCF77AFE1FFA80F98C
:1045B000AAEB090A1FFA8AF203B20292002B0FFA41
:1045C0008AF203926BDD1BF803304149082219443B
:1045D0002046FCF765FE83B202B2A9EB0309002A6C
:1045E0001FFA89FA0FFA89F964DD1BF802103948BD
:1045F0000593014408222046FCF752FE059B2880C3
:104600001B1A6B80B9F1000F4CDD1BF809303149E2
:10461000082219442046FCF743FEAAEB000AA5F83D
:1046200006A0A880039B002B7FF78CAE1BF80330FD
:104630002749082219442046FCF732FE029A83B229
:10464000A2EB030902B2002A1FFA89FA0FFA89F9CC
:1046500034DD1BF802101F48029301440822204653
:10466000FCF71EFE029B28811B1A6B81B9F1000F1B
:104670007FF76BAE1BF80930164908221944204613
:10468000FCF70EFEAAEB000AA5F80EA0A8815FE6D3
:1046900000232B826B820023AB82EB823BE700235B
:1046A0002B806B800023AB80EB80BBE700232B8348
:1046B0006B8350E700232B806B80A3E700232B81C3
:1046C0006B81D3E700232B826B8214E7C42702009F
:1046D0002C27020094260200C0F31003B3F5803F9C
:1046E00067DDC3F50033C3F30E0000286DD0B3F5CA
:1046F000004F10B42FDB5B424FF480441BB203FB2E
:10470000034343F3CF314FF68E5211FB024042F286
:10471000550202EBE03292B201FB02F22244D213C4
:10472000A2F5EF52C1F5FF40033A11FB02427F3080
:1047300000EBE23047F6FE7188424FEAE333D8BF20
:10474000A3F500434FEAE232D6BF9B1A204818B2C5
:104750005DF8044B704703FB03F303F580421D4BE8
:10476000D21303FB02F303F5804142F2550303EB3E
:10477000E1339BB202FB03F303F58043DB13A3F5A4
:10478000EF53033B1BB202FB03F347F6FF7003F545
:104790008043811A01EBE33147F6FE74A1424FEAF0
:1047A000E333D5DCC2F50040034418B25DF8044B96
:1047B0007047C0F30E02002A99D138B9044A47F66F
:1047C000FF70002B18BF10467047704710467047A7
:1047D0000180FFFF8EFDFFFF012A37DDB2F5807FEC
:1047E000F0B530DC53421340B3FA83F3C3F1200336
:1047F000174D22FA03F65C1E55F8263021FA04F410
:10480000A4FB034502FB1516B2428CBF2E466E1C5C
:104810000027A0F1040C4FEA860E384600210B4613
:10482000644654F8045F01339E4241EA0501F8DC16
:10483000003918BF0121B9400137BA4240EA0100EE
:10484000F444EBD1F0BDB1FBF2F6E1E70120704793
:1048500054E701002DE9F04F0029ADB0D8BF01F1B8
:10486000FF3340F3D381023800EB410614AC002241
:1048700030F9023F1D03864244F8045B1A44F7D125
:10488000B2F5805F03DB00202DB0BDE8F08F4B1E3A
:104890000C93002B00F0BA8114AB03EB81030A9355
:1048A0004FF080430B930A9BD54A53F8047D0A933B
:1048B000D44BFB189342E6D8FF017F4287FB0723C6
:1048C000C3F180410B9B83FB012398000B90CE48E2
:1048D000B0EB830FD7DAB1FA81FC0CF1FF3001FAAB
:1048E00000F31A146FF0604191FBF2F2140483FBA1
:1048F0000451C0F13D04C1F10051CCF13E00C900AA
:1049000081FB0253211A1B0403EB02420029CCF164
:10491000200302EB1542059340F3648142FA01F350
:104920000993099A0A9ED2F100084FEAE27B6FF0E0
:10493000004382FB03456BEB4B090C9B4FEAC870AD
:104940004FEAC97141EA580103F1010E430843EAF5
:10495000C17392460E9362084B100F9342EAC573DF
:1049600012936B104FEA6E0E139314AB03EB8E038E
:10497000CDE910450D90CCF11F04089314AD0CF156
:10498000010C8CE001304FEAA9784FEA500148F160
:10499000000841EAC871581A00F1E58001F10041B0
:1049A000194200F1F380C11700FB0BF80AFB0188E4
:1049B000A0FB0A014144B4F1200901FA0CFE20FADF
:1049C00004F858BF41FA09F948EA0E0858BF48EA06
:1049D000090818F1010841FA04F141F100014FEA18
:1049E000580E4EEAC17E1EF100404FEA610141F1CE
:1049F000000102900391DDE9028900214FF0FF30B0
:104A0000494508BF4045FFF43EAF87FB0301830FD4
:104A100043EA810301334FEAA17141F100015B08D0
:104A200043EAC173D01A45F804EC00F1A68003F103
:104A30000043134200F1AF80C11700FB0BF30AFBE8
:104A40000133A0FB0A01194401FA0CF8B4F1200368
:104A500020FA04F258BF41FA03F342EA080258BFB1
:104A60001A43013241FA04F141F10001520842EACD
:104A7000C172491012F10043009341F10003019308
:104A8000DDE9008900214FF0FF30494508BF40456E
:104A9000FFF4F9AE089B3260AB4200F09D8056F8FF
:104AA000042D059955F8043B87FB02894FEA98705D
:104AB000012940EA89007FF465AF01304FEAA97807
:104AC0004FEA500148F1000841EAC871581A67D40A
:104AD00001F10041194276D4099980FB01014FEAA6
:104AE000500949EAC1794FEA610800F0010010EB72
:104AF000090E4FF0000141EB08081EF1004106913C
:104B000048F100010791DDE906014FF000094FF07F
:104B1000FF38894508BF8045FFF4B5AE87FB0389A0
:104B20004FEA987343EA890301334FEAA97141F1CF
:104B300000015B0843EAC173D11A45F804EC39D48B
:104B400003F10043134243D4099B81FB0323500824
:104B500040EAC370591002F0010212184FF000032E
:104B600043EB010186E703F1004818EA010F7FF5E6
:104B70001AAF6FF00040002116E702F100421A421E
:104B80007FF55AAF6FF00040002156E74FF000402C
:104B90004FF0FF3108E74FF000404FF0FF314CE796
:104BA00003F1004818EA010F96D5DDE91001DDE9AF
:104BB00012989AE702F100421A42C5D5DDE91023A6
:104BC000DDE91201C7E7DDE90D09DDF83C808CE77E
:104BD000DDE90D200F99BEE70C9B013B0C937FF4A0
:104BE00062AE17E0001B4FF000436FF0004103413D
:104BF00001418B422CDD9A4235DD1A462DE000BF83
:104C00003CDFFF019EEFFF006DA301000C934FF00E
:104C100080430B930C9B2CAA02EB8303144A53F89A
:104C2000601C144B0A449A423FF62DAE149B124965
:104C3000DA01524282FB0223C3F180420B9B82FBCA
:104C40000323B1EB830F4FEA8300FFF61DAE1AE694
:104C50008A4206DC9A42B8BF1A4602FA00F3099368
:104C60005FE60A46F9E78A42B8BF0A46F5E700BFA1
:104C70009EEFFF003CDFFF016DA301002DE9F04F27
:104C8000102ACBB01646804600F07E81002A24DD33
:104C9000C748C84C0239C0F101054FF0000C01E0D3
:104CA00010F801CF31F9027F4FEA272E0EF10103F0
:104CB00034F91E2034F91330A7EB0E279B1A120289
:104CC00007FB0323DB104AAA02EB8C0C01332A18E2
:104CD0005B1096424CF8C03CE2DC1A9F4FEA660E2D
:104CE0007F424FF48032BEF1010FCDE9002740F33F
:104CF0008B8017461AAD6846012401A950F8042F8D
:104D0000D5F808C08CFB029A4FEAD93242EA4A42EF
:104D100001324FEAEA3343F10003520842EAC37218
:104D2000C2EB4702012C426018BF074618D0D7F8E3
:104D3000009057F8042D8CFB02AB4FEADA3242EABE
:104D40004B4201324FEAEB3A4AF1000A57F8043C71
:104D5000520842EACA729B1A4B44B9427B60E6D1C0
:104D6000019F0134A7EB0C07A64505F10805019743
:104D700001D00768C2E71B9A4FF480335242CDE955
:104D80000D3299460DF1340C01200EAA1AAB03EB3B
:104D9000C0035CF8044F596881FB0445E30B43EA08
:104DA000454301334FEAE53444F100045B0843EA2C
:104DB000C473C3EB49030128CCF8043018BFE146A3
:104DC00019D0D9F800A059F8044D81FB0445E30B34
:104DD00043EA454301334FEAE5354FEA530445F1D1
:104DE000000559F8043C44EAC5741B1B53444A456A
:104DF000C9F80430E5D10E9B0130591A86450E9151
:104E000008D0DCF80090C1E71B990D92C1F10001B8
:104E10000E9121D106F18044013C32AD00980D9AEB
:104E200005EB84040DF104090DF1380C002305E0B5
:104E30000A4638465CF8041F59F8047F3844A2EB50
:104E4000010A01338A1AAAEB000A121A9E4545F894
:104E500004AB44F80429EBDC574D4FF00A09002459
:104E6000002E40F38380002132AF0A46384650F8C6
:104E7000043B002BB8BF5B428B42C8BF144602F113
:104E80000102C8BF19469642F1D109110131B1F5AD
:104E9000803F4FEA610379DBAB42A8BF2B46A3F505
:104EA000FF427F3A04FB03339B109203B2FBF3F201
:104EB000C2F57F42BE32314632A8FBF7D7FDB9F1C9
:104EC0000109CDD1A8F102053C48DFF8FCC03C4CFB
:104ED0002A4605EB46014FEA460957F8043B1B11E9
:104EE0000133B3F5803F4FEA630E35DA1EF5004F0C
:104EF00041DB0FFA8EFA22F802AF4FEA4E139142CD
:104F000047F8043CE9D131464046A9440024022731
:104F1000FFF7A0FCE8B9102C1BD007FA04F2C2F589
:104F20008032314632A8FBF7A1FD002E0ADD32A9FE
:104F30002A4651F8043B1B1101335B1022F8023F53
:104F40004A45F6D1314640460134FFF783FC00283C
:104F5000E1D04BB0BDE8F08F47F6FF7A22F802AF00
:104F60000346914247F8043CB7D1CCE7A8F10205CB
:104F70004FEA4609C7E7A24622F802AF63469142CC
:104F800047F8043CA9D1BEE70E4882E6A8F1020525
:104F900032AA294605EB46004FEA460952F8043B7F
:104FA0001B1101335B1021F8023F8842F6D1AAE7BA
:104FB000C811020060130200FE7F0200E0FF0F0034
:104FC0000080FFFFD41102000000F0FF2DE9F04F38
:104FD00085B04C4F0F9C0E9E013C0D4657F8247037
:104FE000044607FB061093461F46FCF7E1FB2BB275
:104FF000C3EBC33383FB0001C30F43EA410313FB3D
:1050000003F31E143046FFF767FB8146C6F5FF40E9
:105010007F30FFF761FBB5EBC70F824656DBB91057
:1050200001239846013303FB08F207FB0212954265
:10503000F7DCB7F5807F4ED9B5FBF7F5002F3CDDE7
:10504000CAF100031BB203936B0002933B4607EEC9
:10505000905A4F460026994610E0B8F1000F2FD124
:1050600017EE901ACDF800A03B4601222046FDF72E
:10507000BFFC029B0136B1451C441ED0BBF1FF3F73
:1050800017EE901A20463B464FF00102E5D0039DF3
:105090000095FDF7ADFCB8F1000FEAD07B421BB2E2
:1050A00000932046534617EE901A4246FDF7A0FCA7
:1050B0000136029BB1451C44E0D105B0BDE8F08F3C
:1050C000009753464246FDF793FCC9E7B7F5807F4A
:1050D0004FF00008B0D87B423B40B3FA83F3C3F1F2
:1050E0002003094927FA03F05A1E51F8203025FA07
:1050F00002F2A2FB032307FB1355AF428CBF1D46F0
:105100005D1C9BE758E9010054E701002DE9F04FD1
:105110002DED028B06469DB041F23C00D6F80CE91D
:10512000305800AF86457A640C46D6F82429FB64D3
:105130001DD0002A47F6FF7C02F101039CFBF3FC23
:1051400009DD00210B4606EB430001336144934225
:10515000A0F8D41FF7DB41F234030020F05041F2F5
:10516000380141F23C037548705046F803E006F5FB
:105170008259D9F80030002B00F0B58106F6D42A08
:10518000FB6C03F110018B0041F2840041F29801A5
:10519000FB600733305E745880FB04C123F00703C3
:1051A0000904684601EB1C41ADEB030D41F23403E9
:1051B000B1F5001F08EE100AF358C7F828D0C0F266
:1051C000068211FB31F113FB33F3A3EB41110029EC
:1051D00040F39682B1FA81F4C4F11800002800F07F
:1051E0009282B8BFC4F13800C14114F0010F4BF2F4
:1051F000864301F07F0014BF4FF4004C9C4600EB47
:10520000C0016310C0EBC1014CFA03F3C1EB810193
:10521000090483FB014003441B044FEAA31BF96C00
:10522000FE2900F37582FF235B109942FCDBF86CCA
:1052300041F238010028715840F33B82F868BC6A9B
:10524000DFF8FC90DFF8FC80A0F1040E2046A644B5
:105250003C3009FB018103EA21655AF8255040F8EA
:10526000045F8645F5D141F2380307F15000F15053
:1052700006F6F4731D4606F6D47108EE903AFFF771
:10528000FDFC29464022B86A15F0CDFCB7F9645000
:105290007D62B7F966503D62B7F96850D6F8243997
:1052A000FD61B7F96A50B7F95210BD60B7F96C509B
:1052B0003964B7F95020BB647D605B10B7F96E505C
:1052C0003D607D6C7B643B6CB7F95AE0B7F95CC01C
:1052D000B7F95E60B7F96000B7F954A0B7F9569016
:1052E000B7F95880B7F962101204FA621A043A63E7
:1052F0004FEA0E427A634FEA0C42BA633204FA6311
:105300007B6A02043A641A043B6A3A611A04FB6934
:105310007A611A04BB68BA611A047B68FA611A04DC
:105320003B683A621B047B62023D4FEA0A4A4FEA3D
:1053300009494FEA08480904012329E08078300030
:105340003584B30B6B63193682FB0B0E000C00EB3C
:105350000E40C011013010F5803FC0F29F8082FBEB
:105360000B0E000C00EB0E40C01101304010304419
:10537000B0F5004FC0F2928047F6FF76FA6C25F840
:10538000026F624504F1040403F1010340F3A181BB
:10539000F86AE26B844682FB0C607A6C3E6B1044C8
:1053A000B646A26B82FB0EC63044626B82FB0AC615
:1053B0000644226B82FB09C00644E26A82FB08C0F5
:1053C00030447E6BA26AB64682FB0EC63044BE6B8A
:1053D000626AB64682FB0EC60644F86B226A8646AF
:1053E00082FB0EC00644386CE269864682FB0EC022
:1053F000A269304482FB01C6BA6C102A304423D122
:105400003E696269B64682FB0EC630447E692269F7
:10541000B64682FB0EC63044BE69E268B64682FBE1
:105420000EC60644F869A268864682FB0EC0064492
:10543000386A6268864682FB0EC030447E6A226803
:10544000B64682FB0EC63044B0F1006F266C9C4617
:1054500080F2F680B0F1784FC0F2FB80020116EBCB
:10546000001040F1FB8056EA020000F1F0806FF07E
:10547000004282FB0B06000C00EB0640C01101301D
:10548000B0F5803FB5F902602264FFF65DAF47F6E4
:10549000FF703044B0F5004FBFF66EAF82FB0B0ECD
:1054A000000C00EB0E40C0110130B0F5803F80F2DF
:1054B000DA8082FB0B0E000C00EB0E40C0110130B5
:1054C00010F5803FC0F2F08082FB0B0E000C00EB69
:1054D0000E40C01101304010304410F5004F80F2F2
:1054E000C280904E4AE741F2440356F80380B8F177
:1054F000000F60D1002A13DD06F62611DFF82CE23A
:1055000001EB420206F6D27C3CF9023F31F9020F70
:10551000C01A8A4280FB0EA52B44ACF80030F3D1B0
:10552000D6F81429002A0FDD4FF0000C634604F171
:10553000100050F8041B6145C8BF984603F10103F1
:10554000C8BF8C469342F4D1D6F81C09013A06F63E
:10555000D42A00FB02F2920051460AEB800015F0BB
:105560000EFBD6F81C2908FB02F1013106EB810184
:105570009200504615F057FBD6F81409002813DDA9
:1055800041F234031034F158DFF8A4C104EB800079
:1055900054F8043BA042A3EB010383FB0C521144DB
:1055A000F6D141F23403F150D9F80030D6F824296D
:1055B000002B7FF4E5AD920006F6F470002115F0A3
:1055C00035FD7437BD46BDEC028BBDE8F08FB3F5F9
:1055D000000F3FF7F6AD81FB0140210C83FB034C2C
:1055E0004FEA0C4301EB004103EB1443A3EB4113DF
:1055F000002B40F38580B3FA83F1C1F11800002835
:1056000000F08B80B8BFC1F13800C34111F0010F29
:105610004BF2864403F07F0318BF4FF4004403EBC2
:10562000C300C3EBC003491044FA01F1C3EB830389
:105630001B0481FB0340014409024FEAA11BEEE574
:1056400006F10042103A002A374AFFF60CAF324406
:105650000FE7B6F1004F4FF00042F8D41642F6D5EE
:105660004FF0004205E782FB0B0E000C00EB0E40F2
:10567000C0110130B0F5803FB6B217DA82FB0B0ED5
:10568000000C00EB0E40C011013010F5803F34DB00
:1056900082FB0B0E000C00EB0E42D2110132C2F362
:1056A0004F02164436B269E61E4815E747F6FF7208
:1056B000F7E706F6F47306F6D4711C4607F15000BE
:1056C00008EE903AFFF7DAFAB86A2146402215F060
:1056D000AAFAFB68A3F14001BB6A0B44194618EE15
:1056E000900A402215F09FFA18EE103A74379D4642
:1056F000BD46BDEC028BBDE8F08F4FF40042D0E711
:105700004FF0000B8BE501F07F004BF2864C76E505
:1057100041F23801FF23715890E503F07F034BF20B
:1057200086447CE70080FFFFF0FFFF7F0000DC3F46
:1057300000001A122DE9F04F2DED048BADF5697DB7
:1057400002AF0024C7E92644C7F88400B966FA63AB
:10575000002B5BD04B68A3420BDD054641F2A8004D
:1057600021462A4600FB0354C2F8541902449442CD
:10577000FAD1D7F8841041F2B8028A589A424EDB27
:105780000022012BBA6454D0D7F88420D2F85429CF
:105790007A60002A64D1002B64DD4FF0000AD7F84C
:1057A0008430C7F888A0D7F868A003F51864DAF841
:1057B0001030002B00F0E5810A2B00F0E281142B61
:1057C00000F04882282B00F067823C2B42F0D48303
:1057D0000322042344F8282C44F86C3CDAF80C60CB
:1057E000B61226F00803072B06F1010600F0C2806E
:1057F0000C2E00F0BF806FF0C703BB64B86C07F5D8
:105800006777BD46BDEC048BBDE8F08FBB6ED7F863
:1058100084105B6841F2B8028A589A42B0DA01F506
:1058200085500830FCF798FBBB6EB8645B68012BB1
:10583000AAD1D7F8841041F2B8028A58022A02F09D
:10584000F581D7F88420D2F854297A60002AA4D0B0
:10585000BA6E1268022A02F045830021796006E0E0
:1058600000227A60BA6E1268022A02F02B80B96EAA
:10587000D7F88460896841F2B40041F2B80C325024
:10588000A1F5FA5449F64040844246F80C30B2D8AB
:10589000F86B012800F01C82D6F85459BD61002D28
:1058A00041F08587002B41F32887D7F868B0D7F8F7
:1058B000D0A306F6641841F2A80658F80C3C002B59
:1058C0000CDDC146002401215046FBF7D7FC49F806
:1058D000040B58F80C3C0134A342F4DC012150467F
:1058E000FBF7CCFCC8F80C00DBF804300135AB4208
:1058F000B044E2DC002B41F30087D7F88430D94D67
:10590000D7F86880D7F8D09303F6741400260AE01D
:105910002360D8F80430013604F58554B34204F10D
:10592000080441F3EA860C220021204615F07EFB94
:1059300054F8043C002BECD054F81C3C012BE7D06D
:10594000023B082255F823104846FBF7A9FC54F8FF
:105950001CCCBCF1000F00F10100DADD2146002370
:1059600040FA03F2013302F00102634541F8042BCF
:10597000F6D1CEE70FFA86F854F86C1C54F8742C64
:10598000DAF8085008EB880344F8643C964211FBAF
:1059900003F3C7F88C304FEA880304D154F8701C25
:1059A0008D4200F01E81C8EB481908EB89094FEAC7
:1059B000C9094FF4967200212046C7F8803015F0CF
:1059C00035FBB9F5FA5FD7F880304FEA481B07D0AE
:1059D00042F6E062914503D0B9F57A5F42F0498121
:1059E000B5F5FA5F0FD042F6E06295420BD0B5F5FF
:1059F0007A5F08D045F6C052954204D04BF680320B
:105A0000954242F0368145F6C051B9F57A5FD4BF70
:105A1000002201228945D4BF00200120C2EB293297
:105A2000B5F57A5F42FA00F2D8BF4FF0000C8E480D
:105A3000C4F81C81C8BF4FF0010C013A8D42D4BF9D
:105A400000210121CCEB253C02EB820202444CFAFE
:105A500001F01044854A10F9010CC4F8240182FBBE
:105A6000052CE91703EB0802C1EBAC1152004D45C0
:105A7000C4F82011C4F80C2140F38A80ABEB080B6A
:105A800008EB8B0BB5EB0B1F00F0D3800222C4F8A0
:105A900008210F214FF0010C09FA01F191FBF5F1FA
:105AA000890081FB0502120409FA0CF902EB10428D
:105AB0009145C4F810110CDD013181FB0520120C59
:105AC00002EB00424A45084601F10101F5DBC4F84A
:105AD000100154F8742C44F8705C964200F08180F8
