:1000000000000420750300005D030000F1430000C0
:1000100061030000630300006503000000000000AE
:100020000000000000000000000000006703000066
:1000300069030000000000006B0300006D03000076
:100040006D6300006F0300007D630000F168000035
:100050006F0300006F0300002D6000006F030000BD
:100060006F0300006F0300006F0300006F030000C8
:100070006F0300006F0300006F0300006F030000B8
:100080006F030000DD4300006F0300006F030000FA
:100090006F0300006F0300006F0300006F03000098
:1000A0006F0300006F0300006F0300006F03000088
:1000B0006F0300006F03000000000000000000005C
:1000C0006F0300006F0300006F0300006F03000068
:1000D0006F0300006F0300006F030000B58700008E
:1000E0006F030000516800006F0300000000000073
:1000F000000000006F030000000000006F0300001C
:1001000000000000000000000000000000000000EF
:1001100000000000000000000000000000000000DF
:1001200000000000000000000000000000000000CF
:1001300000000000000000000000000000000000BF
:1001400000000000000000000000000000000000AF
:10015000000000000000000000000000000000009F
:10016000000000000000000000000000000000008F
:10017000000000000000000000000000000000007F
:10018000000000000000000000000000000000006F
:10019000000000000000000000000000000000005F
:1001A000000000000000000000000000000000004F
:1001B000000000000000000000000000000000003F
:1001C000000000000000000000000000000000002F
:1001D000000000000000000000000000000000001F
:1001E000000000000000000000000000000000000F
:1001F00000000000000000000000000000000000FF
:10020000354936480A1A02D0072291438D463449AF
:1002100034480A1A06D00722914381F30988022242
:1002200082F3148830483149314A00F044F83148AB
:100230003149324A00F03FF831483249324A00F041
:100240003AF832483249334A00F035F832483349F7
:10025000334A00F030F833483349344A00F02BF881
:1002600033483449344A00F026F8344834490022EF
:1002700000F02CF833483449002200F027F83348C6
:100280003349091A082902DB002202604160314A21
:1002900090471F481F49884205D00268043003B4C4
:1002A000904703BCF7E700208646EC46002000217B
:1002B000294A9047FEE7884207D0521A05D00378B2
:1002C00001300B700131013AF9D17047884202D0F8
:1002D00002700130FAE770470000042000E00320BC
:1002E0000000042000000420D4B60000000000201C
:1002F00050000020D0030000D003000086950000CD
:10030000D4B6000000000020000000202C96000061
:100310002C9600002C9600002C9600002C960000D5
:100320002C9600002C9600002C960000D2B60000FF
:1003300024B7000050000020500000205000002092
:10034000881E0320881E0320881E0320881E032089
:10035000883E03209D030000418F0000FEE7FEE77A
:10036000FEE7FEE7FEE7FEE7FEE7FEE7FEE7FEE765
:1003700000F002B8FFF7FCBF0F484FF007018843B9
:1003800085460E4880470E48016841F470010160BF
:10039000BFF34F8FBFF36F8FFFF732BF09480A4992
:1003A0000A4A884207D0521A05D0037801300B70F0
:1003B0000131013AF9D17047000004207590000026
:1003C00088ED00E02C9600000000002000000020D6
:1003D000F0B595B01D46164608460C4605F05DF989
:1003E0001A9B0D93CDE9086500252B460C2205A923
:1003F00020460A958DF82C500C9505F075F9079B51
:100400000293069B03939DF814308DF8115003F06E
:100410000302012A1DD1BDF81420059DC3F3C203B8
:10042000C2F383168DF81030B2000C230EA92046BB
:1004300005F05AF9C5F3952508AB0093324602AB97
:100440000EA9284600F038FC204605F02AF915B020
:10045000F0BD022AF8D1BDF81650C3F3C203C5F3AC
:1004600089158DF810300C27082D2E4628BF082638
:100470003B4632460EA9204605F036F9AD1B08ABC7
:1004800002AA31460EA8374400F07AFC002DEBD1C9
:10049000DAE70000014B01221A707047910000203A
:1004A0007047000070B5134D06460FCD88B06C46FE
:1004B0000FC495E80F00002E84E80F004FF0FF33C3
:1004C0004FF00602CDE90023CDE902330A4A0B487A
:1004D0004FF0EB7308BF00226946069305F0E8FA77
:1004E00018B1074A432100F055FF064B1E7008B0B3
:1004F00070BD00BF90960000950400000000002031
:100500002C9600005000002007B5044B0093044ACD
:100510004023FFF75DFF03B05DF804FB25050000F5
:100520005100002038B50E4B0E4D002018700E48BB
:1005300004782D5DD2B21C4675B1043006F02AFF56
:1005400018B10A4A532100F025FF094B1A7812B15D
:100550002378002BFBD038BD0C3006F057FCEFE7BA
:1005600091000020BC090020000000202C96000013
:100570005000002008B50848084A0378D35C3BB116
:10058000043006F083FEBDE808400020FFF78ABF74
:100590000C3006F0DDFBF6E700000020BC0900206F
:1005A0000120FFF77FBF000008B5FFF7F9FF0748FC
:1005B000042100F0BBFA002803DA0549482003F0C3
:1005C000C5FF044B01225A7108BD00BF0896000008
:1005D000BC96000014000020037813F0040216D02B
:1005E00003F00303012B03D0022B09D00120704735
:1005F0000A6800880332C0F3831002440A60F5E7FA
:100600000B684288033303EB92130B60EEE710464E
:10061000704700002DE9F04F044685B0C61C00204D
:100620000F46154603F0ECFC414A51683960936867
:1006300003F580735B1A924602F21C4702F5836948
:1006400002F21448B34219D30020002D6CD004F0FC
:100650000F039B0143F0050363F30F00DAF8043046
:10066000DAB203321E444AF822000020CAF80460BD
:1006700003F0D6FC012005B0BDE8F08F012138461B
:1006800004F01BF8484604F03EF8404604F03BF8FE
:10069000DAF808000090C0B203300AEB8000694627
:1006A000FFF79AFF009B8346B8B9DAB20AEB8202E1
:1006B000591CD2680192C9B20AEB810102F003020F
:1006C0000333012AC968009326D0022A07D01949AA
:1006D0004FF4C27003F03AFF0BE0D8B2DCE7BDF88C
:1006E0000620C2F3891203324FEA114B03EB920347
:1006F0000093404604F00AF810B1009BCAF8083095
:100700005946384603F0D9FFDAF80830DAF8042001
:1007100003F580739B1A95E7BDF80420C2F383129A
:100720004FEA114B1344E3E7A40544F0060095E7B4
:10073000640100203597000038B50446084684B1AE
:10074000094D00232B7000F077FB0848C5F80C44D6
:1007500004F05CFF044610B9054804F0D9FF2046B8
:1007600038BD0724FBE700BF640100201896000095
:10077000AC97000030B50A4C71B10A4A0A49121B05
:10078000D20800239A4201D1002030BD31F8235015
:10079000854202D00133F5E7034654F83300F4E70D
:1007A000889500000896000000000020094B0139E0
:1007B00003EBC000032909D8DFE801F00A020406B0
:1007C00004207047007970474079704700207047D7
:1007D0000220704788950000034BD3E90130C31A0B
:1007E00058425841704700BF640100202DE9FF4185
:1007F000FFF7F2FF0546002840F0E880744CC4F88B
:100800001804BFF34F8FA3680093DBB2033304EBEC
:1008100083006946FFF7E0FE009B18B1D4F8182466
:10082000002A5BD0591CC9B204EB8101DAB2C96855
:100830000291D91C023304EB8202DBB204EB830386
:10084000D268DB68039302F00303022B019200914C
:100850004FD1BDF806305F48C3F38917502F3E468D
:1008600028BF502666F38F1306F10C01ADF8063051
:1008700004F0E4FE0546002800F0938004F00DFF2C
:10088000002301A90C22284604F01AFF0099CB434B
:10089000DBB20133C9B20331B6EB830F4FEA8308F1
:1008A00004EB810122D90C234246A6EB0806284618
:1008B00004F006FFF6B2484908F10C033246284618
:1008C00004F0FEFE009B033703EB97070097D4F874
:1008D0001834002B41D1D4F8106451E062689A4278
:1008E00093D8A260284604B0BDE8F0810C233246BC
:1008F000E5E7012B55D1BDF804303648C3F3831129
:10090000062928BF062161F3891303318900ADF858
:10091000043004F093FE0546002842D004F0BDFEEA
:1009200000230C2201A9284604F0CAFE0026BDF8C7
:100930000420C2F38312B300964203F10C03C6D223
:1009400000994A1CC9B20331009204EB81010422D0
:10095000284604F0B5FE0136E9E7284604F0A1FE7A
:10096000FFF73AFF80F00100C5B2BBE7F3685B799F
:1009700023B1336829461B6830469847F3681E68E0
:10098000002EF3D1284604F08CFE304603F038FBED
:10099000D4F818340BB9009BA360002003F040FB8F
:1009A000DEE7D4F8104454B90C4B0D480D49C01A79
:1009B000C008000440F0020000F076F8D0E7236899
:1009C00020469B689847E3681C68ECE7002589E7A8
:1009D0006401002018960000700100208895000036
:1009E000C0950000959700002DE9F34704460F4697
:1009F000914601A9012218469846FFF70BFE254EA5
:100A0000002835D0019D0023E81C434503EB00017D
:100A100037D12148002103F02DFE80F3100A1F4B2F
:100A20001F4A4FEA14499B1AB9EBD30F04D31D494F
:100A300040F2A91003F08AFD6B1CDBB206EB8303C6
:100A400049EA0A40D860D6F80C349847AB1CDBB2B0
:100A5000E40006EB830304F03804EDB244F0010433
:100A6000D860033544EA881343EA872346F82530E3
:100A700033781BB1FFF7BAFE0028FBD102B0BDE806
:100A8000F087C9B206EB810159F82320CA6001330F
:100A9000BBE700BF6401002080050020089600002D
:100AA000889500003597000000231A46FFF79CBF89
:100AB00007B50123019201AAFFF796FF03B05DF885
:100AC00004FB07B5CDE9002302236A46FFF78CFF3C
:100AD00003B05DF804FB1FB5CDE90123069B03932A
:100AE00001AA0323FFF780FF05B05DF804FB1FB5E3
:100AF000CDE90023069B0293079B03936A460423D8
:100B0000FFF772FF05B05DF804FB7FB5CDE9012367
:100B1000089B0393099B04930A9B059301AA052351
:100B2000FFF762FF07B05DF804FB000030B50F4926
:100B3000D1F8102403460020144634B9DC68207133
:100B40004AB9C1F81034226030BDE4682579854285
:100B500006D02468F1E7D268116821601360F3E7DA
:100B600001300A28E8D14FF0FF30EDE764010020A2
:100B7000084A38B50123D2F8104413701D4604B951
:100B800038BDE3685D71236820465B689847E36879
:100B90001C68F4E76401002007B503460846197A8B
:100BA000052911D05B7A2BB1094A0A49019004F05A
:100BB000D1FA01980849019004F0CCFA019803B0E9
:100BC0005DF804EB04F0B4BA002AF8D0F2E700BFF5
:100BD000B8970000BD970000DD970000F0B5C3880E
:100BE00087B005460E4633B1294A009229492A4A60
:100BF000304604F0AFFA297A052946D06B7A4BB11A
:100C0000A888FFF7D3FD254B254953F8202030460F
:100C100004F0A0FA234A2B681468B3FBF4F4224BC7
:100C20001F68B4FBF7F34FF461604FF47A71B3FBC4
:100C3000F0F200FB123007FB13434FF03C0C01FBBA
:100C400003F4B0FBFCF3B4FBF7FE0CFB130007FB53
:100C50001E4400904C4330461449B4FBF7F4CDE9F0
:100C600001E404F077FA2A7A114BA88853F822207D
:100C700005920021FFF77EFD059A0E490346304696
:100C800007B0BDE8F04004F065BA07B0F0BD00BFA2
:100C9000B8970000C8970000C09700006098000057
:100CA000BD970000200600201C060020E0970000F1
:100CB00084980000FC9700002DE9F04385B01F46A2
:100CC0000C9D002395F80C902B7306460C4690461D
:100CD00029463846FFF782FFB8F1060F09D8DFE84A
:100CE00008F00412181F283340003146284604F04B
:100CF00031FA002229463846FFF74EFF85F80C905E
:100D000005B0BDE8F08322683146284604F022FA97
:100D1000EFE7D4E900233146284604F01BFAE8E760
:100D2000A36800933146D4E90023284604F012FA60
:100D3000DFE7E3680193A36800933146D4E9002319
:100D4000284604F007FAD4E723690293E368019385
:100D5000A36800933146D4E90023284604F0FAF949
:100D6000C7E76369039323690293E3680193A36868
:100D700000933146D4E90023284604F0EBF9B8E7A4
:100D800008292DE9F74F80460E4617461C463CD8E9
:100D9000002593F80C901D7319461046FFF71EFFAF
:100DA000DFF888A0DFF888B0AE4231D918F8052006
:100DB0005946204604F0CEF90135082DF4D11949E1
:100DC000194DDFF870A0204604F0C4F94FF0000B75
:100DD0005E4522D918F80B207E2A05D810460192CC
:100DE00008F0F5FA019A00B92E225146204604F087
:100DF000B1F90BF1010BBBF1080FE9D1012221463A
:100E00003846FFF7C9FE84F80C9003B0BDE8F08FB8
:100E10005146204604F09EF9CEE72946204604F0CC
:100E200099F9E6E7109800000E9800000C98000071
:100E30000698000012980000084A10B50123084CDB
:100E400013600021A04204D801B11360054B186063
:100E500010BD40085B000121F4E700BF2006002020
:100E600040420F001C0600200268530910B50446DA
:100E700018D0012B4FF6FF7318BF002302F01F029A
:100E8000D340DB0704D409494FF4F67003F05EFB4E
:100E900023681F2B83BF03F01F03054823604FF017
:100EA000A04010BD4FF0FF33E8E700BF9898000066
:100EB00000030050032813B5044603D909493A201A
:100EC00003F044FB084B01A81B5D0193FFF7CCFF27
:100ED000019BD0F80405D840C04300F0010002B0E7
:100EE00010BD00BFE498000033990000032813B53B
:100EF000044603D90849412003F028FB074B01A809
:100F00001B5D0193FFF7B0FF019A01239340C0F8E6
:100F10000C3502B010BD00BFE4980000339900000A
:100F2000032813B5044603D90849472003F00EFBF4
:100F3000074B01A81B5D0193FFF796FF019A012360
:100F40009340C0F8083502B010BD00BFE49800001F
:100F50003399000008B50020FFF7E2FF0120FFF7FA
:100F6000DFFF0220FFF7DCFFBDE808400320FFF7AA
:100F7000D7BF08B50020FFF7B9FF0120FFF7B6FF84
:100F80000220FFF7B3FFBDE808400320FFF7AEBF24
:100F9000032813B5044603D90B495F2003F0D6FAA2
:100FA0000A4B01A81B5D0193FFF75EFF0199D0F882
:100FB000043501228A4022EA03011340C0F80815D3
:100FC000C0F80C3502B010BDE49800003399000061
:100FD0000B2809D00C2809D0182809D019280CBFD3
:100FE00003204FF0FF30704700207047012070470A
:100FF00002207047F7B5C207044612D5134E0025EC
:10100000032716F8013B019301A8FFF72DFF019B71
:10101000013503F5E073042D40F82370F1D1FFF79B
:1010200099FFA30710D50A4D00240C2615F8013BA3
:10103000019301A8FFF718FF019B013403F5E0734A
:10104000042C40F82360F1D103B0F0BD33990000C7
:101050002F990000C30710B507D4F023054A4008B4
:10106000145C23401943115410BD0901C9B20F2368
:10107000F4E700BF58060020034B0448196800221B
:10108000490800F0BDBA00BF280600203006002045
:1010900038B50B4B1C780B4B196800239C4206DCBF
:1010A0000949882003F052FA0022104638BD11F891
:1010B0003350854201EBC302F7D00133EEE700BFA6
:1010C00024060020780600203799000013B5044656
:1010D0000191FFF7DDFF38B143682BB1019920463C
:1010E00002B0BDE81040184702B010BD10B5C0B244
:1010F000FFF7CEFF0446007804F080FF63785A1EA5
:1011000053425341834208D1044BD3E90023134394
:1011100003D1BDE81040FFF7AFBF10BD500600205F
:1011200038B5334A43080446D35CC2074CBF1B0999
:1011300003F00F030D46042B59D8DFE803F0032218
:101140002A363900002952D00121FFF783FF002001
:1011500002F056FF0120A4F12003C4F12001254A2A
:1011600020FA01F100FA03F30B43A040D2E9004159
:1011700020430B43C2E90003BDE83840002002F0E1
:101180004FBF002918BF02212046BDE83840FFF7B5
:1011900061BF41B10321FFF75DFF20460121BDE89A
:1011A0003840FFF793BF0121EEE701BB0421EBE7D5
:1011B00009B10321E8E7FFF74DFF29462046FFF775
:1011C00085FF284602F01CFF0120A4F12003C4F192
:1011D0002001084A20FA01F100FA03F30B43A04072
:1011E000D2E9004124EA000021EA0303C2E738BD46
:1011F00058060020500600202DE9F041124E134FF2
:1012000000243378A34208DC114BD3E900231343B5
:1012100018D0BDE8F041FFF72FBF3D6805EBC408CB
:1012200015F8340004F0EAFE98F801305A1E5342D3
:101230005341181A4142414115F83400FFF770FF3D
:101240000134DEE7BDE8F0812406002078060020A6
:1012500050060020092AF7B505460C4616463CD92B
:1012600004F0D6FDD8B11E4B1E481D601E4B1F4F0B
:101270001C701F4B002120221E6008F021F91D4B1D
:1012800000200021C3E90001013CE4B20326FF2C49
:101290000BD1194A1948002100F096F903E004F037
:1012A0007DFD0028DFD003B0F0BD9DF8063015F8B5
:1012B00034008DF8046005EBC40223F007038DF8B9
:1012C000063001A993788DF805303A4604F0AAFD5E
:1012D000013CE4B20028DAD0E5E70720E3E700BFED
:1012E000780600205806002024060020ED1000009B
:1012F0002806002050060020F91100009C990000EB
:1013000070B50B4D2A6822B90A4940F2351003F036
:101310001DF9094E00243378A34201D8002070BD86
:101320002B68012113F8340004F008FE0134F2E7C1
:1013300078060020379900002406002082B001239F
:101340008DF807309DF80730114B1860596044F252
:10135000010188429A6012D044F20201884206D10B
:10136000DA60DA6812689A61DA685268DA6172B62D
:101370009DF80730002BFBD162B602B070471A61AE
:101380001A6992685A611A6912689A611A69ECE7D7
:101390007C06002000B583B002900091019244F2D7
:1013A000010071466A4600F003F803B000BD00007A
:1013B000F0B5064687B00F46154672B6FFF7D8FB64
:1013C000FFF714FA0028FBD11E4B1F4CE41AE40867
:1013D00044F2010324049E4244F0010416D044F276
:1013E00002039E4227D1D5E9003218492046FFF773
:1013F00068FB174B1B68DB0700D500BE2A46394641
:10140000304607B0BDE8F040FFF798BFAA680592E4
:10141000104604F007FA2968029701916968009163
:101420000346059A0B492046FFF76FFB0A49204601
:10143000FFF73AFBDDE709493A462046FFF738FB5C
:10144000D7E700BF88950000C0950000A099000074
:10145000F0ED00E0BA990000E0990000F499000076
:10146000D0E90223D1E90201994208BF90422CBF82
:10147000012000207047000008B50B4802F097FFDC
:101480000A4B0B49D3E900231218D1E9000143F1BB
:1014900000038B4208BF824203D212F1807243F1F3
:1014A00000031046194608BD1C000020A0060020BD
:1014B0001807002037B505460C460A4801A903F075
:1014C00064F860B10570446001A9064803F087F82C
:1014D00018B1054802F070FF002003B030BD0420B1
:1014E000FBE700BF040700201C00002038B543695B
:1014F00004461BB91849A22003F028F8174B1B78A3
:1015000013B90025284638BD237F03F0FF05002BC3
:10151000F7D0FFF7B1FFD4E90223994208BF904208
:1015200014D3236903B92377D4E905309847216997
:101530000029E6D0237F03F0FF05002BE1D0D4E99A
:101540000223521843F10003C4E902230448214650
:1015500004F0F6F8D6E700BF0C9A0000A8060020B9
:10156000749A000013B5114B1149186801900823B3
:101570001048582202F0F6FF044698B90E4A0F4868
:1015800001A902F0B1FD044660B90C48012102F046
:10159000F5FE01230A4A0948194602F043FE094BA9
:1015A00001221A70204602B010BD00BF6E9A0000E2
:1015B000AC06002004070020751600001C00002067
:1015C000FFFF7F00A806002070B50C4615460646B2
:1015D00020B90A4940F22E2002F0B8FF35B940F296
:1015E0002F20064902F0B2FF072070BD621E33684B
:1015F000544254415D611C610020F6E70C9A0000E2
:1016000070B50D461646044620B90D4940F23E20FD
:1016100002F09CFF237F83B9A661FFF72DFF2369AA
:10162000401941F10001C4E9020103B125612146DD
:101630000020BDE87040FFF73DBF002070BD00BF37
:101640000C9A000010B5044620B906494FF41570F5
:1016500002F07CFF0023237721460120BDE81040E3
:10166000FFF728BF0C9A0000014802F0A0BE00BF9F
:101670001C0000202DE9F04F85B0064602F082FEE6
:1016800040B16A4AD2E9003113F1807341F100019F
:10169000C2E900310021304602F07EFEE8B1644B21
:1016A0001A689846CAB1304602F081FE002107460A
:1016B000304602F076FE381A20F07F40B0F5960FE3
:1016C00004D35C494FF4957002F040FFD8F8000055
:1016D000FFF70CFF0023C8F800300121304602F06C
:1016E0005BFE20B1FFF7C8FE534BC3E9000153482E
:1016F000DFF83C81524FDFF8509103A902F07FFFE1
:10170000002846D1DFF83891494FDFF840A148461C
:1017100004F042F83B6800287DD07BB13B68D0E9FB
:101720000201D3E90223994208BF90422ED23B68BE
:101730001B7F1BB13968484604F002F8484604F0A4
:101740001BF8D0E902B380460193FFF795FE019B99
:10175000BBEB000463EB0105012C75F1000349DBD1
:10176000B4F5350F43D3FFF77FFF364A02444FF4F9
:1017700096030021504602F083FD002844D13B68C7
:1017800013B9304602F032FDC7F8008005B0BDE85D
:10179000F08F0378012B1DD0022B09D14FF0000AE6
:1017A000384603F0E9FF00283BD080F81CA0F7E79B
:1017B0003BB941680B7F23B901230B77384603F00F
:1017C000BFFF03A91D4802F045FF03A91B4802F013
:1017D00016FF95E74168D8F80030994203D10023FD
:1017E000C8F80030EDE7384603F0E2FFE9E7D8F843
:1017F0000820BCE70021504602F0C8FD4046FFF734
:1018000075FE00233B6082E70D28F7D00949F520DB
:1018100002F09CFEF5E7002BB8D1304602F0F4FC54
:10182000B4E7012389F80030CBE700BFA006002011
:10183000200700200C9A0000180700200407002051
:10184000749A0000FFFFB400A80600201C000020CE
:10185000024B5B6803B11847704700BF28070020A0
:10186000024B0146D3E90002104700BF7C0700206D
:1018700038B50D46044620B9064940F2431002F03F
:1018800065FE6378AB4283BFA07840190019002041
:1018900038BD00BF809A000038B50D46044620B917
:1018A00006494FF4887002F051FE237AAB4283BFA1
:1018B000093405EB45056019002038BD809A000009
:1018C00070B50D46044620B90D4940F20F1002F0E4
:1018D0003DFE636823B90A494FF4887002F036FE72
:1018E00063681B6823B9064940F2111002F02EFE0E
:1018F0006368294620461B68BDE87040184700BF52
:10190000E09A000010B5044620B9044940F2432093
:1019100002F01CFE2368186810BD00BF359B000054
:1019200000F00F0310F0800F10B51C460AD0082BF2
:1019300004D909494FF4CC7002F008FE074800EBC7
:10194000C40010BD082B04D903494FF4CF7002F036
:10195000FDFD0348F3E700BFE09A000034070020D4
:101960007C07002070B50D460646FFF7D9FF0446F8
:1019700005604DB9730604D105494FF4E17002F0DA
:10198000E5FD0023636070BD6B681B68FAE700BF6C
:10199000E09A000038B5831EDBB2062B98BF1A4AC6
:1019A0001A4D98BFD25C2B78A3F10203DBB288BF3B
:1019B0000022062B9ABF1449CB5C002393420446B5
:1019C00003D0B2B1124803F0B7FF022C14D0A4F137
:1019D0000800424242412B78022B0FD0A3F10801AC
:1019E0004B424B41934202D052B106F0F5F92C70B4
:1019F00038BD03F0DDFFE8E70122ECE70123F1E762
:101A000006F0E0F9F3E700BF939B0000F808002020
:101A1000240000200378052B73B504460CD1344A0A
:101A2000D2F88434D2F8802412F0FF0F04D1314A66
:101A3000DBB2052B08BF14462378002B32D12E4B86
:101A40002E4E1D68C5B928462D4D02F0D9FA2A68D8
:101A500012B92C4B62881A800121294802F02DFE10
:101A6000002002F0DDFA284B1B6813B1012120464B
:101A700098472B6802B070BD2B6823B931464FF4EC
:101A80008D7002F063FD2B689B6823B9314640F2EC
:101A90001B1002F05BFD2B6860889B6898472B68E1
:101AA0005D68CFE7194801A902F06FFD05460028DF
:101AB000E0D023680360002002F0A2FA114B104826
:101AC0001B88026801339B1AEB80002102F0D2FDD3
:101AD000A880002002F0A4FA01A90C4802F07FFDC2
:101AE000094B1B680146002BC4D020469847C1E72C
:101AF00000700240AC9B0000EC080020E09A00005F
:101B0000F4080020C407002028070020D008002087
:101B1000FFF780BF012805D0022805D030B906485C
:101B2000FFF778BF0548FBE70548F9E7054940F2AC
:101B3000622002F00BBD00BFA09B0000A49B000030
:101B4000A89B0000E09A000008B520B1044940F2CB
:101B50007B2002F0FBFCBDE808400248FFF75ABFBB
:101B6000E09A0000B09B00002DE9F04F87B00026FE
:101B70000546884691461F4602966B6800225C68BF
:101B80002946012302A8A047044638B98DF806006B
:101B900004908246564503D8052028E00136ECE73C
:101BA0006B680DF10602D3F804B02946012304A89E
:101BB000D8476B680DF10702D3F804B0294601231A
:101BC00004A8D8479DF8073043459DF8063013D147
:101BD0004C450FD1109A13603B7087F801806A68FA
:101BE000023B54682946BA1C04A8A047002007B04D
:101BF000BDE8F08F0134E4B26A68023BD2F804B069
:101C00002946002204A8D8479DF806309A44C1E727
:101C1000014B1888704700BFE0080020F7B5054663
:101C200003F02AFE20B9304940F2313002F08EFC38
:101C30002E492F4808234FF4847202F093FC0028A9
:101C400050D12C4806F008F90446002834D12A4B1C
:101C500018702A4B18602A4B014618604822294800
:101C600007F02EFC28484822214607F029FC274B84
:101C70002DBBC3E900551D72002003F0BDFE30B13D
:101C8000852804D0184A40F25F31FFF783FB204FCC
:101C9000002529463846FFF7FFFD0135EDB2044621
:101CA000F0B90B231A488DF8043001A9FFF708FE9C
:101CB000044608B105F052FF204603B0F0BD95E898
:101CC000070083E80700D7E700783946FFF74AFEA8
:101CD000F1B22046FFF7CCFD01360028F4D1D8E759
:101CE0000026F5E70324E7E7E09A0000C607002096
:101CF000D0080020111B0000F8080020E408002094
:101D0000E8080020340700207C0700202807002076
:101D1000209C000010B506F005F810B908231846FD
:101D200010BD06F007F804460028F7D1064803F076
:101D30007EFE03460028F2D0044A40F2C231FFF78B
:101D400029FB2346EBE700BF9C9B0000E09A0000C4
:101D500005F01ABF08B505F0F7FF20B1044940F2BD
:101D6000D13002F0F3FBBDE8084006F0BDBD00BF76
:101D7000E09A000008B505F0DDFF20B90A494FF4EC
:101D8000767002F0E3FB4FF08043D3F838249207DB
:101D900004D5BDE808400548FFF73CBED3F8382419
:101DA000D107F2D408BD00BFE09A0000B19B00004B
:101DB00007B5822301A88DF80430FFF72BFE03B08E
:101DC0005DF804FBF7B5044620B9384940F26A5083
:101DD00002F0BCFB636823B9344940F26B5002F057
:101DE000B5FB63681B6823B9304940F26C5002F0C0
:101DF000ADFB23681B6823B12C4940F26D5002F003
:101E0000A5FB05F097FF30B1284940F2715002F070
:101E10009DFB002613E005F085FF0028F9D1F3E7CC
:101E20000078FFF77DFD0368013713B1112023E02F
:101E30000027F9B22846FFF71BFD0028F0D13146F4
:101E40002046FFF729FD0136F6B205460028EFD1FE
:101E500029462046FFF720FD0135EDB20646C8B9F8
:101E6000134D124E2B68BBB92C600B2301A92046E1
:101E70008DF80430FFF724FD03B0F0BD0078214653
:101E8000FFF770FDF9B23046FFF7F2FC013700288A
:101E9000F4D1DDE70027F5E7A34204D1314640F253
:101EA000975002F053FB2B681D68DBE7E09A0000B7
:101EB000E4080020024B1878003818BF0120704752
:101EC000F0080020030710B5044604D406F0D0FA49
:101ED000204606F0DBFD2046BDE8104006F082BD3E
:101EE00006F04ABD014B1868704700BFE4080020A7
:101EF0002DE9F8430F4B1C6806460D46BCB194F81B
:101F000008904FF000085FFA88F7B94504D82046DA
:101F1000FFF7F8FC0446F1E739462046FFF7BCFC22
:101F20000378B34208F10108EDD105B12F702046C6
:101F3000BDE8F883E40800201146FFF7C1BC07B5EF
:101F400000F00F03082B019109D8FFF7E9FC0068A6
:101F500028B1019903B05DF804EBFFF7B1BC102084
:101F600003B05DF804FB000038B5074B1C6805465C
:101F700004B938BD29462046FFF7A2FC2046FFF7EA
:101F8000C1FC0446F4E700BFE408002038B5084B64
:101F90001C6805460CB9062038BD29462046FFF7C7
:101FA0008FFC0628F8D12046FFF7ACFC0446F1E789
:101FB000E408002013B50446019105F09AFF50B1E2
:101FC000064B1B78022B06D10199204602B0BDE8D2
:101FD000104005F09BBF082002B010BDF80800209B
:101FE00013B50446019105F084FF50B1064B1B78F0
:101FF000022B06D10199204602B0BDE8104006F040
:102000000DB8082002B010BDF808002043689B6896
:1020100070B505460E4614469BB92B7AB34204D2DE
:102020000F4940F2F92002F091FAB4B9314628463E
:10203000FFF732FC46780546E1B2B14205D30020F5
:1020400002E098470628E8D070BD2846FFF710FC4C
:102050000078FFF737FF0134EEE70720F4E700BF11
:10206000E09A00004368DB6870B504460D4603B192
:102070009847237AAB4204D20B494FF4467002F0E2
:1020800065FA29462046FFF707FC467804460025F6
:10209000E9B28E4200D870BD2046FFF7E9FB007818
:1020A00006F06AFC0135F3E7E09A000043681B691B
:1020B00003B1184718467047F8B50D4B0D4E1C6814
:1020C00004B9F8BD277A0025E9B28F4204D820462A
:1020D000FFF718FC0446F3E700222046FFF796FFBF
:1020E00020B1314640F26A7002F030FA0135EBE778
:1020F000E4080020E09A0000094B70B51C6804B9A0
:1021000070BD267A0025E9B28E42204603D8FFF73B
:10211000F9FB0446F3E7FFF7A5FF0135F3E700BF3E
:10212000E408002038B5944B1B68044623B9934952
:1021300040F2254002F00AFA01F082FF052804D897
:102140008E4940F22C4002F001FA23780F2B13D96C
:10215000A3F1800283F08003052B06D9BDE8384047
:10216000864940F2265002F0F1B9052AF6D8DFE898
:1021700002F05C293E6871D30F2BEFD801A252F810
:1021800023F000BF73220000A722000007230000F5
:10219000CB220000E9220000192300002B230000BD
:1021A0005D2100006D2300007123000075230000F5
:1021B0005D2100005D2100005D2100005D21000027
:1021C000232300006E48FFF74BFB6D48FFF7CCFE62
:1021D0000D20FFF73DFBFFF78FFF00F0EAF901202C
:1021E00005F06EFD0120BDE83840FFF7D3BBFFF7D7
:1021F00083FF06F04BFB0020FFF7CCFB6148FFF7A5
:10220000B3FE6048FFF72CFB0E20FFF721FB5E4B6F
:102210001B78023BDBB2062B3DD85C4AD35C002B1B
:1022200039D0BDE8384003F0C3BB574B1B78062BB1
:1022300005D003F0FD03052B2DD10220D3E70820A4
:10224000D1E7514B1B78032B25D106F06FFB10B360
:102250000420C8E74C4B1B78032B05D106F066FB26
:1022600010B10420FFF796FB05F07CFD98B1062025
:10227000B9E7474B62881A80434B1B78032B01D088
:10228000082B02D14348FFF74DFF0020FFF7E0FA8B
:10229000414B1D6805B938BD28462146FFF710FBA4
:1022A0002B685D68F6E7FFF727FF00F079F9022059
:1022B000FFF770FB0120FFF7CBFA2046FFF7D0FABB
:1022C0002046BDE83840FFF74FBE2F4B1B78082B48
:1022D00006D10220FFF75EFB05F088FD0320EAE748
:1022E0000520FFF757FBF9E70320FFF7B1FA2B486A
:1022F000FFF7B6FA2948FFF737FE234B1B78062B6A
:102300009BD107206FE70320FFF744FB0220FFF774
:102310009FFA2046FFF728FE2046BDE83840FFF729
:102320009FBA0F20FFF794FACAE7A078FFF7F8FAF0
:102330000368054623B9114940F2025002F006F93C
:102340006B6823B90D4940F2035002F0FFF86B6847
:1023500028682146984700289DD0A07802079AD087
:10236000030798D4BDE8384006F044B80820D9E700
:102370000920D7E70A20D5E7E4080020E09A00000A
:10238000B29B0000B39B0000F8080020939B000064
:10239000E0080020B49B0000E8080020B59B000086
:1023A00073B5224D002301932B6823B9204921489E
:1023B00002F025F928602C68ECB1A68886B1E38884
:1023C000B3F5006F24BF0023E380E388ADF8063047
:1023D0005A1C013EE280A68001A8FFF7A3FE07E099
:1023E0002046FFF79FFE1249124802F033F92E6093
:1023F000012002B070BD104B18680028F9D02046AB
:1024000001F0FEFD0D4B0C481A88B2F5006F28BF95
:102410001C801A88ADF80620511C1980012102F099
:1024200064F9002001F0FCFDD6E700BFFC080020A5
:1024300024070020D0080020F4080020C407002052
:102440000020704710B5044620B9044940F24320EB
:1024500002F07CF82368186810BD00BF359B0000AF
:102460002DE9F04F2DED028B4B6885B007460C46E9
:1024700091466BB90868FFF7E5FF48B9A5683DB913
:10248000C7E90055284605B0BDEC028BBDE8F08FCA
:10249000B9F1400F04D9354940F2971002F056F8CF
:1024A00005F006FEE36801904B4528BF4B46984671
:1024B00004F110034FF0000A08EE103A56460125C9
:1024C000B8F1000F2DD0A368616843459B4628BF33
:1024D000C34651B3019B5A46981906F0C8FF002322
:1024E0006360A368E268A3EB0B03A2EB0B02A3609B
:1024F000E260A8EB0B085E4433B9BAF1000F03D0D9
:102500002068FFF79FFF2060E368002B2CD0A368B2
:10251000002BD5D12268BAB9626016B1B14588BF27
:102520000025019BC7E90036ACE7002BD9D0216814
:10253000019A4B6818EE100AD3F804A032445B46A7
:10254000D0474FF0010ACCE7029321684B68002284
:10255000D3F804B002A80123D84708B92061AFE737
:10256000A3680133A360F0E71D46A9E7B69B00000E
:10257000084B1A7882420CD0052818BF064A1870FA
:1025800018BF137805481CBF23F002031370FFF730
:10259000C9BD70470C09002028090020309C0000AC
:1025A00008B50020FFF78EFCBDE808408020FFF74B
:1025B00089BC08B50020FFF793FCBDE808408020E7
:1025C000FFF78EBC38B505460C4605F0E1FFA84282
:1025D00005BFD4E90001034B1020C3E9000108BF87
:1025E000002038BD2C0900207FB5C38893421E46C9
:1025F00028BF164693420D46144620D9802005F088
:1026000073FCB4FBF0F202FB1040B0FA80F040091A
:1026100003900020CDE9015601F0F2FC01A98020D1
:10262000FFF7C8FC044620B906498020FFF7CAFF1F
:102630000446002001F0F4FC204604B070BD0020E8
:10264000E6E700BF649C00002DE9F04F0B780E2BED
:1026500089B004460D4613D8A3B1013B0D2B11D808
:10266000DFE813F0120024001600100035003B02D2
:10267000100010001000100010021B02280230028F
:10268000852B1ED0062418E00320FFF771FFF9E721
:10269000AB4802F03BF830B1AA4B01221A60BFF3FD
:1026A0006F8FBFF34F8FA84B1C780CB1002404E050
:1026B000A6494FF4876001F049FF204609B0BDE804
:1026C000F08FA14B1B78032BDCD10420DDE7052321
:1026D0000DF115008DF8143005F0EEFE9DF8157023
:1026E0009B4D002307F01F072B60032F00F288810A
:1026F000DFE817F004001C017D01D80024B99349DC
:1027000040F25E3001F022FF9DF8153013F0600FAB
:10271000C3F3411040F0C680DB099DF8161000F0AD
:10272000B280062918D0082900F0A080002940F0C6
:10273000B980884C0222204606F0C2FE237843F07E
:1027400001022270844A1278910744BF43F00303C8
:10275000237002227F490FE09DF81830022B11D020
:10276000032B75D0012B40F09D80BDF81B30002B52
:1027700000F0AC80794912220DF11500FFF734FF0B
:1027800004463BE0BDF81B30002B00F09F80092B76
:1027900028BF09239846FFF7A5FBDFF8B0A106463E
:1027A0004FF009097EBB6B4C6D494246204606F04E
:1027B0005EFE2771A4F80290FFF77CFB18B1E37965
:1027C00043F02003E371FFF78DFB664BC3E9000480
:1027D000C3F80880BDF81B20DA60002001F010FC6F
:1027E00061498020FFF7FCFB044620B95F49802047
:1027F000FFF7E8FE0446002001F012FC062C51D041
:10280000002C63D05AE0736823B9514640F2C720C8
:1028100001F09CFE73685B6823B951464FF4327037
:1028200001F094FE0024039473680022D3F804B0EE
:102830003146012303A8D84740B9337A30461F44B4
:10284000FFF700FEA144FFB20646ABE70134EBE719
:10285000BDF81B30002B39D0BDF819109DF81700BA
:1028600001F090FB0146E8B1027885E7364A12781C
:10287000052A03D1374A137001226BE7042A11D1CC
:10288000344B1870F8E7013908290BD8DFE801F05C
:102890002B0A0E0A050A0A0A38002C4940F2823037
:1028A00001F054FE05A8FFF771FB9EE0BDF817305C
:1028B000012BF7D1FFF7FEFA18B90F2405F05EFEE1
:1028C000FBE6254A137843F0020313702C68002CB2
:1028D00000F0228105F05CFE044600287FF4E6AE9D
:1028E00005F010FEE9E6BDF81730012BDAD1FFF74D
:1028F000E1FA0028E1D0184A137823F00203E4E754
:10290000114B1B78043B012B01D90824D6E79DF815
:1029100017302BB9FFF7F0FB0420FFF729FED5E7AE
:10292000012B5BD1FFF7C8FB0520F6E79DF81900E6
:1029300003A9FFF7DDFA0746D0B91024BEE700BFB0
:10294000340900205C7002400C090020B69B000096
:102950002C0900203809002028090020509C000084
:10296000319C0000100900206C9C0000649C000059
:102970009DF80C1005AAFFF7DFFA062804467FF43D
:102980003FAF9DF8152012F0600F97D1654B9DF871
:102990000C101E789DF81630D20916D07BB10A2B88
:1029A0008CD1052EB1D138460192FFF77FFB5E49ED
:1029B000019A08700DF11500FFF716FE15E0052EBF
:1029C000A3D159490B800222F4E70B2B7FF476AF99
:1029D000052E9AD1BDF81730FF2B01D907246DE7DA
:1029E0009DF817203846FFF711FB044608E79DF8CD
:1029F0001900020706D19DF8153013F0600F09D0B9
:102A000006245BE705A9FFF79AFA062804467FF437
:102A1000F7AEF0E79DF81620424B9DF819401B7861
:102A2000012A1DD0032A0CD0002AE9D1052B02D09F
:102A300023077FF46AAF204605F0FAFC3A49088084
:102A4000C1E72707DCD4BDF81720002AD8D1052B11
:102A500002D026077FF459AF204605F0CBFC35E7BE
:102A60002007CDD4BDF81720002AC9D1052B02D0EC
:102A700021077FF44AAF204605F0FAFC204606F015
:102A800005F823E7274B1B78002B3FF40FAE2749AF
:102A900040F24C4001F05AFD08E6224B1B78012B16
:102AA00004D0224940F2524001F050FD0020FFF7CF
:102AB0005FFDFBE54FF08043D3F83834DA070AD5E1
:102AC0000220F4E7174B1B78012B04D8174940F27A
:102AD000664001F03BFD0120E9E7CB78032B3FF492
:102AE000D1AD8B785B0604D0104940F2744001F000
:102AF0002DFD0F4E336893B100227168E878326083
:102B00009847044600287FF4D9AE336823B1AB78E8
:102B1000002B7FF4CBADE3E605F026FDCDE50E24DA
:102B2000CCE600BF0C09002038090020B69B00004D
:102B30002C09002008B1402303600148704700BF02
:102B4000380900200068704738B50D46044620B9A2
:102B500006494FF4887001F0F9FC237AAB4283BF39
:102B6000093405EB45056019002038BD809A000046
:102B700038B50D46044620B9064940F2431001F02D
:102B8000E5FC6378AB4283BFA078401900190020B0
:102B900038BD00BF809A000008B50021FFF7D4FFC0
:102BA0000021FFF7E5FF007808BD08B50021FFF719
:102BB000CBFF0121FFF7DCFF007808BD2DE9F843CA
:102BC000B14F99460B7A3B700E469046054620B9A8
:102BD000AE4940F6D60001F0B9FC2C6854B3A4F617
:102BE000DD04202C00F24C81202C00F24981DFE82A
:102BF00014F03500440047014701470147015A00DE
:102C000069007A0089009900A900B80047014701CE
:102C10004701470147014701470147014701470174
:102C2000DA00E900470147014701FE000D011C01E0
:102C30002B013A01964B1C70954B1A783B789A42BF
:102C400002D340F6021305E00923A1452B7106D8F3
:102C500040F6DD032B600120BDE8F8830024B8F1C5
:102C6000000F02D02B7908F80430013404234C45BE
:102C70002B7103D340F6DE03ECE70024B8F1000F1C
:102C800002D02B7908F80430814B30461978FFF7D1
:102C90005BFF804B013418604C4503782B7103D3E4
:102CA00040F6E303D6E70024B8F1000F02D02B79F9
:102CB00008F80430013400234C452B7103D340F64F
:102CC000E403C7E70024B8F1000F02D02B7908F81D
:102CD0000430704B1B6801345B782B714C4503D377
:102CE00040F6E503B6E70024B8F1000F02D02B79D7
:102CF00008F80430013408234C452B7103D340F607
:102D0000E603A7E70024B8F1000F02D02B7908F8FA
:102D10000430013496F828302B714C4503D340F62B
:102D2000E70397E70024B8F1000F02D02B7908F8E9
:102D30000430013496F829302B714C4503D340F60A
:102D4000E80387E70024B8F1000F02D02B7908F8D8
:102D50000430013400234C452B7103D340F6E903C2
:102D600078E70024B8F1000F02D02B7908F804307E
:102D7000484B1B685A78484B1A70484B0022013464
:102D80001A70464B1A78444B1B789A4204D3404A37
:102D90001378013313704FE70723A1452B7103D834
:102DA00040F6F40356E70024B8F1000F02D02B7967
:102DB00008F80430013405234C452B7103D340F649
:102DC000F50347E70024B8F1000F02D02B7908F88B
:102DD0000430324B19782F4B1868FFF7C9FE0134C5
:102DE00003782B714C4503D340F6F90332E70024F6
:102DF000B8F1000F02D02B7908F804300134022317
:102E00004C452B7103D340F6FA0323E70024B8F1B5
:102E1000000F02D02B7908F80430013440234C45D0
:102E20002B7103D340F6FB0314E70024B8F1000F25
:102E300002D02B7908F80430013400234C452B7163
:102E400003D340F6FC0305E70024B8F1000F02D0DD
:102E50002B7908F80430013400234C452B7103D33F
:102E600040F6FD03F6E60024B8F1000F02D02B79FE
:102E700008F80430094A137801330134137080E7ED
:102E800000232B601846E7E67A090020749C0000B6
:102E9000790900207C090020780900207B090020A6
:102EA00010B5044618B906498D2001F04FFB236880
:102EB0001BB903498E2001F049FB20680C3010BD7E
:102EC000749C000003681B6937B504460D4633B98E
:102ED000074901924FF4A37001F038FB019A23686F
:102EE0001B692946204603B0BDE83040184700BFA3
:102EF000D79C000003685B6910B5044623B90549F7
:102F00004FF4AA7001F022FB236820465B69BDE8FC
:102F100010401847D79C000038B50546FFF7C0FFA2
:102F20000446002001F06CF894F8312094F8323017
:102F30009A4204D30C4940F2111001F007FB94F8B7
:102F40003120AB699A4204D307494FF4897001F0EC
:102F5000FDFA94F83130013384F83130BDE838405F
:102F6000002001F05DB800BF749C000038B5054634
:102F7000FFF796FF0446002001F042F894F8313044
:102F800023B9134940F2451001F0E0FA94F83230C9
:102F900023B90F494FF4A37001F0D8FA94F83130F7
:102FA000013B84F8313094F83230013B84F8323000
:102FB00094F83030A9690133B3FBF1F201FB12330D
:102FC00084F83030BDE83840002001F029B800BF57
:102FD000749C00000149812001F0B8BA749C000083
:102FE0002DE9FF41884617461E46044608B9FFF7FB
:102FF000F1FF2046FFF754FF05462046FFF7CCFDC2
:10300000002301A9CDE901870393FEF7D3FF00B99F
:103010002E7004B0BDE8F0817FB50E46054608B9B4
:10302000FFF7D8FF2846FFF73BFF04462846FFF787
:10303000B3FDE36CA26B84F82C60934238BF134657
:103040001A0A84F8283084F829201A0C1B0E84F8F8
:103050002B3004F1200384F82A2001930D22002351
:1030600001A9CDE90223FEF7A5FF08B906232370C5
:1030700004B070BD7FB5044608B9FFF7ABFF20462A
:10308000FFF70EFF05462046FFF78FFD6E1C044636
:103090001F220021304606F013FA1F22002301A947
:1030A0002046CDE902230196FEF784FF08B90223EA
:1030B0002B7004B070BDF8B50F46044608B9FFF791
:1030C00089FF2046FFF7ECFE06462046FFF764FD29
:1030D00005462046FFF769FD0446284605F08AF9B3
:1030E000204605F087F9284605F026FB204605F026
:1030F00023FB3770F8BD38B5856804460DB9FFF776
:1031000069FF2846FFF7CCFE6368026D5968436C7F
:103110000A440265826C4B43934294BFD21A002248
:103120008264C26C0021934294BFD31A0B46C364DD
:1031300080F8541038BD10B5044608B9FFF74AFFAF
:103140002046FFF7ADFE0930FFF7FCFC28B920460A
:103150000121BDE81040FFF75FBF20460721FFF7C0
:10316000AAFF002010BD70B50546FFF799FE064680
:10317000002000F045FF2846FFF792FE90F831400E
:103180002CB1D5E9043296F8304002FB043400201B
:1031900000F046FF204670BD2DE9FF41054608B905
:1031A000FFF718FF2846FFF77BFE90F854300446DF
:1031B00023B10025284604B0BDE8F08190F85530D1
:1031C000002B68D1836C002B52D02846FFF768FE95
:1031D00090F83130002BECD0EB69A27BA76C53F850
:1031E00022802846FFF75CFE6E69436CB74228BF19
:1031F000374628467E1E1E44B6FBF3F6FFF7B3FFA4
:10320000054620B925494FF47D7001F09FF9236DE3
:103210000395CDE90136012384F85430D8F8003005
:10322000DB6823B91E494FF4977001F08FF9D8F885
:1032300000305B6923B91A4940F22F1001F086F97A
:10324000D8F80030019D5B694046984703689D426D
:103250000CD2D8F8003001A9DB68404698470546F3
:103260000028A7D0002384F85430A3E70725F9E706
:103270000378052B9DD1C36C6BB990F82C102846B0
:10328000FFF7CAFE0546002894D0044940F20C40DE
:1032900001F05CF98EE706258CE700BF749C000006
:1032A000D79C000070B50546FFF7FAFD06460020E2
:1032B00000F0A6FE2846FFF7F3FDA96990F832302A
:1032C0008B4215D296F8323096F83040E218B2FBB5
:1032D000F1F401FB1424D5E90421E4B2013301FB2C
:1032E000042486F83230002000F09AFE204670BD9B
:1032F0000024F8E72DE9FF41044608B9FFF76AFE0C
:103300002046FFF7CDFD90F83C3005461BB100206C
:1033100004B0BDE8F081436B002BF8D02046FFF7E6
:10332000BFFDA36990F832209A42F0D22046FFF701
:10333000B9FF6B6B6269934228BF134698460646F5
:1033400020B90E494FF4747001F000F9012385F89B
:103350003C302046FFF7A4FD07462046FFF725FC3A
:10336000002401A9CDE901680394FEF723FE10B9FA
:1033700005233B70CCE785F83C40C9E7749C00000E
:1033800038B5D36C0546144623B9BDE83840012151
:10339000FFF742BE936C23B92846BDE83840FFF7DB
:1033A000CABE92F90D30002BF6DB0846FFF778FD18
:1033B0000023038680F83230D4E912239A4288BF72
:1033C000A364A363A36C636388BF02224FF000036E
:1033D00088BF84F82C2084F83C3084F85430284688
:1033E000FFF788FF044610B12846FFF7A4FE2046E9
:1033F00038BD000073B5044608B9FFF7EBFD204661
:10340000FFF74EFD90F83C3005461BB100242046E6
:1034100002B070BD90F83D30002B3BD1436B33B30D
:103420002046FFF73DFD90F83130002BEED02046CE
:10343000FFF799FE6A6B63699A4228BF1A460646EF
:1034400030B91549019240F27E3001F07FF8019ABF
:10345000012385F83C30204604233146FFF7C0FDA8
:1034600004460028D3D0002385F83C30CFE703780A
:10347000042BCBD1836B6BB990F82C102046FFF74F
:10348000CBFD04460028C2D0034940F28F3001F042
:103490005DF8BCE70624BAE7749C00002DE9FF4103
:1034A000054608B9FFF796FD2846FFF7F9FC90F8A6
:1034B000543004461BB1002004B0BDE8F08190F800
:1034C0005530002B55D1836C002BF4D02846FFF7E4
:1034D000E7FCAB6990F832209A42ECD2EB69A27B10
:1034E000A76C53F822802846FFF7DAFC6E69436C1C
:1034F000B74228BF374628467E1E1E44B6FBF3F669
:10350000FFF7D0FE054620B91B4940F2AE3001F06E
:103510001DF8236D0395CDE90136012384F854305D
:10352000D8F800309B6823B914494FF4897001F032
:103530000DF8D8F800305B6923B9104940F2131038
:1035400001F004F8D8F80030019D5B6940469847C7
:1035500003689D420BD2D8F8003001A99B68404611
:1035600098470028A8D0002384F85430A4E7072007
:10357000F9E70620A0E700BF749C0000D79C00007C
:103580000B78022B70B50C4602D0032B29D070BDEE
:10359000002000F035FDA5680DB9FFF71BFD28469A
:1035A000FFF77EFC06462846FFF7B6FC637853B962
:1035B0002046FFF7A0FD2846FFF71CFF38B128463C
:1035C000FFF7B9FD08E0012386F83D30F3E7284610
:1035D000FFF764FF0028F2D1BDE87040002000F042
:1035E0001FBD002000F00CFDA5680DB9FFF7F2FC2F
:1035F0002846FFF7BBFC63785BB92046FFF77BFDED
:103600002846FFF777FE0028D9D12846FFF7C4FDEA
:10361000E0E72846FFF78FFDF2E738B5D36C0546A3
:10362000144623B9BDE838400121FFF7F5BC936C7F
:1036300023B92846BDE83840FFF77DBD92F90D302B
:10364000002BF6DA0846FFF72BFC0023038680F8F0
:103650003230D4E912239A4288BFA364A363A36CD7
:10366000636388BF02224FF0000388BF84F82C20D8
:1036700084F83C3084F854302846FFF70FFF0446A6
:1036800010B12846FFF757FD204638BD2DE9F04F11
:103690000E4687B0054628BBAF4940F63F0000F014
:1036A00055FF2EB9AC494FF4046000F04FFF0DB93F
:1036B000FFF790FC2846FFF7F3FB337807460E2B05
:1036C00032D8DFE813F01C001200A5031C00310003
:1036D0002100E3003100310031003100A7031C005C
:1036E000C203FF030029E5D1DCE70D22002105F02C
:1036F000E7FE9A49042207F1200005F0B8FE0024F5
:10370000204607B0BDE8F08F25B993494FF44870C3
:1037100000F01CFF7278D1094FEA52134ED013F01B
:10372000030303D0012B26D00624E9E702F01F0291
:10373000012AF9D1B478062CF6D105A80493FFF735
:10374000F9F904AB0093F27831790346074628462D
:10375000FEF70AFA0528D3D0049B3F2B04D97E49F3
:1037600040F25F2000F0F2FE049A3946701CFEF72A
:103770003BFF0446C4E70DB9FFF72CFCB378FE2BE2
:10378000D2D1B6F80330002BCED1B6F80730012BDA
:10379000CAD105A8FFF7CEF92B6A044623B96E49B2
:1037A00040F2CD2000F0D2FE2B6A013B2380284658
:1037B000FFF760FC01222146B018D8E74BB3012B7C
:1037C000B2D10DB9FFF706FC2846FFF769FBB378C5
:1037D000FF2B0746A8D1B6F80330002BA4D1B6F8CA
:1037E0000740002CA0D12846FFF7D6F9804628468E
:1037F000FFF7DBF90646404604F09EFF304604F032
:103800009BFF3B78022B3FF47AAF2846FFF732FC50
:1038100076E70DB9FFF7DEFB2846FFF741FB74782A
:1038200004F01F04022C07467FF47EAF96F8028056
:10383000B8F1010F7FF478AFB6F80330002B7FF4B6
:1038400073AF0378082B00F069837679304604F073
:103850000FFE304605F01AF933067FF550AF3B787E
:10386000072B0CD0092B7FF44AAF2846FFF79DF9B0
:1038700005F00CF921462846FFF7CEFB79E72846EC
:10388000FFF793F905F002F90121F4E796F9023008
:10389000002B65DA0DB9FFF79DFB2846FFF700FB0B
:1038A00005A90446B07804F007FC08B1002305938D
:1038B000F378002B7FF423AF2378033B042B48D805
:1038C00001A252F823F000BFDD380000E938000003
:1038D000FF360000FF36000029370000E36C059A30
:1038E0009B1AE3640021C6E7059E0DB9FFF772FB42
:1038F0002846FFF7D5FA6A69436B934228BF1346FF
:103900009E42044604D0144940F24B7000F01EFE63
:10391000626B0023964284F83C3098BF931B63632C
:10392000A36B9E4294BF9B1B0023A3632846FFF713
:103930001DFB2846FFF75EFD044630B92846FFF719
:10394000ADFD044600283FF4DAAE2846FFF7F3FB4E
:10395000D6E60324D4E600BF749C0000589D000006
:103960000DB9FFF737FB2846FFF79AFA04A904467A
:10397000B07804F0A1FB08B100230493F278012A87
:103980000CD12378052B3FF4BAAE062B02D0012BC5
:103990007FF4B5AE2846FFF76DFBEAE6032A02D1B5
:1039A00001232370ABE6022A237808D1052B04D12A
:1039B00009212846FFF77FFBA1E60821F9E7023B32
:1039C000052B00F2138201A252F823F0E539000022
:1039D000ED3D0000ED3D0000813D0000FF360000A0
:1039E000293700000DB9FFF7F5FA2846FFF758FA16
:1039F000044628220021303004F1240605F060FD41
:103A000000210422304605F05BFD2846FFF7CDF883
:103A100005A904F051FB08B100230593059B1F2B5A
:103A2000CBD1CA490422601C05F0D6FC0746002809
:103A3000C3D10422611D304605F019FDA67B84F830
:103A40002C7004F1090284F840601046FFF77AF800
:103A50002B6AE0649E4203D32846FFF76CFB88E69E
:103A6000237C2A2B5ED8112B07D80A2B3ED910466F
:103A7000FFF768F80028EFD106E7123B182BF6D8BD
:103A800001A151F823F000BF333C00006F3A000061
:103A90006F3A0000E53800006F3A00006F3A00000E
:103AA0006F3A00006F3A0000BB3C0000E5380000B0
:103AB0006F3A0000E5380000E53800006F3A00007A
:103AC0006F3A00006F3A00006F3A00006F3A000052
:103AD0006F3A0000EB3C00006F3A00006F3A0000C4
:103AE000213D00006F3A0000553D00000A2BBED872
:103AF00001A151F823F000BF613B00006F3A0000C4
:103B00006F3A0000773B0000593A00006F3A00001E
:103B10006F3A00006F3A0000BB3B00006F3A0000B4
:103B2000F73B0000552B3FF4DDAE5A2B9FD1E37BD2
:103B3000092B91D91046FFF705F8042806468BD8C3
:103B400004F1580808223946404605F0B9FC06231E
:103B500084F8593084F8587003233246414628E0EF
:103B60001046FEF7EFFF00287FF476AFE37B062BCD
:103B70003FF4B8AE70E7E37B052B7FF66DAF1046E0
:103B8000FEF7E0FF122806463FF666AF00283FF436
:103B9000A9AE04F1580712220021384605F090FC26
:103BA000F02384F858300B2384F85F303246032327
:103BB00039462846FFF714FADBE5E37B052B7FF651
:103BC0004BAFEB6953F82600FFF794F9A27CE37C36
:103BD0004168207D616443EA0223627C120402F49E
:103BE000F812134341432365A1642246294628461F
:103BF000FFF713FDBDE5E37B052B7FF62DAFEB69EA
:103C000053F82600FFF776F9A27CE37C4168207D1B
:103C1000616443EA0223627C120402F4F812134343
:103C200041432365A164224629462846FFF7A8FBA5
:103C30009FE5A37C002B7FF40FAF1046FEF782FFB9
:103C4000242807463FF608AF00283FF44BAE404A11
:103C5000A265202284F85C20EA69012152F826003E
:103C6000059305AAFFF72EF9059904F1600004F108
:103C7000680804F17806082289B1096805F0DFFBBD
:103C8000059B10225968404605F0D9FB059B04228C
:103C90009968304605F0D3FB03233A4622E00391AE
:103CA00005F00EFC03991022404605F009FC03992B
:103CB0000422304605F004FCEEE7E37B052B7FF69B
:103CC000CBAE1046FEF73EFF04283FF6C5AE0022FD
:103CD000032384F8592084F85A2084F85B2084F860
:103CE0005830024604F1580163E7E37B092B7FF665
:103CF000B3AE1046FEF726FF082807463FF6ACAEE7
:103D000000283FF4EFADEB6953F82600FFF7F2F817
:103D10000368013B1BBAA36543681BBAE365BBE7B5
:103D2000E37B092B7FF698AEEB6953F82600FFF78B
:103D3000E1F8E17D227E4368636442EA0122D4F81F
:103D40001210534309BA2165A3644EE7549D000045
:103D500000800612E37B092B7FF67EAEEB6953F8F9
:103D60002600FFF7C7F8E17D227E4368636442EADC
:103D70000122D4F81210534309BA2165A36452E713
:103D8000002000F03DF9049C0DB9FFF723F9284607
:103D9000FFF786F86B69426B934228BF13469C423B
:103DA0001CBF012380F8553094424FF0000380F887
:103DB0003C3098BF131B4363836B9C4294BF1B1B17
:103DC000002383632846FFF7A7F82846FFF792FAF7
:103DD000044620B92846FFF7DFF9044610B128460B
:103DE000FFF7A9F9002000F01BF989E44D4940F6DE
:103DF0002D0000F0ABFB97E4EB69002253F82400A0
:103E00001146FFF75FF801342B6AA342F4D876E439
:103E10000024F9E70021032000F0B4F8044600284C
:103E20003FF482AC0378192B4FEA53067FF67CAC43
:103E30000125B542BFF463AC34F8150005F0C2FAB1
:103E400000283FF471AC0135F3E72B6A102B04D93D
:103E5000344940F6980000F079FB0026DFF8C8806E
:103E6000DFF8C890DFF8BCA034462B6AB3427FF677
:103E700047ACEB6953F826B0DBF800301B681BB980
:103E80004146F02000F062FBDBF800302A461B6858
:103E9000494658469847044690B9B7F87C20012314
:103EA000B3401343A7F87C305846FFF723F86B69FB
:103EB00042689A4204D9514640F6A40000F046FBFD
:103EC0000136D2E72B6A102B04D9164940F6AE0012
:103ED00000F03CFB0026DFF8509034464FF001081C
:103EE0002B6AB3427FF60CACEB6953F8264023688B
:103EF0005B681BB94946FD2000F028FB236820467B
:103F00005B689847044638B9B7F87C2008FA06F38E
:103F100022EA0303A7F87C300136E1E70F24FFF71C
:103F2000EFBB00BF749C0000D79C000081350000EF
:103F3000F8B5124B53F820502B7813B9AE1C30460D
:103F4000F8BD0020FEF7F6FD0D4F0646013D0023AB
:103F500015F8012F5C1C2AB96400E4B244F44074E3
:103F60003480ECE71E2B03D93946FC2000F0EEFA32
:103F7000E3B22A7826F81320EAE700BF189E000073
:103F80005C9D0000034608B9FFF7D2BF012807D0A7
:103F9000022805D0032803D0042801D0052809D120
:103FA000054800EB4303587820B1044B53F8203008
:103FB000002BE9D100207047309E0000189E0000C1
:103FC00072B6024A136801331360704780090020FB
:103FD000034A1368013B136003B962B6704700BF20
:103FE00080090020EFF30583C3F308032BB9EFF337
:103FF0001480C04300F001007047012070470000AA
:1040000008B5FFF7EFFF012803D00449432000F073
:104010009DFABDE80840FFF7D3BF00BF3C9E0000FB
:1040200008B5FFF7DFFF012803D00449512000F055
:104030008DFABDE80840FFF7CBBF00BF3C9E0000F3
:10404000EFF30583C3F308038BB1103B5AB2002A88
:10405000ABBF02F16043074A03F5614303F00F036E
:10406000ACBF93F80003D05C4009C0B270470F208A
:10407000704700BF14ED00E038B50C46054618B98E
:104080000449B32000F062FA2B68C3F84843C3F830
:10409000084338BD9A9E000070B50C46164605468A
:1040A00018B90549A92000F051FA2B68C3F8444318
:1040B0000EB1C3F8044370BD9A9E000037B50C469C
:1040C000054618B90749BA2000F040FA2B6818597C
:1040D00028B100221A511B590193019B012003B002
:1040E00030BD00BF9A9E00002DE9F8430F461546EB
:1040F000044618B93249552000F028FA1FB9304952
:10410000562000F023FA1DB92D49572000F01EFA61
:1041100063792C4A2C4E42F823502C4AB61A2C4A6A
:1041200002EBC303F6081B79360490463BB146F018
:1041300002002849FCF7B8FC0820BDE8F8833D8858
:10414000D4F80090B5F5805F04D323494FF4BE70D6
:1041500000F0FCF9C9F80855BF7894F90450072F0E
:1041600003D91E496B2000F0F1F9002DB6BF1C4B9E
:1041700005F1604505F00F054FEA4717FFB2AABFEA
:1041800005F561455F5585F8007394F90430002BFF
:1041900008DB0122590903F01F0302FA03F3114A55
:1041A00042F82130637908EBC3020121117146F016
:1041B000030048F833400C49FCF776FC0020BCE7CC
:1041C0009A9E00008C090020D09500008895000080
:1041D00084090020EF9E0000119F00005C9F0000FA
:1041E00014ED00E000E100E0A99F000010B50446D6
:1041F00018B90449872000F0A9F9236801221A6040
:1042000010BD00BF9A9E000010B5044618B90449BD
:104210008D2000F09BF9236801225A6010BD00BF79
:104220009A9E00002DE9F3410C4616461F46804633
:1042300018B91249962000F089F904F1500189005B
:10424000D8F8000089B24FF48035A5400023C0F8AB
:104250000853C0F84853435004F5A87443580193D9
:1042600026F07F46019B40F82460C0F844530FB10C
:10427000C0F8045302B0BDE8F08100BF9A9E000070
:104280002DE9F74F0D4614469846074618B93949A7
:10429000CD2000F05BF94FF4803909FA05F9494661
:1042A0003846FFF7E9FE3A6805F1500602EB850053
:1042B000B600B6B2D2F80415D0F84035C0F84015B3
:1042C0004FF0000B42F806B05B1A9259009223F0AF
:1042D0007F43012B009A24F07F444FEA850A0BD1DB
:1042E000254B4FF4806043F0010398473B6843F847
:1042F00006B09B590193019B3868D0F80465C0F85B
:104300004493A31B23F07F43012B1AD11A4B05F5CD
:10431000A875013440F8254043F001034FF4806054
:1043200098473B68D3F804359E4208D138460122AD
:104330004946FFF7B1FE002003B0BDE8F08F0D2025
:10434000FAE700EB0A03621EC3F84045D0F80415F3
:10435000C8F1FF18521A22F07F4208F57F489045B5
:10436000EDD3002AE2D10134C3F84045D0F804353A
:104370009942DAE79A9E0000C09F00000A46022197
:10438000FFF78ABE4FF48271FFF798BE4FF4803377
:1043900003FA01F1FFF770BE5031890089B2FFF7CF
:1043A0008DBE036801F5A87153F8210070470368BA
:1043B000D3F804057047000090F90430002B09DBA6
:1043C0005A09012103F01F0301FA03F340320249A5
:1043D00041F82230704700BF00E100E0024B034A81
:1043E0001B681068184700BF8C0900208409002052
:1043F0001EF0040F1CBFEFF309800AE0EFF3088002
:104400000549064A884201D8904202D88D464FF0AD
:104410000000034B184700000000042000E00320C8
:1044200049440000BFF34F8F0549064BCA6802F4A8
:10443000E0621343CB60BFF34F8F00BFFDE700BFC7
:1044400000ED00E00400FA052DE9F3470546FCF70E
:104450008FFBFCF7CBF90028FBD12F4C2F48304BBA
:10446000241AE40824049F6A44F00104002D4ED06D
:10447000AA692C492046FCF71BFBEB680193AB684B
:10448000294900932046D5E90023FCF730FBEB696E
:1044900000932649D5E904232046FCF71CFB204B5A
:1044A000DB6A980703D522492046FCF7FDFADFF8BE
:1044B0009490DFF894A000264FF0010808FA06F364
:1044C0003B4206D059F826201AB151462046FCF747
:1044D000EFFA01361A2EF1D1390605D5104B1549E0
:1044E0005A6B2046FCF7E4FA3A0405D50C4B124906
:1044F0009A6B2046FCF7DCFA104B1B68DB0700D5F3
:1045000000BE2846FFF78EFF02B0BDE8F0870C49D9
:104510002046FCF7C9FAC2E7F09500008895000034
:1045200000ED00E0C69F0000DB9F000010A000002F
:104530006BA00000BAA00000DAA00000F0ED00E0DF
:1045400038A00000B4A50000AFA0000007B5CDE979
:1045500000016A46002144F20200FCF729FF03B083
:104560005DF804FB10B561B1B2FBF3F403FB142456
:10457000A4B244B9C0E9001484608281C38120469A
:1045800010BD0E20FCE70920FAE737B550E8013FDF
:104590009DB2C48925448489A54228BF2D1B048966
:1045A000A54202BFBFF32F8F002207E0C5EA030533
:1045B00040E80154002CE9D14FF001028DF80320AE
:1045C0000193019B9DF803200B6002F0FF0322B1D1
:1045D0000B880068184403B030BD1846FBE70A8812
:1045E0004B889A4209D150E8012FC2EA024240E8C2
:1045F0000123002BF7D1012070470020704737B509
:1046000050E8023F1FFAA3F5C488A54202BFBFF3DA
:104610002F8F00220DE0C48925448489A54228BF3C
:104620002D1BC3EA054540E80254002CE8D14FF0A9
:1046300001028DF803200193019B9DF803200B607C
:1046400002F0FF0322B14B880068184403B030BD6C
:104650001846FBE70A884B889A4209D150E8022F96
:10466000C2EA224240E80223002BF7D10120704722
:104670000020704710B5034653E8000F0A4643E890
:10468000002494F0000FF7D110BD10B5034653E895
:10469000002F42EA010043E8000494F0000FF6D135
:1046A00010BD10B5034653E8000F00EA010243E8CD
:1046B000002494F0000FF6D110BD10B5034653E866
:1046C000002F02EB010043E8000494F0000FF6D144
:1046D00010BD10B5034653E8002FA2EB010043E8DC
:1046E000000494F0000FF6D110BD10B5034653E856
:1046F000002F8A422CBF501A104643E8000494F061
:10470000000FF4D110BD0121FFF7BFBF0021FFF75B
:10471000C8BF000010B50446002834D003681BB998
:104720001A49FF20FFF712FF636823B917494FF4B6
:104730008070FFF70BFFA36823B9144940F2011002
:10474000FFF704FFE36823B910494FF48170FFF7C6
:10475000FDFE238A23B90D4940F20310FFF7F6FE50
:10476000D4E9012321689B1ADBB20A60013BDBB26A
:10477000FF2B226802D10020107110BD1168481C67
:1047800010600B70F2E70E20F7E700BF1CA60000D8
:1047900038B5044620B911494FF49270FFF7D6FEA0
:1047A0000020FFF72DFC226863681168994213D935
:1047B000481E106011F8015CE368218A01FB053591
:1047C000A36811791B1ADBB2994200D21371002041
:1047D000FFF726FC284638BD0025F8E71CA6000098
:1047E00038B50C46054620B90E4940F24710FFF790
:1047F000ADFE24B90B494FF4A470FFF7A7FE0020CB
:10480000FFF7FEFB2A681368591C1160E968641AF7
:10481000298AB4FBF1F41C70BDE838400020FFF792
:10482000FFBB00BF1CA6000019B1012905D006205E
:10483000704702B111700020704712B1043010604F
:10484000F9E707207047000010B5044618B903497E
:10485000FB20FFF77BFEA06910BD00BF75A600001E
:1048600030B50C4685B0054618B91149AC20FFF7A4
:104870006DFE1CB90E49AD20FFF768FED4E900318A
:10488000AA690B4411688B420DD893686BB1D2684A
:1048900002940321ADF804102846039201A9984719
:1048A000002005B030BD1020FBE71846F9E700BF37
:1048B00075A600007FB50D461646044618B90B498B
:1048C0004520FFF743FEA36922695A6062691A60B6
:1048D000C3E902563DB1002301A92046CDE90236C5
:1048E000ADF80430A847002004B070BD75A60000E4
:1048F0007FB50C46054618B913497F20FFF726FE01
:104900001CB911498020FFF721FED4E90032AE69BD
:10491000316813448B4213D87368A0685A4300214E
:1049200004F0CEFDB3686BB10222ADF80420F2684A
:1049300002942846039201A99847002004B070BD54
:104940001020FBE71846F9E775A6000030B50446CD
:1049500085B018B90C496420FFF7F8FDA569AB686C
:104960004BB10122ADF8042000220292EA680392C2
:1049700001A92046984710220021284604F0A0FDF6
:10498000002005B030BD00BF75A6000010B504467C
:1049900020B9044940F22B30FFF7D8FDE06A04301B
:1049A00010BD00BFF8A600007FB5044620B9144929
:1049B00040F2AB10FFF7CAFD124E3268A2421DD181
:1049C000E56A2B78012BDAB218D1EB6843B1ADF868
:1049D0000420002202922A69039201A920469847E6
:1049E00000242C7001F07EFE41F238022146284658
:1049F00004F066FD3460204604B070BD1120FBE772
:104A0000F8A60000900900202DE9F047884686B0FE
:104A10009146054620B9434940F22B10FFF796FD19
:104A20002B6913F0FF0F04D00624204606B0BDE822
:104A3000F0874FF48052B2FBF3F25343B3F5805F3B
:104A4000F2D1394B1A689A46002A69D13749EE6A81
:104A50002A4605F1180001F063FD04460028E4D160
:104A6000334F3868BB8801902246214601A8ADF833
:104A7000083001F0E9FD04460028D6D1992302460A
:104A8000014601A88DF8043001F0DEFD044600283F
:104A9000CBD137F8062FADF80020BB788DF8023067
:104AA000014640F29F436A4601A8ADF8043001F088
:104AB000CBFD04460028B8D1684600F033FE00283C
:104AC000B2D08368B3F5805FAED12B694168B1FB8A
:104AD000F3F28B42A8D84FF48050B0FBF3F0B2FB56
:104AE000F0F400FB1424002C9ED1C6E9012301231D
:104AF00033704FF0FF3333632B7DCAF8005003F05F
:104B00000103C6E9038986F82D30B8F1000F8CD077
:104B100003A92846CDE90449ADF80C40C04784E715
:104B2000112482E7F8A6000090090020894D0000BA
:104B300061A70000F8B50D46064620B9224940F2AB
:104B4000D710FFF703FD25B91F494FF4EC70FFF7AD
:104B5000FDFCD5E90032F46A1344626893422ED812
:104B60001A4B1B68B3422CD12378012BDFB228D11A
:104B700095E8070004F1200383E8070095E80700A3
:104B800004F1140383E807000223D4E90821237009
:104B9000A368A06A5A43594301F00CFE08B127707C
:104BA000F8BDE368C4E90900002BF9D12378012B93
:104BB000F6D0F26A1378012BF2D030BFFAE710205A
:104BC000EEE71120ECE700BFF8A6000090090020F6
:104BD000026B90F82E3010B412037BB9436B93FA3A
:104BE000A3F30524816800F8384BB3FA83F34B43F1
:104BF0005DF8044B1A44184401F0AEBD0423037061
:104C0000002380F82E305DF8044B1146184601F061
:104C1000FFBD000070B50E461446054620B9164982
:104C200040F2F120FFF792FC1EB1012E1AD00620AF
:104C300070BDED6A2B78012BDEB218D195F82D30BE
:104C40000BB16B6B1BB900207CB12070F0E72846DC
:104C5000FFF7BEFF0028EBD104B12670012385F8D1
:104C60002C30E5E72CB1043525600020E0E7112069
:104C7000DEE70720DCE700BFF8A600002DE9FF47CC
:104C80000A68C66AD1F808A0B5684FF48054B4FB2E
:104C9000F5F4B2FBF4F904FB19294A68A4EB090402
:104CA000944228BF144609FB05F96543AB078046CB
:104CB0000F4604D0334940F22120FFF747FCD8F8D3
:104CC0002CC00CEB0902AB083432AAF1040A00250F
:104CD0004FF0010E52F8041F5AF8040F81420ED013
:104CE000DCF834000131DCF80810B9FBF1F10EFA00
:104CF00001F141EA000118BF0125CCF83410DAF8BF
:104D000000101160013B09F10409E3D115B1012341
:104D100086F82E303B687D68B26823443B60BB68F0
:104D20002D1B02FB043496F82E307D60BC604BB125
:104D30004FF48053B3FBF2F201239340726B013BBB
:104D400013437363736B13B196F82D309BB1F36803
:104D50008BB185B90322ADF8042006F1140202924A
:104D6000326903920122327001A9404698472846D1
:104D700004B0BDE8F087D8F82C00FFF729FF0546FE
:104D8000F5E700BFF8A600002DE9FF47644B1B685C
:104D90008B420D4671D1CC6A2278032AD3B200F03F
:104DA000818005D8022B28D05E4940F219108DE091
:104DB000043B012BF8D8616B91FAA1F3B3FA83F2AB
:104DC0002378052B01BF012393404B406363606B45
:104DD000002840F09480636A002B7AD0236AA2688E
:104DE00020465A43120B032322634FF4805100F8EC
:104DF000383B120301F0DEFC3FE094F82D306BB33A
:104E0000D4F814E0A668D4F830C006FB0EF3BCEB6F
:104E1000133F4FEA133A21D3A7690EEB070808FBAB
:104E200006F3BCEB133F4FEA133917D8E2454FF4B2
:104E30008052E069B2FBF6F304F1380120D1BEFBE9
:104E4000F3F203FB12EEA3EB0E039F4228BF1F46B3
:104E500006FB07F20EFB061104F009FB0123237089
:104E6000E36853B10222ADF8042004F11402029267
:104E70002269039201A92846984704B0BDE8F0874B
:104E800003FB0CFAAAEB0E0EE14506FB0E00E3D184
:104E9000B8FBF3F203FB12839F4228BF1F4606FBB9
:104EA00007F2D9E7226AA3685343226BB2EB133FA0
:104EB00003D01C49CF20FFF749FB04F1200128460D
:104EC000FFF7DCFE0028D8D01649D320FFF73EFBC1
:104ED000D3E701232370E3686BB194F82C2052B917
:104EE0000322ADF8042004F1140202922269039215
:104EF00001A928469847002384F82C30BDE790FA92
:104F0000A0F00523A168226B04F8383BB0FA80F0CA
:104F1000484300EB0232204401F01EFCADE700BF25
:104F200090090020F8A60000F8B50D46064620B905
:104F30002D4940F29620FFF709FB25B92A4940F296
:104F40009720FFF703FBD5E90032F46A1344626847
:104F5000934244D8254B1B68B34242D12378012B9E
:104F60003FD195E8070004F1200787E8070095E89E
:104F7000070004F1140383E80700A268236A216B89
:104F80005A43B1EB123F4FEA123307D1394630464C
:104F9000FFF774FEB8B101232370F8BD94F82D100B
:104FA00019B1F06AFFF714FEF4E72046236322F4F8
:104FB0007F62032300F8383B22F00F024FF4805148
:104FC00001F0F8FBE6E7E368002BE6D12378012B3C
:104FD000E3D0F26A1378012BDFD030BFFAE710205C
:104FE000DBE71120D9E700BFF8A6000090090020F8
:104FF00019B1012905D00620704702B111700020B7
:10500000704712B104301060F9E7072070470000C4
:1050100010B5044618B90349E320FFF797FAE06991
:1050200010BD00BF84A700007FB50D46164604469C
:1050300018B90C494220FFF789FAE3692169A2698E
:105040005960B2FBF1F2C3E902561A603DB1002388
:1050500001A92046CDE90236ADF80430A84700206A
:1050600004B070BD84A700002DE9FF410C4617462F
:10507000054618B91A497A20FFF768FA1CB9184989
:105080007B20FFF763FAD4E90003EE693268C118A8
:10509000914220D869697268022F02FB0010A16852
:1050A00008BF844602FB03F204BF0846614604F0D1
:1050B000DEF9B3684FF000087BB1F2688DF8047038
:1050C00028468DF805800294039201A9984740462E
:1050D00004B0BDE8F0811020FAE71846F8E700BFF9
:1050E00084A700000322FFF7BFBF0222FFF7BCBF67
:1050F00030B5044685B018B90C496020FFF726FA90
:10510000E569AB684BB10122ADF8042000220292A0
:10511000EA68039201A920469847102200212846F8
:1051200004F0CEF9002005B030BD00BF84A7000018
:1051300010B5044618B906493120FFF707FAA268EE
:105140002AB163692168206998470023A36010BDD4
:1051500004A800000EB433B5059D044618B91149E2
:105160004220FFF7F3F963691BB90E494320FFF7AB
:10517000EDF923681BB90B494420FFF7E7F9636891
:105180001BB908494520FFF7E1F935B106AB01AA83
:1051900029462046019300F079F802B0BDE830407E
:1051A00003B0704704A800000A2938B504460D462C
:1051B00002D10D21FFF7F8FFA3682268591CA160F6
:1051C000D554D4E901329A4204D32046BDE8384090
:1051D000FFF7AEBF38BD00002DE9F84F9846DDE976
:1051E0000A43154682460F460A464FF00109AA4275
:1051F0000FD2C14538BFC14613F0010B01D16CB9C4
:1052000000240126B8F1010F1BD908F1FF386E43C5
:10521000F8E709F10109B2FBF5F2E8E79B070ED5C3
:10522000B8F1000F0CBF30262026A145E9D2013C81
:1052300031465046FFF7B8FF002CF6D1E0E72026B4
:10524000F3E7B7FBF6F39D42E1D9DFF83C80B7FB0B
:10525000F6F3504618F8031006FB1377FFF7A4FF88
:105260003346AB42B6FBF5F6F1D2BBF1000F02D0EC
:105270000CB1A14501D3BDE8F88F20215046013C77
:10528000FFF792FFF4E700BFA9A800002DE9F74F50
:1052900088461746054620B9B14940F25220FFF72B
:1052A00055F96B6923B9AE494FF41570FFF74EF904
:1052B0002B6823B9AA4940F25520FFF747F96B68DC
:1052C00023B9A74940F25620FFF740F9B8F1000F83
:1052D00000F0428118F8011B49B92B7B002B00F02C
:1052E0003B81284603B0BDE8F04FFFF721BF2529D9
:1052F00040F0B780002698F800302D2B424608F188
:10530000010823D0302B24D02B2B25D000242A2B8E
:1053100002F1010123D13B681A1D1B683A601C444D
:105320000A4613782E2B26D101324FF0000A104680
:1053300010F8011BA1F1300CBCF1090F1DD80A2394
:1053400003FB0A13A3F1300A0246F0E746F0010618
:10535000D1E746F00206CEE746F00406CBE711F8A7
:10536000013CA3F130000928DBD80A2202FB0434F7
:10537000303C0A46CBE74FF0000A12F8011B01F05F
:10538000FB0068289046F8D0782909D86F290CD8F6
:10539000632962D022D8252963D0582900F088805B
:1053A00098F80030002B95D197E770390829F7D885
:1053B00001A353F821F000BF33550000A1530000B2
:1053C000A1530000C1540000A15300009F540000ED
:1053D000A1530000A1530000B1540000642901D082
:1053E0006929DDD13A68D2F80090111D89EAE97285
:1053F0003960A2EBE9724FF0010B092A35DCD34585
:1054000038BFD3462CB1B9F1000F01DB720700D5CC
:10541000013CB30702D5BAF1000F03D0F00701D465
:105420004CBB0024B9F1000F2DDAC9F100092D2180
:105430002846FFF7B9FE06F00302022A04D1BAF1AA
:10544000000F01D11CBB0024CDE9004653460A22BF
:1054500049462846FFF7C0FEA2E73B681A1D1978A7
:105460003A602846FFF7A0FE9AE70A230BF1010BEA
:10547000B2FBF3F2C1E7A345D4D220212846013C78
:10548000FFF792FECCE77107D5D52B21D0E7A345D6
:10549000DAD230212846013CFFF786FED2E7396890
:1054A000CDE900460A1D3A6053460A220968D0E752
:1054B00039680A1D3A60CDE9004653461022F5E7E7
:1054C0003B681A1D3A6016F00106D3F8009028D107
:1054D000B9F1000F03D0484604F025F80646B4425F
:1054E00000D904BB09F1FF3919F8011F00293FF465
:1054F00057AF2846FFF758FEF6E728460136FFF774
:1055000053FE19F806100029F7D1A642BFF448AFA0
:10551000002C3FF445AF20212846013CFFF744FE14
:10552000F3E70026EDE720212846013CFFF73CFE8B
:10553000D5E73B681A1D3A60302128461C68FFF702
:1055400033FE78212846FFF72FFE00220823CDE9FD
:105550000032214610227CE703B0BDE8F08F00BF87
:1055600053A800002DE9F74F99469DF8303000937D
:1055700088469346064618B92349B620FEF7E6FF4B
:10558000F18872794A43043A4A4505D81E49019286
:10559000C420FEF7DBFF019ADBF80070B6F806A026
:1055A00007EB0901914209F1040488BFA2EB090746
:1055B000B4FBFAF5CBF800700AFB154445B9AAEB29
:1055C000040BBB4528BFBB462FB903B0BDE8F08F25
:1055D0003668013DF2E7009B043408EB05003444D3
:1055E0005A466BB12146A7EB0B0703F040FFBA45C3
:1055F0005D443668D3464FF0000428BFBB46E3E75E
:1056000001462046EFE700BFB9A80000FFF782B8C7
:10561000F8B546790146721E0546002393422D686F
:1056200003D30024A64202D8F8BD0133F6E70F6881
:105630002846FFF7D5F801343946F3E72DE9F8435A
:10564000068ACD1C0746FFF7A3F8043E35440446FE
:10565000B5FBF6F5F0B14FF48073EDB28380C680F0
:10566000013D076081464FF00008A84512D2384638
:10567000FFF78EF8064648B163790133637108F18C
:105680000108C9F8000007608146EEE72046FFF7F1
:10569000BFFF34462046BDE8F88301210430FFF700
:1056A0000CB810B5012104460430FFF712F810F0D1
:1056B000FF0F04D12046BDE81040FFF7A9BF10BD81
:1056C0001FB5144603920022009203AAFFF74AFF77
:1056D000039BA34203D00349F620FEF737FF04B033
:1056E00010BD00BFB9A800001FB5144603920122E7
:1056F000009203AAFFF736FF039BA34204D003499D
:105700004FF48070FEF722FF04B010BDB9A800006E
:10571000836800225A60C3E904229A60DA601A6042
:1057200070470000014608B50322044803F054FE08
:105730000028024818BF002008BD00BF14A90000BF
:1057400070B50C46064618B90A493A20FEF7FEFE27
:105750001CB908493B20FEF7F9FE7568286818B1A6
:10576000B3682146984718B92B6823602C6070BD38
:105770002D68F3E724A9000010B5044618B90549BF
:105780005120FEF7E3FE6368186808B102681A60EA
:1057900010BD00BF24A9000010B5044618B9034984
:1057A0005D20FEF7D3FE6368186810BD24A90000D1
:1057B00038B50C46054618B90A496920FEF7C6FEF9
:1057C0001CB908496A20FEF7C1FE6B68186820B151
:1057D000A04203D102681A60012038BD0346006868
:1057E000F5E700BF24A9000010B50D49A1F58C72A2
:1057F000914201D800200FE08C1AE30F03EBE40381
:105800005B1002EBC30452F83330834205D802D256
:1058100004F10802ECE7606810BD2146E8E700BF2C
:1058200048AE000008B5FFF7DFFF024B002808BFB5
:10583000184608BD1BAD000038B5074C051E04F125
:10584000080318BF1C4623682BB11A6822605B68E6
:1058500028469847F7E738BD9C09002020B9054B3A
:1058600001225A70FFF7E8BF012802D1014A907067
:10587000F8E7704794090020014B1878704700BF83
:105880009409002038B50C4C23789BB90B48636011
:10589000A3602361E36000F06DF9054600F07EF936
:1058A00001232370064BD3F800340BB10123A370FE
:1058B000284638BD8525F5E7940900205D5800008D
:1058C0000000014038B51A4C237805461BB9194928
:1058D000F620FEF73BFEA37803F0FF00ABB115B155
:1058E0006B68012098470020FEF78AFBE3680020E0
:1058F0000133E360FEF794FBE368C3B9BDE83840C9
:105900000C494FF48970FEF721BEFEF779FB25B1F3
:10591000226913463BB92A602561E368002BE5D173
:1059200000F05EF9E2E79D42F7D01B68F2E738BD70
:105930009409002048AE000038B51B4C237805467A
:1059400023B91A4940F23310FEF700FE637803F0E2
:10595000FF00ABB115B16B68002098470020FEF73F
:105960004FFB6368002001336360FEF759FB6368F7
:10597000C3B9BDE838400D4940F24F10FEF7E6BD0F
:10598000FEF73EFB25B1A26813463BB92A60A5602D
:105990006368002BE5D100F03BF9E2E79D42F7D0C8
:1059A0001B68F2E738BD00BF9409002048AE000034
:1059B00038B50F4C237823B90E494FF4AA70FEF77F
:1059C000C5FD636823B90B4940F25510FEF7BEFDD3
:1059D0000020FEF715FB6368013B6360656815B93D
:1059E00000F02EF96570BDE838400020FEF718BBC6
:1059F0009409002048AE000010B5074C23784BB93D
:105A0000064B002808BF184600F0E4FB08B9012344
:105A1000237010BD8520FCE7A8090020A6AE000079
:105A200008B500F01AFCBDE8084000F01DBC07B541
:105A30000190FFF7F5FF019800F0F8FB00F006FC7D
:105A4000002003B05DF804FB1FB503788DF800302B
:105A50004368019383688DF80830C368054A03934F
:105A6000054B684653F8213052F82110984705B08D
:105A70005DF804FBAC090020B40900201FB50378D1
:105A80008DF800304368019383688DF80830C3684F
:105A9000054A0393054B684653F8213052F821100C
:105AA000984705B05DF804FBAC090020B40900205C
:105AB0002DE9F0411E4B90F8008043F828201D4B43
:105AC0001646B8F1010F0A6943F8282088B0074646
:105AD0000C4605D14B7F1BB917497620FEF736FDE2
