:1000000000000420750300005D0300003984000037
:1000100061030000630300006503000000000000AE
:100020000000000000000000000000006703000066
:1000300069030000000000006B0300006D03000076
:1000400051C400006F03000061C4000031D2000001
:100050006F0300006F030000ADBE00006F030000DF
:100060006F0300006F0300006F0300006F030000C8
:100070006F0300006F0300006F0300006F030000B8
:100080006F0300001D8400006F0300006F03000079
:100090006F0300006F0300006F0300006F03000098
:1000A0006F0300006F0300006F0300006F03000088
:1000B0006F0300006F03000000000000000000005C
:1000C0006F0300006F0300006F0300006F03000068
:1000D0006F0300006F0300006F0300000D0E0100AE
:1000E0006F030000F5CF00006F0300000000000068
:1000F000000000006F030000000000006F0300001C
:1001000000000000000000000000000000000000EF
:1001100000000000000000000000000000000000DF
:1001200000000000000000000000000000000000CF
:1001300000000000000000000000000000000000BF
:1001400000000000000000000000000000000000AF
:10015000000000000000000000000000000000009F
:10016000000000000000000000000000000000008F
:10017000000000000000000000000000000000007F
:10018000000000000000000000000000000000006F
:10019000000000000000000000000000000000005F
:1001A000000000000000000000000000000000004F
:1001B000000000000000000000000000000000003F
:1001C000000000000000000000000000000000002F
:1001D000000000000000000000000000000000001F
:1001E000000000000000000000000000000000000F
:1001F00000000000000000000000000000000000FF
:10020000354936480A1A02D0072291438D463449AF
:1002100034480A1A06D00722914381F30988022242
:1002200082F3148830483149314A00F044F83148AB
:100230003149324A00F03FF831483249324A00F041
:100240003AF832483249334A00F035F832483349F7
:10025000334A00F030F833483349344A00F02BF881
:1002600033483449344A00F026F8344834490022EF
:1002700000F02CF833483449002200F027F83348C6
:100280003349091A082902DB002202604160314A21
:1002900090471F481F49884205D00268043003B4C4
:1002A000904703BCF7E700208646EC46002000217B
:1002B000294A9047FEE7884207D0521A05D00378B2
:1002C00001300B700131013AF9D17047884202D0F8
:1002D00002700130FAE770470000042000E00320BC
:1002E0000000042000000420C4960100000000204B
:1002F00028010020D0030000D0030000386C01006A
:10030000C49601000000002000000020EC6C0100F9
:10031000EC6C0100EC6C0100EC6C0100EC6C010079
:10032000EC6C0100EC6C0100EC6C0100C396010068
:10033000EC9701002801002028010020280100205E
:1003400070260320702603207026032070260320C9
:10035000704603209D030000E1270100FEE7FEE751
:10036000FEE7FEE7FEE7FEE7FEE7FEE7FEE7FEE765
:1003700000F002B8FFF7FCBF0F484FF007018843B9
:1003800085460E4880470E48016841F470010160BF
:10039000BFF34F8FBFF36F8FFFF732BF09480A4992
:1003A0000A4A884207D0521A05D0037801300B70F0
:1003B0000131013AF9D1704700000420555F010076
:1003C00088ED00E0EC6C010000000020000000203F
:1003D00000B585B00190019B002B0AD0074B43F07C
:1003E00001030393019B9B010293039B029898478F
:1003F00000E000BF05B05DF804FB00BF006D010028
:1004000000B583B00190019B002B0AD04FF47A70A5
:10041000FFF7DEFF019B013B0193019B002BF5D110
:1004200000E000BF03B05DF804FB08B512F024FC47
:1004300000BF08BD00B589B0039002910192019BF5
:10044000002B33D00023079303230693029A079BC4
:100450001344019A1946002012F0BEFB0590079A3A
:10046000059B13440793019A059BD31A0193059B9F
:10047000002B13D10F4B1B7883F00103DBB2002B51
:1004800013D10120FFF7BCFF069B013B0693069B9F
:10049000002B03D1074B00221A7007E0054B012205
:1004A0001A70019B002BD1D100E000BF00BF09B042
:1004B0005DF804FB2801002000B585B0039002918F
:1004C000054B00934023054A0299039800F012F867
:1004D00000BF05B05DF804FB350400002C010020CE
:1004E00082B0019000BF02B0704782B0019000BF9F
:1004F00002B0704700B5A1B0059004910392029339
:1005000004980AF029F8039B1593029B1693002385
:10051000179300238DF8603000231993229B1A93C0
:1005200000231F930FA91F9B0C2204980AF0EEF8DA
:100530000C231F93119B1293BDF84030ADF84C3043
:10054000BDF84230ADF84E3000238DF851309DF8A3
:100550003C3003F00303DBB2012B26D10F9BC3F326
:1005600095231C939DF83C30C3F3C203DBB28DF896
:100570005030BDF83C30C3F38313DBB21B931B9B9D
:100580009A0009A91F9B04980AF0C0F81B9B9B00C6
:100590001F9A13441F9312AA09A915AB009313467F
:1005A0001B9A1C9801F092F82FE09DF83C3003F064
:1005B0000303DBB2022B28D1BDF83E30C3F389130D
:1005C0009BB21E939DF83C30C3F3C203DBB28DF89F
:1005D00050301E9B082B28BF08231D9307A91F9B83
:1005E0001D9A04980AF092F81F9A1D9B13441F93BA
:1005F0001E9A1D9BD31A1E9315AB12AA07A81D990C
:1006000001F006F91E9B002BE3D1049809F0B3FF1B
:1006100000BF21B05DF804FB00B583B00190019BE1
:100620001B781A460C4B9B5C002B05D0019B0433B6
:1006300018460EF067F80BE0019B1B781A46064B34
:100640009B5C002B04D1019B0C3318460DF0E2F9A2
:1006500000BF03B05DF804FBD40A002000B587B0EA
:100660000390029113468DF8073000230593039BF6
:100670001B781A46114B9B5C002B09D0039B04335B
:100680009DF80720029918460EF09EF805900FE09D
:10069000039B1B781A46094B9B5C002B08D1039BDC
:1006A0000C339DF80720029918460DF02BFA05909F
:1006B000059B184607B05DF804FB00BFD40A002074
:1006C00082B001900091034B01221A7000BF02B06A
:1006D000704700BFAC01002030B58DB003468DF8E7
:1006E00007301A4B02AC1D460FCD0FC495E80F0022
:1006F00084E80F00062302934FF0FF3303934FF07B
:10070000FF3304934FF0FF3305934FF0EB730893DF
:100710009DF80730002B01D00D4A00E0002202AB0B
:1007200019460C480AF034FB0B900B9B0A930A9B6A
:10073000002B04D0084A43210A9801F051FE074AD1
:100740009DF80730137000BF0DB030BD6C6D010017
:10075000C106000000000020086D0100AD0100206E
:1007600000B583B001238DF807309DF80730184697
:10077000FFF7B2FF00BF03B05DF804FB00B589B01E
:10078000039002910192019B8DF81F30124B0022C1
:100790001A709DF81F301A4602991048FFF75EFF45
:1007A0000690069B0593059B002B04D00C4A532111
:1007B000059801F015FE00BF0A4B1B78002B07D0EF
:1007C000054B1B78DBB283F00103DBB2002BF3D1C6
:1007D00000BF09B05DF804FBAC0100200000002060
:1007E000086D0100AD01002000B585B003900291B5
:1007F000054B00934023054A02990398FFF77AFEC0
:1008000000BF05B05DF804FB7D0700006C0100200F
:1008100082B0019000BF02B07047000000B583B005
:1008200001900548FFF7F8FE0020FFF755FF00BFD5
:1008300003B05DF804FB00BF0000002082B001900F
:10084000019BDB6801225A7100BF02B070470000B3
:1008500000B583B04FF0FF330193FFF7E6FD0421AD
:10086000114800F0E7FD0190019B002B03DA0F49CE
:10087000412007F0EFFE0C48FFF7E0FFFFF770FFA5
:1008800004210B4800F0D6FD0190019B002B03DAF8
:100890000649482007F0DEFE0548FFF7CFFF00BFFE
:1008A00003B05DF804FB00BFB86C0100BC6D010033
:1008B000C86C010000B583B001900091019B1B68DA
:1008C0001B6800990198984700BF03B05DF804FBCE
:1008D00000B583B00190019B1B685B680198984745
:1008E00000BF03B05DF804FB00B583B00190019B2D
:1008F0001B689B680198984700BF03B05DF804FB34
:1009000082B001900B468DF80330019BDB689DF8A7
:1009100003201A7100BF02B0704782B00190019BA2
:10092000DB681B79184602B0704782B00190019BCA
:10093000DB6801225A7100BF02B0704782B001909B
:10094000019BDB685B79184602B0704700B585B043
:1009500001900091019B002B01D107231BE0104B5C
:1009600000221A70009800F0CBFF0D4A019BC2F8DC
:100970000C340C4809F054FD0390039B002B01D06C
:10098000039B08E0084809F0E1FE084A084BD31A27
:10099000DB0802930023184605B05DF804FB00BF96
:1009A00018030020D86C0100246E0100B86C01000F
:1009B000386C0100024A034BD31ADB081846704713
:1009C000B86C0100386C010000B587B001900B468F
:1009D0008DF803309DF80330002B1FD0FFF7EAFF9E
:1009E00004900023059313E0059B9B000E4A1344DB
:1009F0000393039B1B881A46019B1B689A4204D1F0
:100A0000019B059A1A60002309E0059B01330593B9
:100A1000059A049B9A42E7D3052300E00023184679
:100A200007B05DF804FB00BF0000002000B585B0F2
:100A300001900B468DF803309DF8032001AB114661
:100A40001846FFF7C1FF0346002B07D1019BDB00CF
:100A5000054A13440393039B1B6800E000231846D8
:100A600005B05DF804FB00BF386C010084B0019054
:100A70000B468DF80330019BDB00174A13440293A9
:100A80009DF80330013B032B1CD801A252F823F040
:100A9000A10A0000A90A0000B10A0000BB0A000078
:100AA00002238DF80F3011E004238DF80F300DE094
:100AB000029B1B798DF80F3008E0029B5B798DF863
:100AC0000F3003E000238DF80F3000BF9DF80F308A
:100AD000184604B0704700BF386C010084B0019024
:100AE000009100238DF80F30019B1B7803F0040365
:100AF000DBB2002B24D0019B1B78C3F30103DBB2D4
:100B0000012B02D0022B0CD017E0009B1B68019A2E
:100B10001288C2F38312D2B21344DA1C009B1A600B
:100B20000BE0009B1B68019A5288C2F3891292B2B3
:100B30001344DA1C009B1A6000BF01238DF80F30AC
:100B40009DF80F30184604B07047000000B58BB018
:100B50000023ADF826303E4807F025FF3D4807F05A
:100B600022FF3D4B9B6804933C4B1B680693049A01
:100B7000069B134002339B00374A13440433089307
:100B800004AB19460898FFF7A9FF0346002B09D0CC
:100B9000049A069B134002339B002F4A13440433EC
:100BA0000893EDE700BF0023079311E0049B5A1C54
:100BB0000492069A1340079A920001A90A44264912
:100BC00002339B000B445B681360079B0133079360
:100BD000079B022BEAD99DF80430C3F30103DBB273
:100BE000012B10D0022B1CD1BDF80A30ADF82630F5
:100BF000BDF80630C3F389139BB203339A08049BF4
:100C00001344049313E0BDF80A30ADF82630BDF864
:100C10000430C3F38313DBB21A46049B13440493DA
:100C200005E00F494FF4C27007F014FD00BF0948FA
:100C300007F0C5FE0590059B002B02D0049B064AD9
:100C40009360BDF8263018460BB05DF804FB00BF7A
:100C5000300700202C07002018030020240000206B
:100C6000346E010000B585B00021074807F00AFE88
:100C70000390039B0293029B83F310030193019B58
:100C8000184605B05DF804FB3407002010B588B0A5
:100C90000390029101920093039B1B0C0793FFF7B3
:100CA000E1FF0690FFF786FE0246079B934204D3BE
:100CB000284940F2A91007F0CDFC069B1904009BBF
:100CC0005A1C0A9B1340079A0A43234902339B008C
:100CD0000B445A60204BD3F80C34009A911C0A9AAA
:100CE00001EA0204984702461B49A31C9B000B44DF
:100CF0005A60009A0A9B134002339B00164A134421
:100D000004330593039B03F00703D9B2059A1378C4
:100D100061F3C5031370019B03F00F03D9B2059A69
:100D2000138861F389131380029BC3F31501059A9D
:100D3000136861F39F231360059A1378012161F30F
:100D400001031370059A13786FF38203137000BFC9
:100D500008B010BD346E01001803002000B58BB040
:100D60000390029113468DF80730039B03330893D9
:100D700001238DF81F30002006F01AFF3E4B5A6801
:100D8000029B1A603D4B1A683B4B99683A4B5B6873
:100D9000CB1A13440133099314E00121384807F0BA
:100DA000B8FDFFF7D3FE05900599354807F0B1FD72
:100DB000324B1A68304B99682F4B5B68CB1A13443F
:100DC00001330993089A099B9A42E6D89DF81F308F
:100DD000002B48D0002304939DF80730002B17D038
:100DE0009DF81030012262F301038DF810309DF858
:100DF000103043F004038DF81030039B03F00F0311
:100E0000DAB2BDF8103062F38913ADF8103016E095
:100E10009DF81030022262F301038DF810309DF826
:100E2000103043F004038DF81030039BC3F3090323
:100E30009AB2BDF8123062F38F13ADF812300E4B38
:100E40005A680E4B1B68134002339B000A4A134436
:100E500004330693049A069B1A60074B5A68089B52
:100E60001344054A5360002006F0B6FE9DF81F307B
:100E700018460BB05DF804FB180300202400002086
:100E80003407002000B58BB00590049103920293C3
:100E90001F4B1B68079306AB012219460298FFF708
:100EA0005DFF0346002B24D0069B033309930023E8
:100EB000089311E0089B9B00039A1A44099B591C54
:100EC000099107990B401268124902339B000B44A9
:100ED0005A60089B01330893089A029B9A42E9D30F
:100EE000069A079B00931346029A04990598FFF708
:100EF000CDFE084B1B78002B05D000BF00F096F804
:100F00000346002BFAD100BF0BB05DF804FB00BF15
:100F1000240000201803002000B583B00190009148
:100F20000023002200990198FFF7ACFF00BF03B037
:100F30005DF804FB00B587B0039002910192019B1C
:100F4000059305AA012302990398FFF79BFF00BFB1
:100F500007B05DF804FB00B587B0039002910192E1
:100F60000093019B0493009B059304AA022302991A
:100F70000398FFF787FF00BF07B05DF804FB00B5DB
:100F800089B00390029101920093019B0593009B0D
:100F900006930A9B079305AA032302990398FFF778
:100FA00071FF00BF09B05DF804FB00B589B0039084
:100FB000029101920093019B0493009B05930A9B6D
:100FC00006930B9B079304AA042302990398FFF747
:100FD00059FF00BF09B05DF804FB00B58BB003906A
:100FE000029101920093019B0593009B06930C9B39
:100FF00007930D9B08930E9B099305AA052302995D
:101000000398FFF73FFF00BF0BB05DF804FB000043
:10101000054B9A68044B5B689A420CBF012300237E
:10102000DBB21846704700BF1803002000B599B026
:10103000FFF7EEFF0346002B01D00023B9E19B4BE5
:101040000022C3F81824BFF34F8F00BF974B9B6853
:101050000493974B1B681093049A109B1340023320
:101060009B00924A134404331193002317930023E7
:10107000169300230F9304AB19461198FFF72EFD2A
:101080000346002B19D0894BD3F81834002B14D108
:10109000864B5A68049B9A4205D8844B5B68834A06
:1010A0009360002385E1049A109B134002339B0058
:1010B0007E4A134404331193DDE70023159311E0B6
:1010C000049B5A1C0492109A1340159A920001A98D
:1010D0000A44764902339B000B445B681360159BFE
:1010E00001331593159B022BEAD99DF8043003F0C8
:1010F0000303DBB2022B40F09C80BDF80630C3F343
:1011000089139BB20D93BDF80630C3F389139BB2CC
:10111000502B28BF50239BB20C930C9BC3F30903A5
:101120009AB2BDF8063062F38F13ADF806300C9B0F
:101130000C330B939DF80430C3F3C203DBB20F935F
:101140000B995C4809F077F91790179B002B00F07A
:10115000D380179809F000FA01A9169B0C22179862
:1011600009F0B6FA169B0C331693049BDA43109BD6
:10117000134001339B000A930C9A0A9B9A4242D96E
:101180000A9B002B08D0049A109B134002339B004B
:10119000464A1344043300E0474B08930A9B002B54
:1011A00002D00A9BDBB201E00C9BDBB28DF81F3052
:1011B0000A9B002B01D0404B00E0002306930A9BC2
:1011C000002B06D00C9BDAB20A9BDBB2D31ADBB23F
:1011D00000E000238DF817309DF81F20169B08991A
:1011E000179809F075FA9DF81F30169A1344169354
:1011F000069B002B16D09DF81720169B0699179872
:1012000009F066FA0EE0049A109B134002339B002B
:10121000264A134404330993169B0C9A099917988C
:1012200009F056FA0D9B03339A08049B1344049368
:1012300062E09DF8043003F00303DBB2012B5BD1C5
:10124000BDF80430C3F38313DBB2062B28BF06239B
:10125000DAB2BDF8043062F38913ADF80430BDF89A
:101260000430C3F38313DBB203330E939DF80430D1
:10127000C3F3C203DBB20F930E9B9B0019460D48CC
:1012800009F0D9F81790179B002B35D0179809F063
:1012900063F901A9169B0C22179809F019FA169BFD
:1012A0000C331693002315931DE000BF1803002094
:1012B00024000020D86C010024030020049B5A1C49
:1012C0000492109A134002339B003C4A1344191DA8
:1012D000169B0422179809F0FBF9169B043316930A
:1012E000159B01331593BDF80430C3F38313DBB2B0
:1012F0001A46159B9342E1D3179B002B39D02F4BF5
:10130000D3F8103414932D4BD3F81834002B1BD082
:10131000179809F030F946E000238DF84F30149803
:10132000FFF70CFB0346002B02D001238DF84F3052
:101330009DF84F30002B03D017991498FFF7BAFA95
:10134000149BDB681B681493149B002BE4D1179843
:1013500009F011F9002006F02BFC184BD3F81834D3
:10136000002B02D1049B154A9360002006F034FC48
:1013700019E0124BD3F81034129306E01298FFF7DD
:10138000B3FA129BDB681B681293129B002BF5D1FA
:101390000B4A0C4BD31ADB081B0443F002030A4927
:1013A0001846FFF7B9FDFFF733FE034683F001034C
:1013B000DBB2184619B05DF804FB00BF180300202B
:1013C000706C0100386C0100946E010000B585B0AE
:1013D0000023039323E0164BD3F810340293012328
:1013E0008DF807300FE00298FFF797FA03461A4688
:1013F000039B934203D100238DF8073006E0029B44
:10140000DB681B680293029B002BECD19DF8073030
:10141000002B01D0039B07E0039B01330393039B45
:10142000092BD8DD4FF0FF33184605B05DF804FBFB
:101430001803002000B585B001900B468DF80330ED
:10144000FFF7C4FF0390039BB3F1FF3F01D1039B60
:1014500022E0039BDBB219460198FFF751FA104BCB
:10146000D3F81034002B08D10D4A019BC2F8103478
:10147000019BDB6800221A600DE0094BD3F81034A1
:10148000DA68019BDB6812681A60054BD3F81034E8
:10149000DB68019A1A60039B184605B05DF804FBEF
:1014A0001803002000B583B00C4BD3F8103401931F
:1014B0000A4B01221A7009E00198FFF736FA0198E9
:1014C000FFF706FA019BDB681B680193019B002B69
:1014D000F2D100BF00BF03B05DF804FB1803002089
:1014E00000B58DB0059004912F4B1B68049AB2FB98
:1014F000F3F304932D4B1B68049AB2FBF3F30B93A5
:101500000B9B2B4AA2FB0323DB0A0A930A9B4FF493
:10151000616202FB03F30B9AD31A0B930B9B254AD0
:10152000A2FB03235B090993099A13461B019B1A2B
:101530009B001A460B9B9B1A0B931C4B1A68049B2F
:10154000B3FBF2F102FB01F29B1A0893089B4FF4E4
:101550007A7202FB03F2154B1B68B2FBF3F307939D
:10156000089B4FF47A7202FB03F2104B1B68079939
:1015700001FB03F3D31A4FF47A7202FB03F20B4B15
:101580001B68B2FBF3F30693069B0293079B019340
:101590000B9B0093099B0A9A0749059808F094FB56
:1015A00000BF0DB05DF804FB3C07002038070020A9
:1015B000C5B3A29189888888106F010010B584B0E6
:1015C00003900291039BDB88002B0AD0039BDB88EE
:1015D0001A461F4B009313461E4A1F49029808F0F3
:1015E00073FB039B1B7A052B2ED0039B5B7A002B8E
:1015F00012D0039B9B881A46039B1B7A1946104600
:10160000FFF734FA03461A46144B53F822301A46B1
:101610001349029808F058FB039B1B68194602986F
:10162000FFF75EFF039B1B7A1A460E4B53F82240CE
:10163000039B9B8800211846FFF7F8F903462246D2
:101640000949029808F040FB00BF04B010BD00BF7C
:10165000C86E0100D86E01002C6F01003C00002014
:10166000446F010028000020486F010000B585B0DC
:101670000390029113468DF80730039B1B7A052BCC
:101680000FD0039B5B7A002B06D00D4B1B681A46CC
:101690000C49029808F018FB0B49029808F014FB5B
:1016A00007E09DF80730002B03D00749029808F0A7
:1016B0000BFB029808F0E6FA00BF05B05DF804FBEA
:1016C0003C000020446F0100546F010030B58BB026
:1016D00007900691059204930E9B1B7B8DF8273093
:1016E0000E9B00221A730E990498FFF767FF059B63
:1016F000062B7FD801A252F823F000BF1917000073
:10170000231700003317000047170000651700007B
:101710008D170000BD17000007990E9808F0D4FA45
:1017200069E0069B1B681A4607990E9808F0CCFAE8
:1017300061E0069B1A68069B04331B6807990E98A4
:1017400008F0C2FA57E0069B1A68069B0433196832
:10175000069B08331B6800930B4607990E9808F008
:10176000B3FA48E0069B1968069B04331868069B89
:1017700008331B68069A0C321268019200930346E4
:101780000A4607990E9808F09FFA34E0069B1868FD
:10179000069B04331C68069B08331B68069A0C32B0
:1017A000126806991031096802910192009323464C
:1017B000024607990E9808F087FA1CE0069B1C6801
:1017C000069B04331D68069B08331B68069A0C327F
:1017D0001268069910310968069814300068039061
:1017E0000291019200932B46224607990E9808F029
:1017F0006BFA00E000BF00220E990498FFF736FF55
:101800000E9B9DF827201A7300BF0BB030BD00BFA0
:1018100000B587B00390029101920093029B082BC0
:1018200060D8009B1B7B8DF81330009B00221A733D
:1018300000990198FFF7C2FE0023059314E0059A72
:10184000029B9A4209D2039A059B13441B781A46BD
:101850002649009808F038FA03E02549009808F076
:1018600033FA059B01330593059B072BE7D92149E3
:10187000009808F029FA0023059326E0059A029BB8
:101880009A421BD2039A059B13441B788DF81230A1
:101890009DF812307E2B0AD89DF81230184614F0AD
:1018A0007CFD0346002B02D09DF8123000E02E2371
:1018B0001A461149009808F007FA03E00F4900980A
:1018C00008F002FA059B01330593059B072BD5D938
:1018D000012200990198FFF7C9FE009B9DF8132093
:1018E0001A7300E000BF07B05DF804FB586F0100F9
:1018F000606F0100646F0100686F01006C6F010090
:1019000082B001900A4B01221A6007E0019B5B083C
:101910000193074B1B685B00054A1360019B054A56
:101920009342F3D8044A019B136000BF02B0704792
:101930003C07002040420F003807002000B583B06C
:101940000190019B1B68184600F002F90346002B2A
:1019500004D10B494FF4F67006F07CFE019B1B6826
:101960001F2B02D84FF0A04306E0019B1B6803F039
:101970001F02019B1A60034B184603B05DF804FB7D
:10198000706F01000003005000B585B0019008465B
:1019900011461A4603468DF803300B468DF8023087
:1019A00013468DF8013001AB1846FFF7C7FF0390CF
:1019B0009DF803209DF802305B001A439DF801302A
:1019C0009B001A439DF818301B0242EA03019DF860
:1019D0001C301B04019A1943039B02F5E07243F883
:1019E000221000BF05B05DF804FB00B585B0039080
:1019F0000023019300230093002301220121039877
:101A0000FFF7C2FF00BF05B05DF804FB00B585B06D
:101A100003900B468DF80B309DF80B30002201929D
:101A200000220092002200210398FFF7ADFF00BFC3
:101A300005B05DF804FB00B585B0019001AB184618
:101A4000FFF77CFF0390019B012202FA03F3194682
:101A5000039800F069F800BF05B05DF804FB00B51D
:101A600085B0019001AB1846FFF768FF0390019B1A
:101A7000012202FA03F31946039800F05FF800BF51
:101A800005B05DF804FB00B585B0019001AB1846C8
:101A9000FFF754FF0390039BD3F804350293029B96
:101AA000DA43019B012101FA03F31A40039BC3F8B7
:101AB0000825019B01229A40029B1A40039BC3F810
:101AC0000C2500BF05B05DF804FB00B583B00190A4
:101AD0000091009B002B03D10198FFF7C0FF02E0AB
:101AE0000198FFF7A8FF00BF03B05DF804FB00B545
:101AF00085B0019001AB1846FFF720FF03900398D3
:101B000000F00AF80246019B22FA03F303F00103F6
:101B1000184605B05DF804FB82B00190019BD3F834
:101B20000435184602B0704782B001900091019BC5
:101B3000009AC3F8082500BF02B0704782B0019038
:101B40000091019B009AC3F80C2500BF02B07047BA
:101B500084B00190019B5B09029300230393029BD5
:101B6000002B03D0029B012B04D007E04FF0FF3382
:101B7000039303E04FF6FF73039300BF019B03F051
:101B80001F030193039A019B22FA03F303F001035D
:101B9000002B14BF01230023DBB2184604B07047AA
:101BA00000B585B00190019B012B03D911493A2062
:101BB00006F050FD104A019B13441B781846FFF7AE
:101BC00096FF0346002B14BF012300238DF80F302E
:101BD0009DF80F30002B14BF01230023DBB283F0EC
:101BE0000103DBB203F00103DBB2184605B05DF878
:101BF00004FB00BFBC6F01000870010000B583B09A
:101C00000190019B012B03D90749412006F022FDD9
:101C1000064A019B13441B7800211846FFF755FF25
:101C200000BF03B05DF804FBBC6F01000870010049
:101C300000B583B00190019B012B03D907494720D0
:101C400006F008FD064A019B13441B780121184643
:101C5000FFF73BFF00BF03B05DF804FBBC6F010062
:101C60000870010000B583B00023019305E00198DE
:101C7000FFF7DEFF019B01330193019B012BF6D996
:101C800000BF00BF03B05DF804FB00B583B00023C4
:101C9000019305E00198FFF7B1FF019B0133019328
:101CA000019B012BF6D900BF00BF03B05DF804FB18
:101CB00000B583B00190019B012B03D907495F2038
:101CC00006F0C8FC064A019B13441B781846FFF730
:101CD000DAFE00BF03B05DF804FB00BFBC6F01007B
:101CE0000870010000B583B00023019309E0094AA0
:101CF000019B13441B781846FFF777FE019B0133C5
:101D00000193019B012BF2D9FFF7ACFF00BF03B099
:101D10005DF804FB0870010000B583B00023019357
:101D200007E0222303211846FFF770FE019B0133D1
:101D30000193019B002BF4D000BF00BF03B05DF8FE
:101D400004FB84B001904FF0FF3302930023039310
:101D50000AE022231A46019B934202D1039B02937D
:101D600005E0039B01330393039B002BF1D0029BFF
:101D7000184604B0704700B583B00190019B03F092
:101D80000103002B01D0FFF7ADFF019B03F002031D
:101D9000002B01D0FFF7C0FF00BF03B05DF804FBCC
:101DA00084B003468DF807309DF807305B08DBB23E
:101DB0001A460D4B9B5C8DF80F309DF8073003F0F1
:101DC0000103002B04D09DF80F301B09DBB204E0A7
:101DD0009DF80F3003F00F03DBB28DF80E309DF845
:101DE0000E30184604B070477807002084B00346D0
:101DF0000A468DF8073013468DF806309DF80730F7
:101E000003F00103002B01D00F2300E0F0238DF835
:101E10000F309DF8073003F00103002B04D09DF82C
:101E200006301B01DBB201E09DF806308DF80E3064
:101E30009DF807305B08DBB21A46114B9A5C9DF89F
:101E400007305B08DBB219469DF80F301340DAB259
:101E50000B4B5A549DF807305B08DBB21A46084B0F
:101E60009A5C9DF807305B08DBB219469DF80E308E
:101E70001343DAB2024B5A5400BF04B0704700BF9C
:101E80007807002000B585B003468DF807300023A1
:101E9000039310E00F4B1A68039BDB00134402937B
:101EA000029B1B789DF807209A4201D1029B0DE00E
:101EB000039B01330393084B1B781A46039B934201
:101EC000E8DB0649882006F0C5FB0023184605B06C
:101ED0005DF804FB40070020440700201870010053
:101EE00000B585B003460A468DF8073013468DF8D5
:101EF00006309DF807301846FFF7C4FF0390039B98
:101F0000002B0BD0039B5B68002B07D0039B5B6807
:101F10009DF806109DF807201046984700BF05B0B1
:101F20005DF804FB2DE9F04F85B003460A468DF8B5
:101F30000F3013468DF80E309DF80F301846FFF71E
:101F40002FFF0346042B00F2B48001A252F823F0C5
:101F5000651F0000CB1F0000E71F000017200000D6
:101F60002D2000009DF80E30002B00F09F809DF882
:101F70000F3001211846FFF739FF002005F018FE49
:101F80009DF80F104FF001024FF00003A1F1200463
:101F9000C1F1200003FA01F702FA04F4274322FA00
:101FA00000F0074302FA01F6444BD3E9002346EA66
:101FB000020100913B430193404BDDE90012C3E96C
:101FC0000012002005F008FE70E09DF80E30002B96
:101FD00001D0022200E000229DF80F301146184681
:101FE000FFF704FF65E09DF80E30002B0CD09DF844
:101FF0000F3003211846FFF7F9FE9DF80F3001213D
:102000001846FFF76DFF54E09DF80F300121184688
:10201000FFF7ECFE4DE09DF80E30002B48D19DF807
:102020000F3004211846FFF7E1FE41E09DF80E3025
:10203000002B06D09DF80F3003211846FFF7D6FE7F
:1020400037E09DF80F3000211846FFF7CFFE9DF8CE
:102050000F3000211846FFF743FF002005F0A8FDD0
:102060009DF80F104FF001024FF00003A1F1200680
:10207000C1F1200003FA01F502FA06F6354322FA0F
:1020800000F0054302FA01F46FEA04086FEA05095B
:102090000A4BD3E9002308EA020A09EA030B074BBB
:1020A000C3E900AB002005F097FD02E000BF00E0AF
:1020B00000BF00BF05B0BDE8F08F00BF7007002073
:1020C00000B583B00648074B1B685B080022194621
:1020D00000F032FD019000BF03B05DF804FB00BFCB
:1020E000500700204807002000B587B0019000236A
:1020F000059328E01C4B1A68059BDB0013440493EE
:10210000049B1B78184609F021FE03468DF80F301A
:10211000049B5B78012B0CBF01230023DBB21A4622
:102120009DF80F309A420CBF012300238DF80E302A
:10213000049B1B789DF80E2011461846FFF7F2FE0F
:10214000059B01330593094B1B781A46059B934267
:10215000D0DB074BD3E90023134301D0FFF7B0FFD7
:1021600000BF07B05DF804FB4007002044070020D3
:102170007007002000B585B001900B468DF8033044
:10218000019BDBB21846FFF77DFE0390039B1B7893
:10219000184609F0DBFD03468DF80B30039B5B7896
:1021A000012B0CBF01230023DBB21A469DF80B3034
:1021B0009A420CBF012300238DF80A309DF80A30A3
:1021C000002B06D0054BD3E90023134301D1FFF7C1
:1021D00077FF00BF05B05DF804FB00BF700700206B
:1021E00000B58BB003900B4601928DF80B30019B2C
:1021F000092B01D8072367E009F09CFC034683F014
:102200000103DBB2002B09D009F030FC0990099BD7
:102210000893089B002B01D0089B55E02C4A039B98
:1022200013602C4A9DF80B3013702B4A019B1360EE
:1022300020220021294814F05FF929494FF00002BB
:102240004FF00003C1E9002331E09DF80B30DB00C3
:10225000039A1344079303238DF8143000238DF859
:1022600015309DF816306FF300038DF816309DF889
:1022700016306FF341038DF816309DF816306FF36A
:1022800082038DF81630079B9B788DF81530079BDD
:102290001B78184605AB134A194609F057FC0990FC
:1022A000099B0693069B002B01D0069B0CE09DF832
:1022B0000B305A1E8DF80B20002BC6D10A4A002184
:1022C0000A4800F005FC034618460BB05DF804FB15
:1022D000400700204407002048070020780700201E
:1022E0007007002075210000E920000074700100D3
:1022F00000B583B0114B1B68002B04D1104940F28C
:10230000351006F0A7F9002301930CE00B4B1A6877
:10231000019BDB0013441B780121184609F092FC55
:10232000019B01330193074B1B781A46019B934293
:10233000ECD30023184603B05DF804FB40070020EF
:10234000187001004407002086B0039002910192AA
:1023500001238DF817309DF81730204A039B136036
:102360001E4A029B53601D4A019B9360039B44F2EB
:102370000102934212D0039B44F20202934220D105
:10238000019B164AD360154BDB681B68134A9361A7
:10239000124BDB685B68114AD36112E0019B0F4A64
:1023A00013610E4B1B699B680C4A53610B4B1B69F5
:1023B0001B680A4A9361094B1B695B68074AD36132
:1023C00000BF72B600BF00BF9DF81730DBB2002B14
:1023D000FAD162B600BF00BF06B070479807002070
:1023E00000B583B002900091019244F20100714661
:1023F0006A4600F003F803B000BD00BF30B58BB0F3
:1024000007900691059272B600BFFFF74BF800BF28
:10241000FEF70CFE0346002BFAD1079B44F20102A3
:10242000934216D0079B44F2020293423ED1059B91
:1024300009932C4A2C4BD31ADB081B0443F00100F0
:10244000099B5B681A46099B1B682849FEF783FDB8
:1024500039E0059B0893234A234BD31ADB081B045E
:1024600043F00104089B9D68089B9B68184608F090
:1024700031FA03461846089B5B681946089B1B689F
:10248000069A02920193009103462A461849204673
:10249000FEF7A3FD134A144BD31ADB081B0443F0C9
:1024A000010314491846FEF737FD0CE00D4A0E4BA8
:1024B000D31ADB081B0443F00103069A0E491846A1
:1024C000FEF738FD00BF0D4B1B6803F00103002B26
:1024D00000D000BE059A06990798FFF735FF00BFA8
:1024E0000BB030BD706C0100386C010078700100D9
:1024F00094700100BC700100D0700100F0ED00E0AC
:10250000F0B583B0124805F06EFF034618464FF051
:102510000001104BD3E90023861841EB0307CDE9F6
:1025200000670D4BD3E90023DDE90001994208BFA4
:10253000904207D2DDE9002312F1807443F10005D7
:10254000CDE90045DDE900231046194603B0F0BD92
:1025500060000020C0070020C807002088B001905C
:102560000091019B0793009B0693079BD3E90223ED
:10257000CDE90423069BD3E90223CDE90223DDE95B
:102580000423DDE90201994208BF90422CBF0123D8
:102590000023DBB2184608B07047000030B585B0A4
:1025A0000190019B5B69002B03D12B49A22006F00F
:1025B00051F800238DF80F30284B1B78002B45D0A5
:1025C000019B002B42D0019B1B7FDBB2002B3DD037
:1025D000FFF796FF019BD3E90223994208BF90427F
:1025E0002CD3019B1B69002B02D1019B00221A777F
:1025F000019B5B69019A926910469847019B1B6990
:10260000002B23D0019B1B7FDBB2002B1ED0019B34
:10261000D3E90201019B1B691A464FF0000384189D
:1026200041EB0305019BC3E90245019B19460C4898
:1026300008F0AAF801238DF80F3007E0019B194636
:10264000074808F0A1F801238DF80F309DF80F30EE
:10265000184605B030BD00BFF4700100BC07002073
:1026600050710100F0B589B0019000910D230793DE
:10267000009B00221A70019BD3E90245FFF740FF3F
:1026800002460B46A61A65EB0307CDE90467DDE9B0
:102690000423012A73F100031BDB049BB3F5350F00
:1026A00005D300F0A7FA0246154B134403E0019B43
:1026B000D3E90223134603934FF49603039A0021B0
:1026C000104805F083FD0790079B002B05D10123DF
:1026D00013E000210B4805F051FE079B0D2B07D19D
:1026E0000198FFF75BFF03461A46009B1A7003E050
:1026F0000549F52005F0AEFF0023184609B0F0BDEE
:10270000FFFFB40060000020F470010000B583B04A
:10271000044808F073F80190019B184603B05DF877
:1027200004FB00BF5071010000B583B0044808F0FD
:1027300087F80190019B184603B05DF804FB00BFC9
:102740005071010000B583B0FFF7E0FF0190019BDD
:10275000002B02D0019B00221A77019B002BF3D1A2
:1027600000BF00BF03B05DF804FB0000054BD3E9D8
:10277000002312F1807043F10001024BC3E9000114
:1027800000BF7047C007002010B582B00190124B07
:102790001B68002B1DD0019805F025FE0446002182
:1027A000019805F011FE03461946204600F016FA7E
:1027B0000346B3F5960F04D308494FF4957005F01E
:1027C00049FF054B1B681846FFF7E8FE024B002245
:1027D0001A6000BF02B010BDB8070020F4700100FD
:1027E00000B583B00190FFF78BFE02460B4603490C
:1027F000C1E9002300BF03B05DF804FBC807002057
:1028000000B585B00190FFF78FFF039000238DF88E
:102810000B30039B002B48D02B4B1B68002B03D1A4
:1028200001238DF80B3019E0039BD3E90201264BFD
:102830001B68D3E90223994208BF90420ED20123BC
:102840008DF80B30204B1B681B7FDBB2002B05D0B3
:102850001D4B1B6819461D4807F096FF9DF80B306D
:10286000002B2AD0FFF752FF03900DF10A031946FF
:102870000398FFF7F7FE0346002B12D0124B1B689C
:10288000002B02D1019805F0ADFB0F4A039B1360AA
:102890009DF80A3083F00103DBB2002BB3D000BFF8
:1028A0000EE0094B00221A60ADE7074B1B68002BB6
:1028B00005D1019805F0ACFB01E000BF00E000BFCE
:1028C00000BF05B05DF804FBB8070020507101009F
:1028D00000B587B001902C4A03AB1946104605F0AD
:1028E000A4FF059048E0059B1B78022B2ED0022BFD
:1028F00032DC002B02D0012B14D02DE0059B5B684D
:102900001B7FDBB283F00103DBB2002B26D0059BDB
:102910005B6801221A77059B5B6819461B4807F024
:1029200033FF1BE0059B5A68194B1B689A4203D181
:10293000174B00221A6012E0059B5B68194613488A
:1029400007F092FF03468DF8133008E0FFF7FAFE18
:10295000104B01221A7002E000BF00E000BF0A4ADB
:1029600003AB1946104605F079FF074A03AB194639
:10297000104605F05AFF0590059B002BB3D100BF10
:1029800000BF07B05DF804FB28080020507101006B
:10299000B8070020BC07002000B583B00190019863
:1029A00005F0DFFC0346002B01D0FFF7DFFE00211E
:1029B000019805F0F4FC0346002B02D00198FFF7C4
:1029C000E3FE0121019805F0EAFC0346002B02D04A
:1029D0000198FFF705FF0198FFF77AFF0198FFF7CD
:1029E0000FFF00BF03B05DF804FB000008B502480C
:1029F00005F006FD00BF08BD6000002000B585B0F1
:102A0000034600918DF80730114A02AB1946104673
:102A100005F0DEFE0390039B002B13D0039B9DF873
:102A200007201A70039B009A5A60094A02AB1946A4
:102A3000104605F0E6FE0346002B01D0FFF7D6FF57
:102A4000002300E00423184605B05DF804FB00BF36
:102A50002808002000B583B0164B1B680093164869
:102A600008235822154905F080FE0190019B002B98
:102A700001D0019B19E06B46114A1946114805F037
:102A800033FA0190019B002B01D0019B0DE0012145
:102A90000C4805F055FC01230B4A0121094805F0BB
:102AA000CDFA0A4B01221A70019B184603B05DF85B
:102AB00004FB00BF4C71010028080020D007002053
:102AC0009929000060000020FFFF7F00BC07002064
:102AD00000B587B003900B4601928DF80B30039B35
:102AE000002B04D1134940F22E2005F0B3FD019BC9
:102AF000002B04D10F4940F22F2005F0ABFD019BC4
:102B0000002B01D1072310E0039B1B680593059B55
:102B1000019A5A619DF80B30012B0CBF0123002351
:102B2000DBB21A46059B1A610023184607B05DF810
:102B300004FB00BFF470010030B587B00390029130
:102B40000192039B002B04D1154940F23E2005F071
:102B500081FD039B0593059B1B7FDBB2002B01D0FE
:102B600000231AE0059B019A9A61FFF7C9FC029BBA
:102B70001A464FF00003841841EB0305059BC3E997
:102B80000245059B1B69002B02D0059B029A1A6126
:102B900005990020FFF732FF0346184607B030BD05
:102BA000F470010000B585B00190019B002B04D1A9
:102BB00009494FF4157005F04DFD019B0393039BEC
:102BC00000221A7703990120FFF718FF03461846E1
:102BD00005B05DF804FB00BFF470010082B0019005
:102BE0000091019A009BD31A23F07F43184602B04C
:102BF0007047000008B5034805F0F5FB034618468A
:102C000008BD00BF60000020024BD3F88034DBB267
:102C10001846704700700240024BD3F88434DBB290
:102C2000184670470070024008B50EF0F5F9002311
:102C3000184608BD00B585B003468DF807300B4631
:102C40008DF8063013468DF805309DF8073003F0F7
:102C50001F029DF806305B0103F060031A439DF8E4
:102C60000530DB01DBB213430393039BFF2B04D935
:102C700005494FF4AC7005F0EDFC039BDBB2184640
:102C800005B05DF804FB00BF5C71010082B00190EB
:102C9000019B1B7A184602B07047000000B585B052
:102CA00001900B468DF80330019B002B04D10F4996
:102CB0004FF4887005F0CEFC0198FFF7E7FF03465C
:102CC0001A469DF80330934201D3002309E0019B8B
:102CD000093303939DF8032013465B001344039AC2
:102CE0001344184605B05DF804FB00BFBC71010039
:102CF00082B00190019B1B78184602B0704782B0E9
:102D00000190019B5B78184602B0704700B585B012
:102D100001900B468DF80330019B002B04D10D4927
:102D200040F2431005F096FC019B5B789DF8032070
:102D30009A4201D3002309E0019B9B781A46019B2C
:102D4000134403939DF80330039A1344184605B0C7
:102D50005DF804FBBC71010082B00190019B1B78FF
:102D6000184602B0704782B00190019B1B6818465C
:102D700002B0704700B583B00190019B002B04D1D5
:102D8000064940F2432005F065FC0198FFF7EBFF90
:102D900003461B68184603B05DF804FB1C72010073
:102DA00000B583B00190019B002B04D1064940F28D
:102DB0005F2005F04FFC0198FFF7D5FF03465B68E5
:102DC000184603B05DF804FB1C72010000B583B027
:102DD0000190019B002B04D1064940F27B2005F0B5
:102DE00039FC0198FFF7BFFF03465B68184603B044
:102DF0005DF804FB1C720100014B1846704700BFD0
:102E0000FC7301004FF08043D3F838341846704704
:102E100008B5FFF7F7FF034603F00103002B14BFCB
:102E200001230023DBB2184608BD08B5FFF7EAFF0F
:102E3000034603F00203002B14BF01230023DBB27F
:102E4000184608BD00B583B001900091019B002B8E
:102E500004D1114940F20F1005F0FCFB019B5B68A7
:102E6000002B04D10C494FF4887005F0F3FB019B53
:102E70005B681B68002B04D1074940F2111005F074
:102E8000E9FB019B5B681B68009901989847034622
:102E9000184603B05DF804FB8072010000B583B0F2
:102EA00001900091019B002B04D1114940F21910AF
:102EB00005F0D0FB019B1B68002B04D10C494FF49B
:102EC0008D7005F0C7FB019B1B689B68002B04D12C
:102ED000074940F21B1005F0BDFB019B1B689B6876
:102EE000009A52881046984700BF03B05DF804FB73
:102EF0008072010000B583B001900B468DF803305D
:102F0000074B1B68002B06D0054B1B689DF8032060
:102F100011460198984700BF03B05DF804FB00BF5D
:102F2000000A002000B583B003468DF80730074B38
:102F30005B68002B05D0054B5B689DF807201046A9
:102F4000984700BF03B05DF804FB00BF000A0020F3
:102F500010B58EB0039001930B468DF80B301346DD
:102F60008DF80A300023099300230D9302E00D9B96
:102F700001330D93039B5B685C6809A80123002261
:102F80000399A0470346002BF1D100238DF823308D
:102F900000230C9300238DF82F30002306934FE07D
:102FA000039B5B685C680DF1230206A8012303996B
:102FB000A047039B5B685C680DF1170206A801231C
:102FC0000399A0479DF817309DF80B209A4227D10E
:102FD0009DF82F209DF80A309A421CD19DF823308D
:102FE0001A46109B1A60019B5A1C01929DF82320DF
:102FF0001A70019B5A1C01929DF80B201A70039BBA
:103000005B685C689DF82330023B06A8019A03992F
:10301000A047002319E09DF82F3001338DF82F30A1
:10302000039B5B685C689DF82330023B06A8002286
:103030000399A0479DF823301A460C9B13440C9328
:103040000C9A0D9B9A42ABD3052318460EB010BDC7
:1030500000B585B003468DF807309DF90730002B89
:1030600014DA9DF8073003F00F038DF80E309DF849
:103070000E30082B04D911494FF4CC7005F0EAFA50
:103080009DF80E30DB000E4A134413E09DF8073024
:1030900003F00F038DF80F309DF80F30082B04D983
:1030A00006494FF4CF7005F0D5FA9DF80F30DB00DC
:1030B000044A1344184605B05DF804FB8072010011
:1030C00060090020A809002000B583B003468DF8F0
:1030D00007309DF807301846FFF7BAFF03461B6814
:1030E000184603B05DF804FB00B585B003460091B7
:1030F0008DF807309DF807301846FFF7A9FF0390B9
:10310000039B009A1A60009B002B10D19DF807309A
:10311000002B03D09DF80730802B04D108494FF4D1
:10312000E17005F097FA039B00225A6004E0009BCF
:103130005B681A68039B5A6000BF05B05DF804FB2A
:103140008072010000B583B00190064B5B68054AB0
:1031500012680199104698470346184603B05DF877
:1031600004FB00BFA809002000B58BB00190019BB3
:103170000993099B1B78052B1AD1FFF74DFD0346D8
:103180008DF82330FFF740FD03468DF81B300022F9
:1031900000210020FFF74EFD03461A469DF81B3024
:1031A000934205D19DF82330052B01D1334B099370
:1031B000099B1B78002B27D100F03CFF079007E00C
:1031C00009990798FFF76AFE0798FFF7FFFD079038
:1031D000079B002BF4D1002004F0EAFC284B1B686D
:1031E000002B03D1099B5A88264B1A8001212448C1
:1031F00005F08FFB002004F0EFFC01210998FFF798
:1032000079FE1F4B1B6835E01F4A03AB1946104679
:1032100005F0DEFA0590059B002B2BD0059A099B43
:103220001B681360002004F0C3FC164B1A88144B73
:103230001B689BB2D31A9BB201339AB2059BDA800A
:1032400000210F4805F01EFB03469AB2059B9A80A9
:10325000002004F0C1FC0C4A03AB1946104605F0EF
:10326000D0FA03468DF813309DF8133019460998AB
:10327000FFF740FE0BB05DF804FB00BFE4720100F5
:10328000580900205C0900204809002000B583B0DF
:1032900003468DF807309DF80730022B0ED0022B25
:1032A00010DC002B02D0012B04D00BE00A48FFF702
:1032B0005BFF0DE00948FFF757FF09E00848FFF7FB
:1032C00053FF05E0074940F2622005F0C3F900BF53
:1032D00000BF03B05DF804FBD8720100DC7201008E
:1032E000E07201008072010000B583B00190019886
:1032F000FFF73AFF00BF03B05DF804FB00B583B0F1
:1033000003468DF807309DF80730002B04D006499E
:1033100040F27B2005F09EF90448FFF725FF00BF2F
:1033200003B05DF804FB00BF80720100E872010089
:1033300082B003468DF807309DF80730082B27D858
:1033400001A252F823F000BF6D330000713300007A
:1033500075330000793300007D33000081330000B5
:1033600085330000893300008D330000002310E016
:1033700000230EE001230CE000230AE0002308E014
:10338000012306E0012304E0012302E0012300E021
:103390000023184602B0704782B003468DF807300C
:1033A0009DF80730082B27D801A252F823F000BF60
:1033B000D5330000D9330000DD330000E1330000D5
:1033C000E5330000E9330000ED330000F133000085
:1033D000F5330000002310E000230EE001230CE091
:1033E00000230AE0002308E0002306E0002304E0B5
:1033F000002302E0012300E00023184602B07047DA
:10340000014B1B7818467047FC09002010B582B0AC
:1034100003468DF807309DF807301846FFF788FF00
:1034200003461C461C4B1B781846FFF781FF0346DA
:103430009C420DD09DF807301846FFF779FF0346F0
:10344000002B03D0154807F05BFB01E007F0A8FB59
:103450009DF807301846FFF79FFF03461C460E4BAA
:103460001B781846FFF798FF03469C420CD09DF846
:1034700007301846FFF790FF0346002B02D00DF0EF
:1034800067FF01E00DF05AFF034A9DF80730137003
:1034900000BF02B010BD00BFFC0900206800002082
:1034A00000B587B001900B468DF8033013468DF8B8
:1034B00002300198FFF7EAFB03461A469DF80330F5
:1034C000934204D91B4940F2F92005F0C3F89DF856
:1034D0000230002B01D0072328E09DF80330194665
:1034E0000198FFF7DBFB04900498FFF708FC034604
:1034F0008DF80F3000238DF8173010E09DF817304D
:1035000019460498FFF702FC0290029B1B781846AC
:1035100000F058FD9DF8173001338DF817309DF8F5
:1035200017209DF80F309A42E8D30023184607B0C1
:103530005DF804FB8072010000B587B001900B4676
:103540008DF803300198FFF7A1FB03461A469DF85A
:103550000330934204D919494FF4467005F07AF8C4
:103560009DF8033019460198FFF798FB04900498E2
:10357000FFF7C5FB03468DF80F3000238DF8173099
:1035800010E09DF8173019460498FFF7BFFB029032
:10359000029B1B78184600F033FD9DF8173001336D
:1035A0008DF817309DF817209DF80F309A42E8D318
:1035B00000BF00BF07B05DF804FB00BF80720100D0
:1035C000014B1B88184670473C08002000B589B0A5
:1035D000019007F0E3F90346002B04D1484940F27B
:1035E000313005F037F8474808234FF484724649D4
:1035F00005F0BBF80690069B002B01D003237BE06F
:1036000042480DF085FC0690069B002B01D0069BDE
:1036100072E03F4B00221A703E4B00221A603E4B74
:1036200000221A60482200213C4812F065FF48221F
:1036300000213B4812F060FF019B002B09D1394B60
:1036400000221A60374B00225A60364B00221A7251
:1036500004E0344B019A07CA83E80700002007F012
:103660000FFB0690069B002B08D0069B852B05D0F0
:10367000234A40F25F310698FEF7B2FEFFF7BCFB2B
:10368000059000238DF81F3018E000238DF81E30C0
:1036900007E00398FFF760FB034605991846FFF71C
:1036A00023FD9DF81E305A1C8DF81E2019460498E3
:1036B000FFF72CFB0390039B002BEAD19DF81F30F2
:1036C0005A1C8DF81F2019460598FFF7E7FA049059
:1036D000049B002BD9D10B238DF8083002AB19467F
:1036E0000598FFF7AFFB0690069B002B03D0FFF772
:1036F0009BFA069B00E00023184609B05DF804FB26
:10370000807201004809002040080020E9320000D2
:10371000FC090020F0090020F409002060090020C5
:10372000A8090020000A002000B583B00DF06CFD50
:10373000034683F00103DBB2002B04D10DF070FDD2
:103740000346002B01D008230FE00A4807F0BAFA1D
:103750000190019B0093009B002B05D0064A40F28C
:10376000C2310098FEF73CFE0023184603B05DF816
:1037700004FB00BFEC7201008072010008B50DF07F
:1037800063FC00BF08BD000008B50DF055FD034601
:1037900083F00103DBB2002B04D1044940F2D130A5
:1037A00004F058FF0DF0B8FC00BF08BD80720100A6
:1037B00008B50DF035FD0346002B0DD10D494FF432
:1037C000767004F047FF07E0FFF722FB034683F023
:1037D0000103DBB2002B0BD1FFF727FB034683F07D
:1037E0000103DBB2002BEFD10348FFF7BDFC00E083
:1037F00000BF08BD80720100F072010000B583B007
:1038000082238DF8043001AB1846FFF7ADFC00BFF2
:1038100003B05DF804FB000000B587B00190DF4BFA
:103820001B68002B04D1DE4940F2254004F012FF52
:1038300004F005FA0346052B04D8D94940F22C4080
:1038400004F008FF019B1B78852B00F25F8201A228
:1038500052F823F0513B0000B53B0000433C000010
:10386000D73B0000073C00006B3C00007B3C0000A5
:103870000D3D0000E33C0000F13C0000FF3C000077
:103880000D3D00000D3D00000D3D00000D3D000010
:103890005D3C00000D3D00000D3D00000D3D0000B1
:1038A0000D3D00000D3D00000D3D00000D3D0000F0
:1038B0000D3D00000D3D00000D3D00000D3D0000E0
:1038C0000D3D00000D3D00000D3D00000D3D0000D0
:1038D0000D3D00000D3D00000D3D00000D3D0000C0
:1038E0000D3D00000D3D00000D3D00000D3D0000B0
:1038F0000D3D00000D3D00000D3D00000D3D0000A0
:103900000D3D00000D3D00000D3D00000D3D00008F
:103910000D3D00000D3D00000D3D00000D3D00007F
:103920000D3D00000D3D00000D3D00000D3D00006F
:103930000D3D00000D3D00000D3D00000D3D00005F
:103940000D3D00000D3D00000D3D00000D3D00004F
:103950000D3D00000D3D00000D3D00000D3D00003F
:103960000D3D00000D3D00000D3D00000D3D00002F
:103970000D3D00000D3D00000D3D00000D3D00001F
:103980000D3D00000D3D00000D3D00000D3D00000F
:103990000D3D00000D3D00000D3D00000D3D0000FF
:1039A0000D3D00000D3D00000D3D00000D3D0000EF
:1039B0000D3D00000D3D00000D3D00000D3D0000DF
:1039C0000D3D00000D3D00000D3D00000D3D0000CF
:1039D0000D3D00000D3D00000D3D00000D3D0000BF
:1039E0000D3D00000D3D00000D3D00000D3D0000AF
:1039F0000D3D00000D3D00000D3D00000D3D00009F
:103A00000D3D00000D3D00000D3D00000D3D00008E
:103A10000D3D00000D3D00000D3D00000D3D00007E
:103A20000D3D00000D3D00000D3D00000D3D00006E
:103A30000D3D00000D3D00000D3D00000D3D00005E
:103A40000D3D00000D3D00000D3D00000D3D00004E
:103A50000D3D0000CF3A00006D3A0000953A00009D
:103A6000033B0000233B0000733C00004D48FFF780
:103A700069FB4C4800F068FB0D20FFF753FA00F09B
:103A800087FC01F050FB01200DF066FB0120FFF7E1
:103A9000BDFC48E100F07CFC0DF092FB0020FFF73C
:103AA000B5FC414800F050FB3F48FFF74BFB0E20B0
:103AB000FFF738FAFFF7A4FC03461846FFF738FC77
:103AC0000346002B00F0288107F06AF824E1FFF795
:103AD00097FC0346072B0ED0072B10DC052B02D0DA
:103AE000062B04D00BE00220FFF790FC08E0082032
:103AF000FFF78CFC04E00220FFF788FC00E000BF29
:103B000011E1FFF77DFC0346032B40F007810DF028
:103B1000A7FB0346002B00F001810420FFF776FC91
:103B2000FCE0FFF76DFC0346032B07D10DF098FB7B
:103B30000346002B02D00420FFF768FC0DF0C0FB09
:103B40000346002B00F0EC800620FFF75FFCE7E067
:103B5000019B5A88154B1A80FFF752FC0346032B32
:103B600004D0FFF74DFC0346082B02D11048FFF7A5
:103B700053FE0020FFF7D6F900F056FA059008E052
:103B800001990598FFF75EF903900598FFF708F98A
:103B90000590059B002BF3D1C5E000BFF009002084
:103BA00080720100F4720100F87201003C080020EC
:103BB000FC72010000F0ECFB01F0ACFA0220FFF710
:103BC00025FC0120FFF7AEF90198FFF7BBFA019839
:103BD00000F0BAFAA7E0FFF713FC0346082B05D163
:103BE0000220FFF713FC0DF0BDFB02E00520FFF7FC
:103BF0000DFC0320FFF796F90198FFF7A3FA01984F
:103C000000F0A2FA8FE00320FFF78CF94848FFF795
:103C100099FA474800F098FAFFF7F2FB0346062BA3
:103C200002D0082B04D007E00720FFF7EFFB07E0E6
:103C30000220FFF7EBFB03E00220FFF7E7FB72E057
:103C400071E00320FFF7E2FB0220FFF76BF9019818
:103C500000F07AFA0198FFF775FA64E00F20FFF799
:103C600061F9019800F070FA5DE00198FFF76AFAD7
:103C700059E00198FFF766FA55E0019B9B781846DA
:103C8000FFF7E6F90490049B1B68002B04D1294937
:103C900040F2025004F0DEFC049B5B68002B04D170
:103CA000244940F2035004F0D5FC049B5B68049A5D
:103CB00012680199104698470346002B32D0019BA9
:103CC0009B7803F00F03002B2CD0019B9B7803F013
:103CD0000803002B26D1019B9B7818460DF0A9FD07
:103CE00020E00820FFF71EF9019800F02DFA1AE0F5
:103CF0000920FFF717F9019800F026FA13E00A20CF
:103D0000FFF710F9019800F01FFA0CE0094940F2A2
:103D1000265004F09FFC06E000BF04E000BF02E074
:103D200000BF00E000BF00BF07B05DF804FB00BFAC
:103D3000007301008072010000B583B0002301937D
:103D4000354B1B68002B07D1344B3549184604F01E
:103D50006CFD0346304A13602F4B1B68002B32D09A
:103D60002D4B1B689B88002B1ED02B4B1B68DB88C0
:103D7000B3F5006F03D3284B1B680022DA80264B73
:103D80001B68DA88511C89B2D9801346ADF8063019
:103D9000214B1B689A88013A92B29A8001AB18466F
:103DA000FFF73AFD012333E01B4B1B681846FFF772
:103DB00033FD1A4B1A49184604F050FD164B0022E9
:103DC0001A60012324E0174B1B68002B1FD0002032
:103DD00003F0EEFE144B1B88B3F5006F02D3124BB9
:103DE00000221A80104B1B885A1C91B20E4A118077
:103DF000ADF8063001210B4804F0BBFD002003F0B4
:103E0000EBFE01AB1846FFF707FD012300E000239E
:103E1000184603B05DF804FB0C0A00204809002096
:103E2000100A0020580900205C09002000B589B064
:103E30000190019B002B04D15A4940F26A5004F0D2
:103E400009FC019B5B68002B04D1564940F26B5082
:103E500004F000FC019B5B681B68002B04D15149F6
:103E600040F26C5004F0F6FB0198FEF77CFF03462D
:103E70001B68002B04D04B4940F26D5004F0EAFB64
:103E80000DF0CEF9034683F00103DBB2002B04D022
:103E90000DF0BAF90346002B04D1424940F27150AB
:103EA00004F0D8FB00238DF81F301CE000238DF8B0
:103EB0001E300BE00398FEF74FFF03461846FFF74E
:103EC00003F90346002B01D0112367E09DF81E3053
:103ED0005A1C8DF81E2019460598FEF717FF03900F
:103EE000039B002BE6D19DF81F305A1C8DF81F2034
:103EF00019460198FEF7D2FE0590059B002BD5D1FF
:103F000000238DF81F3018E000238DF81D3007E0E6
:103F10000498FEF721FF034601991846FFF7E4F8DD
:103F20009DF81D305A1C8DF81D2019460598FEF786
:103F3000EDFE0490049B002BEAD19DF81F305A1C23
:103F40008DF81F2019460198FEF7A8FE0590059BE5
:103F5000002BD9D1144B069310E0069B1B68019AE5
:103F60009A4204D10F4940F2975004F073FB069B2C
:103F70001B681846FEF7F7FE03460693069B1B6870
:103F8000002BEAD1069B019A1A600B238DF80830AA
:103F900002AB19460198FEF755FF0346184609B0D3
:103FA0005DF804FB80720100F0090020044B1B78CF
:103FB000002B14BF01230023DBB21846704700BF5B
:103FC000FD09002000B583B003468DF807309DF849
:103FD000073003F00803002B09D19DF8073018467D
:103FE0000DF06FFC9DF8073018460DF034FC9DF87D
:103FF000073018460DF034FA00BF03B05DF804FB3B
:1040000000B583B003468DF807309DF80730184699
:104010000DF076FA00BF03B05DF804FB014B1B689E
:1040200018467047F0090020014B1B68184670477E
:10403000F4090020014B1B6818467047F80900205E
:1040400000B587B0034600918DF80730FFF7E6FF13
:10405000059031E00598FEF719FE03468DF8123001
:1040600000238DF813301DE09DF813301946059894
:10407000FEF714FE03900398FEF73AFE03461A4635
:104080009DF80730934208D1009B002B03D0009B82
:104090009DF813201A70059B12E09DF81330013330
:1040A0008DF813309DF813209DF812309A42DBD31F
:1040B0000598FEF75FFE0590059B002BCAD10023F3
:1040C000184607B05DF804FB00B585B003900B46B9
:1040D00001928DF80B3001990398FEF7B3FE034669
:1040E000184605B05DF804FB00B585B003460091A5
:1040F0008DF807309DF90730002B05DA9DF8073061
:1041000003F00F03082B09DD9DF90730002B16DBA8
:104110009DF8073003F00F03082B10DC9DF80730E3
:104120001846FEF795FF03461B680393039B002B7D
:1041300005D000990398FEF785FE034600E01023A2
:10414000184605B05DF804FB00B585B00190FFF797
:1041500065FF039007E001990398FEF773FE03984B
:10416000FEF708FE0390039B002BF4D100BF00BFB5
:1041700005B05DF804FB00B585B0019006230293FD
:10418000FFF74CFF03900BE001990398FEF75AFEEE
:104190000290029B062B07D10398FEF7EBFD0390DC
:1041A000039B002BF0D100E000BF029B184605B036
:1041B0005DF804FB00B583B0034600918DF807302D
:1041C0009DF8073018460DF038F9034683F00103D7
:1041D000DBB2002B01D008230CE0084B1B78022B2C
:1041E00001D0082306E09DF80730009918460DF02D
:1041F000A7F90346184603B05DF804FBFC0900204C
:1042000000B583B0034600918DF807309DF8073064
:1042100018460DF012F9034683F00103DBB2002BC0
:1042200001D008230CE0084B1B78022B01D0082397
:1042300006E09DF80730009918460DF04FFA034646
:10424000184603B05DF804FBFC09002000B585B0FA
:1042500001900B468DF8033013468DF8023006238B
:104260000393019B5B689B68002B09D0019B5B68F3
:104270009B689DF802209DF80310019898470390D1
:10428000039B062B08D19DF802209DF803301946A8
:104290000198FFF705F90390039B184605B05DF8F8
:1042A00004FB00B583B001900B468DF80330019BF1
:1042B0005B68DB68002B07D0019B5B68DB689DF8BF
:1042C00003201146019898479DF80330194601983C
:1042D000FFF732F900BF03B05DF804FB00B585B00D
:1042E00001900B468DF8033000238DF80F30019BB1
:1042F0005B681B69002B0AD0019B5B681B699DF8FA
:10430000032011460198984703468DF80F309DF819
:104310000F30184605B05DF804FB000000B585B00D
:10432000FFF77CFE039028E00398FEF7AFFC0346FE
:104330008DF80A3000238DF80B3014E09DF80B3017
:10434000002219460398FFF781FF0190019B002B83
:1043500004D00E4940F26A7004F07CF99DF80B30ED
:1043600001338DF80B309DF80B209DF80A309A42EE
:10437000E4D30398FEF7FEFC0390039B002BD3D1FC
:1043800000BF00BF05B05DF804FB00BF80720100F4
:1043900000B583B0FFF742FE01901EE00198FEF7E2
:1043A00075FC03468DF8023000238DF803300AE0D7
:1043B0009DF8033019460198FFF773FF9DF803300D
:1043C00001338DF803309DF803209DF802309A42A6
:1043D000EED30198FEF7CEFC0190019B002BDDD1BE
:1043E00000BF00BF03B05DF804FB82B00190019BE9
:1043F00003F1804303F51C33184602B0704700B543
:1044000083B003468DF807309DF807301846FFF754
:10441000ECFF034601221A60BFF36F8F00BFBFF3AA
:104420004F8F00BF00BF03B05DF804FB82B00346AE
:104430008DF807309DF8073003F01F03DBB21846F4
:1044400002B0704782B003468DF807309DF8073000
:104450005B0903F00303DBB2184602B0704782B079
:1044600003468DF807309DF80730DB09DBB21846AC
:1044700002B0704782B00190019B1B7A184602B0CF
:10448000704782B00190019B1B68184602B07047CC
:1044900000B583B00190019B002B04D1064940F286
:1044A000432004F0D7F80198FFF7EBFF03461B68A1
:1044B000184603B05DF804FB0473010082B001905C
:1044C000019B1B78184602B07047000000B583B00E
:1044D00003468DF807300E4B1B789DF807209A4253
:1044E00011D00B4A9DF8073013709DF80730052B4B
:1044F00006D0084B1B7823F00203DAB2054B1A7082
:104500000548FFF789F900BF03B05DF804FB00BF61
:10451000140A0020150A00201C740100014B1B78AE
:1045200018467047140A00204FF08043D3F83834FF
:1045300003F00103002B14BF01230023DBB2184654
:1045400070470000024B00221A6000BF704700BF96
:104550005C0A002000B585B003468DF807300B4B90
:104560001B680393039B002B0AD0FFF7EBFF074B5D
:1045700059689DF80720039B10469847034600E0C2
:104580000E23184605B05DF804FB00BF5C0A00204E
:10459000044B1B68002B14BF01230023DBB2184619
:1045A000704700BF5C0A002082B0034600918DF87E
:1045B00007300023184602B07047000010B58EB0D7
:1045C00003900291019201238DF83730029B0993E9
:1045D000099B5B68002B15D1099B1B681846FFF7E8
:1045E00057FF0346002B0DD1099B9B68002B09D177
:1045F00000238DF83730039B00221A60039B0022B2
:104600005A60AAE0019B402B04D9564940F297100A
:1046100004F020F800230C9300238DF82B300DF0CC
:10462000C9F80890099BDB68019A934228BF13469A
:104630000B9386E0099B9B680B9A934228BF134615
:104640000793099B5B68002B0CD0089A0C9BD01831
:10465000099B5B68079A194611F025FF099B002208
:104660005A6014E0099B9B68002B10D0099B1B68C3
:104670005B685C68099B03F11000099B1968089A44
:104680000C9B1A44079BA04701238DF82B30099BF4
:104690009A68079BD21A099B9A60099BDA68079B64
:1046A000D21A099BDA600B9A079BD31A0B930C9AC8
:1046B000079B13440C93099B9B68002B0BD19DF81F
:1046C0002B30002B07D0099B1B681846FFF7E0FE34
:1046D0000246099B1A60099BDB68002B03D100236B
:1046E0008DF837302DE0099B9B68002B29D1099B61
:1046F0001B68002B0DD1099B00225A600C9B002BDC
:1047000024D00C9A019B9A4220D200238DF8373096
:104710001CE00023059304E0099B9B685A1C099B3D
:104720009A60099B1B685B685C68099B196805A80F
:1047300001230022A0470346002BEDD1099B002254
:104740001A610B9B002B7FF475AF00E000BF039B49
:10475000089A1A60039B0C9A5A609DF837301846E5
:104760000EB010BD6C73010000B587B00190019BC5
:104770005B781846FFF766FE0346002B01D0062340
:104780007FE0019B5B798DF81730FFF7C7FE03468A
:104790008DF81630019B9B78032B29D0032B6ADC04
:1047A000002B02D0012B42D065E09DF81630052B7E
:1047B00005D09DF8173003F00F03002B16D103AB83
:1047C000184600F025FD04909DF8173018460DF0AE
:1047D00065F803469AB2049B1A80019B01330222BA
:1047E0000499184600F0A8FC03464AE0082348E074
:1047F0009DF8173003F00803002B3ED1019BB3F85E
:1048000003309BB2002B38D19DF81630052B05D014
:104810009DF8173003F00F03002B06D19DF81730D9
:1048200018460DF006F800232BE0082329E09DF838
:10483000173003F00803002B21D1019BB3F803309C
:104840009BB2002B1BD19DF81630052B05D09DF88F
:10485000173003F00F03002B0BD19DF817301846CB
:104860000DF02FF89DF8173018460CF0F4FF0023D8
:1048700007E0082305E000BF02E000BF00E000BF42
:104880000623184607B05DF804FB00B58BB0039013
:104890000B4601928DF80B30019B5B781846FFF7B1
:1048A000D1FD0346002B01D006236AE0FFF736FE58
:1048B00003468DF82730019B5B781846FFF7CFFD44
:1048C0000346012B3BD1019B9B78002B02D00A2B86
:1048D00017D055E09DF82730052B01D0082350E074
:1048E00006AB184600F094FC0790079B00221A8044
:1048F000019B013302220799184600F01DFC034674
:104900003FE09DF82730052B01D0082339E005ABA7
:10491000184600F07DFC08909DF80B30194603986E
:10492000FFF7DCFC03461A46089B1A70019B013313
:1049300001220899184600F0FFFB034621E0019B85
:104940009B780B2B1BD19DF82730052B01D008231A
:1049500017E0019BB3F803309BB2FF2B01D907236B
:104960000FE0019BDB788DF826309DF826209DF81E
:104970000B3019460398FFF769FC034601E000BFBE
:10498000062318460BB05DF804FB000000B585B0A7
:104990000190009102AB184600F03AFC0390029B94
:1049A000012B04D8184940F2952003F053FE02224F
:1049B0000021039811F0A0FDC02303F04003002B59
:1049C00006D0039B1B7843F00103DAB2039B1A70F5
:1049D0000E4B1B785B08DBB203F00103002B06D003
:1049E000039B1B7843F00203DAB2039B1A70009B0F
:1049F000013302220399184600F09EFB0346184635
:104A000005B05DF804FB00BF6C730100150A0020BF
:104A100010B58EB001900091009B1B79032B00F024
:104A2000BC80032B00F3E780012B02D0022B11D0B6
:104A3000E1E0009BB3F807309BB2002B01D10023CB
:104A4000DBE0009B013312226D49184600F074FB35
:104A50000346D2E0009BB3F807309BB2002B01D194
:104A60000023CAE0009BB3F807309BB2092B28BF94
:104A700009239BB2069309230D9300238DF833304D
:104A8000FFF7CCFA0B9037E00B9B5B68002B04D14F
:104A90005C4940F2C72003F0DDFD0B9B5B685B685F
:104AA000002B04D157494FF4327003F0D3FD00239B
:104AB0000A930023029302E00A9B01330A930B9BA3
:104AC0005B685C6802A8012300220B99A04703469B
:104AD000002BF1D10D9A0A9B13440D930B98FFF70D
:104AE000C9FC03461A469DF8333013448DF8333021
:104AF0000B98FFF7CDFC0B900B9B002BC4D104ABA4
:104B0000184600F085FB0590049B069A9A4204D94A
:104B10003C4940F2DD2003F09DFD069A3A49059894
:104B200011F0C1FC059B9DF833201A710D9B9AB2C0
:104B3000059B5A80FFF73AFA0346002B06D0059BE7
:104B4000DB7943F02003DAB2059BDA71FFF766FAEE
:104B500003462E4A13602D4A059B53602B4A069B41
:104B60009360009BB3F807309BB21A46274BDA607C
:104B7000002003F01DF826498020FFF741FB099033
:104B8000099B002B04D12349802000F023FB0990CE
:104B9000002003F021F8099B2FE0009BB3F80730B9
:104BA0009BB2002B01D1002327E0009BDB788DF81E
:104BB0002330009B5A799B791B021343ADF82030B8
:104BC000BDF820209DF823301146184602F054FF0E
:104BD0000790079B002B01D106230EE0009B5C1C75
:104BE0000798FFF76BFC03461A460799204600F02A
:104BF000A3FA034601E000BF062318460EB010BD1D
:104C0000C87301006C730100DC730100700A00209E
:104C1000147401000C74010000B587B0019000917C
:104C200003AB184600F0F4FA0590FFF777FC034653
:104C30008DF813309DF81330052B03D1059B01220D
:104C40001A7009E09DF81330042B03D1059B002254
:104C50001A7001E0062307E0009B01330122059949
:104C6000184600F069FA0346184607B05DF804FBE1
:104C700000B585B001900091FFF750FC03468DF818
:104C80000F309DF80F30052B05D09DF80F30042B09
:104C900001D0082316E0009BDB78002B05D1FFF73D
:104CA00077FB0420FFF712FC0BE0009BDB78012B65
:104CB00005D1FFF733FB0520FFF708FC01E00723D0
:104CC00000E00023184605B05DF804FB00B583B092
:104CD00001900091019B002B04D1504940F25E30BD
:104CE00003F0B8FC009B002B04D14C4940F25F302C
:104CF00003F0B0FC009B5B781846FFF7A3FB03466C
:104D0000002B01D0062385E0009B5B781846FFF757
:104D1000A6FB0346012B1FD1009B9B78082B12D0CA
:104D2000082B16DC002B02D0062B06D011E00099D0
:104D30000198FFF72BFE03466CE000990198FFF7FE
:104D400067FE034666E000990198FFF765FF03469A
:104D500060E000BF06235DE0009B9B78013B082BD1
:104D600052D801A252F823F0CB4D0000094E0000AA
:104D7000994D0000094E00008D4D0000094E0000C5
:104D8000094E0000094E0000FD4D0000234940F28D
:104D9000823003F05FFC3CE0009BB3F803309BB231
:104DA000012B33D1FFF702F9034683F00103DBB295
:104DB000002B01D00F232DE0194B1B7843F0020389
:104DC000DAB2174B1A70002324E0009BB3F80330CB
:104DD0009BB2012B1CD1FFF7E9F8034683F00103D6
:104DE000DBB2002B01D00F2314E00D4B1B7823F016
:104DF0000203DAB20A4B1A7000230BE00099019803
:104E0000FFF736FF034605E000BF02E000BF00E009
:104E100000BF0623184603B05DF804FB6C73010065
:104E2000150A002000B58BB00190062309930523D5
:104E30008DF8103004AB013318460CF051FDFFF72C
:104E4000A7FBFFF77FFB9DF811301846FFF7EEFA3E
:104E50000346032B63D801A252F823F06D4E0000E5
:104E60008B4E0000D94E0000134F000004AB1946D2
:104E70000198FFF72BFF0990099B062B51D104AB3A
:104E80001846FFF778F909904BE09DF815308DF83A
:104E900022300DF10F029DF8223011461846FFF71F
:104EA000CFF80790079B002B02D1102309933AE01B
:104EB0009DF80F3004AA19460798FFF705F90990E5
:104EC000099B062B2FD19DF80F3004AA194607988D
:104ED000FFF7DBFC099026E0062309939DF81530C7
:104EE0008DF823309DF8233003F00F03002B07D0FB
:104EF00004AA9DF8233011461846FFF7F5F80990EB
:104F0000099B062B11D104AB1846FFF72DFC099025
:104F10000BE004AB1846FFF72EF9099006E000BF3E
:104F200004E000BF02E000BF00E000BF099B002BCF
:104F30000FD1FFF72DFB0346002B07D00CF00CFD23
:104F40000346002B07D10CF0F5FC04E00CF0F8FC54
:104F500001E00CF0FBFC099B18460BB05DF804FB6C
:104F600000B585B00190009106230393009B1B7848
:104F70000E2B25DC002B40F3BD80013B0D2B00F2F6
:104F8000B98001A252F823F0C74F0000CF4F0000B4
:104F9000D54F0000F55000001B5000009D50000050
:104FA000F5500000F5500000F5500000F5500000ED
:104FB000255000003F5000005F5000007D50000071
:104FC000852B1DD096E00320FFF780FA99E000239F
:104FD000039396E04D4803F0F2FC0346002B02D009
:104FE0005C20FFF70CFAFFF799FA0346002B04D177
:104FF00047494FF4876003F02DFB0023039380E0C3
:10500000FFF78CFA03468DF80B309DF80B30032B1D
:1050100072D10420FFF75AFA6EE00198FFF702FF01
:1050200003906EE0FFF77AFA0346002B04D038496C
:1050300040F24C4003F00EFB0023039361E0FFF7C6
:105040006DFA0346012B04D0314940F2524003F07F
:1050500001FB0020FFF73AFA0023039351E0FFF72A
:1050600063FA0346002B03D00220FFF72FFA02E079
:105070000120FFF72BFA0023039342E0FFF74EFADB
:105080000346012B04D8224940F2664003F0E2FABD
:105090000120FFF71BFA0023039332E0009BDB782B
:1050A000032B2BD0009B9B78002B08D0009B9B7878
:1050B000802B04D0164940F2744003F0CBFA009BD9
:1050C000DB781846FFF746FA0390039B002B0ED1BE
:1050D000FFF75EFA0346002B06D0009B9B78002B5F
:1050E0000ED10CF027FC0BE00CF02AFC08E00CF0D1
:1050F0002DFC05E000BF04E000BF02E000BF00E0BF
:1051000000BF039B184605B05DF804FB180A002099
:105110006C73010008B50020FEF754FF8020FEF7F5
:1051200051FF00BF08BD08B50020FEF769FF8020D1
:10513000FEF766FF00BF08BD00B58DB00390029179
:105140000192039BDB889BB20A93019A0A9B9342CC
:1051500028BF13460993019A0A9B9A420ED28020D7
:105160000CF05AF903461A46019BB3FBF2F102FB1D
:1051700001F29B1A002B01D1012300E000238DF8DE
:1051800023309DF8233003F001038DF82330029B78
:105190000593099B06939DF823300793002002F0A6
:1051A00007FD05AB19468020FFF704F80B900B9B19
:1051B000002B04D10649802000F00CF80B90002051
:1051C00002F00AFD0B9B18460DB05DF804FB00BF12
:1051D0000C74010000B583B0034600918DF80730D0
:1051E0000CF0BAFB03461A469DF80730934201D0F3
:1051F000102306E0054B009A92E8030083E80300C1
:105200000023184603B05DF804FB00BF5C0A0020D1
:1052100082B00190019B002B02D0019B40221A60BA
:10522000014B184602B070471C0A002082B0019062
:105230000091019BDAB2009B1A70019B1A0A009B35
:105240000133D2B21A70019B1A0C009B0233D2B206
:105250001A70019B1A0E009B0333D2B21A700423FA
:10526000184602B0704782B00190019B1B781B0268
:105270001AB2019B01331B781BB213431BB29BB2C2
:10528000184602B0704782B00190019B1B781A4605
:10529000019B01331B781B021A43019B02331B78CD
:1052A0001B041A43019B03331B781B061343184648
:1052B00002B0704782B00190019B1B781A06019BD7
:1052C00001331B781B041A43019B02331B781B021A
:1052D0001343019A033212781343184602B0704701
:1052E00084B001900091019B0393039B1ABA009B29
:1052F0001A600423184604B0704782B003468DF844
:1053000007309DF8073003F01F03DBB2184602B0E8
:10531000704782B003468DF807309DF807305B096F
:1053200003F00303DBB2184602B0704782B00346B5
:105330008DF807309DF80730DB09DBB2184602B064
:10534000704782B00190019B1B7A184602B07047EB
:1053500000B585B001900B468DF80330019B002B02
:1053600004D10F494FF4887003F074F90198FFF7E6
:10537000E8FF03461A469DF80330934201D3002309
:1053800009E0019B093303939DF8032013465B005A
:105390001344039A1344184605B05DF804FB00BF9C
:1053A0002074010082B00190019B1B78184602B066
:1053B000704782B00190019B5B78184602B070473D
:1053C00000B585B001900B468DF80330019B002B92
:1053D00004D10D4940F2431003F03CF9019B5B7886
:1053E0009DF803209A4201D3002309E0019B9B789A
:1053F0001A46019B134403939DF80330039A134408
:10540000184605B05DF804FB2074010082B00190DD
:10541000019B1B78184602B07047000000B585B0AC
:10542000039002910192039B1B681B68002B03D120
:105430000749F02003F00EF9039B1B681B68019AD3
:105440000299039898470346184605B05DF804FB97
:105450008074010000B583B00190019B1B685B68FC
:10546000002B03D10649FD2003F0F4F8019B1B68D3
:105470005B68019898470346184603B05DF804FB43
:105480008074010010B582B001900091019B1B68EF
:105490009B68002B04D113494FF4897003F0DAF8AC
:1054A000019B1B685B69002B04D10E4940F213106D
:1054B00003F0D0F8009B1C68019B1B685B69019896
:1054C000984703461B689C4201D3072306E0019BD3
:1054D0001B689B680099019898470346184602B0DC
:1054E00010BD00BF8074010010B582B00190009122
:1054F000019B1B68DB68002B04D113494FF49770A4
:1055000003F0A8F8019B1B685B69002B04D10E49CE
:1055100040F22F1003F09EF8009B1C68019B1B6853
:105520005B690198984703461B689C4201D3072397
:1055300006E0019B1B68DB680099019898470346C9
:10554000184602B010BD00BF8074010000B585B0E0
:1055500003900B4601928DF80B30039B1B681B696F
:10556000002B04D108494FF4A37003F073F8039B98
:105570001B681B699DF80B10019A03989847034616
:10558000184605B05DF804FB8074010000B583B0D7
:105590000190019B1B685B69002B04D107494FF404
:1055A000AA7003F057F8019B1B685B690198984744
:1055B0000346184603B05DF804FB00BF8074010089
:1055C00082B00190019B1B78184602B07047000022
:1055D00000B583B00190019B002B03D104498120C9
:1055E00003F038F8019B184603B05DF804FB00BFD8
:1055F000EC74010000B583B00190019B002B03D136
:1056000009498D2003F026F8019B1B68002B03D16C
:1056100005498E2003F01EF8019B1B680C331846C9
:1056200003B05DF804FB00BFEC74010000B585B069
:10563000019000210198FFF78BFE03900021039851
:10564000FFF7BEFE02900298FFF7E0FE0346184601
:1056500005B05DF804FB00B585B00190002101980C
:10566000FFF776FE039001210398FFF7A9FE029051
:105670000298FFF7CBFE0346184605B05DF804FB21
:1056800000B585B001900198FFF7B4FF0390039B2C
:10569000002283F83020039B002283F83120039BF3
:1056A000002283F8322000BF05B05DF804FB00B58E
:1056B00085B001900198FFF79DFF0390039B93F83D
:1056C0003130002B14BF01230023DBB2184605B094
:1056D0005DF804FB00B585B001900198FFF78AFFE3
:1056E0000390039B93F832301A46019B9B699A42C0
:1056F00034BF01230023DBB2184605B05DF804FB7C
:1057000000B587B001900198FFF774FF0490002363
:105710000593002002F04CFA0198FFF7DBFF0346E7
:10572000002B25D0049B93F830301A46049B93F845
:10573000323013441A46019B9B69B2FBF3F103FB21
:1057400001F3D31A8DF80F309DF80F30019A52698A
:1057500002FB03F30293019B1A69029B1344059316
:10576000049B93F832300133DAB2049B83F8322081
:10577000002002F031FA059B184607B05DF804FBE3
:1057800000B585B001900198FFF734FF0390002029
:1057900002F00EFA039B93F83120039B93F832300A
:1057A0009A4204D3104940F2111002F053FF039BB8
:1057B00093F831301A46019B9B699A4204D30A49F7
:1057C0004FF4897002F046FF039B93F831300133A8
:1057D000DAB2039B83F83120002002F0FDF900BF0C
:1057E00005B05DF804FB00BFEC74010000B587B0A4
:1057F00001900198FFF7FEFE04900023059300201E
:1058000002F0D6F90198FFF752FF0346002B10D0A3
:10581000049B93F830308DF80F309DF80F30019ACB
:10582000526902FB03F30293019B1A69029B134422
:105830000593002002F0D0F9059B184607B05DF8EB
:1058400004FB000000B585B001900198FFF7D2FE7F
:105850000390002002F0ACF9039B93F83130002B49
:1058600004D11B4940F2451002F0F4FE039B93F86B
:105870003230002B04D116494FF4A37002F0EAFE37
:10588000039B93F83130013BDAB2039B83F831205C
:10589000039B93F83230013BDAB2039B83F832204A
:1058A000039B93F8303001331A46019B9B69B2FB8E
:1058B000F3F103FB01F3D31ADAB2039B83F8302030
:1058C000002002F089F900BF05B05DF804FB00BFBD
:1058D000EC74010000B58BB001900198FFF778FEE1
:1058E00009900998FFF786FE08900198FFF7B3FE2C
:1058F00003468DF81F30089B01331F2200211846F4
:1059000010F0FAFD089B013303931F230493002337
:10591000059303AA9DF81F3011461846FEF74AFC6E
:105920000690069B002B02D1089B02221A70069B50
:1059300018460BB05DF804FB00B58BB001900B4628
:105940008DF803300198FFF743FE09900998FFF79F
:1059500051FE08900198FFF769FE03468DF81F304D
:10596000089BDA6C089B9B6B934238BF13460693E7
:10597000089B283319460698FFF758FC089B9DF8AA
:10598000032083F82C20089B203302930D230393DC
:105990000023049302AA9DF81F3011461846FEF713
:1059A00009FC0590059B002B02D1089B06221A706A
:1059B000059B18460BB05DF804FB00B58DB0039055
:1059C000029101928DF803300398FFF701FE0B90CE
:1059D0000B98FFF70FFE0A900398FFF727FE034688
:1059E0008DF82730029B0593019B069300230793B4
:1059F00005AA9DF8273011461846FEF7DBFB0890F4
:105A0000089B002B03D10A9B9DF803201A70089B6A
:105A100018460DB05DF804FB00B585B00190019803
:105A2000FFF704FE03468DF80F300198FFF713FED1
:105A300003468DF80E309DF80F3018460AF080FBB3
:105A40009DF80E3018460AF07BFB00BF05B05DF8EC
:105A500004FB00B58DB00390029101928DF80330E4
:105A60000398FFF7B5FD0B900B98FFF7C3FD0A9065
:105A70000398FFF7F0FD03468DF82730029B05934E
:105A8000019B06930023079305AA9DF82730114632
:105A90001846FEF78FFB0890089B002B03D10A9B4A
:105AA0009DF803201A70089B18460DB05DF804FBA2
:105AB00000B587B001900B468DF803300198FFF7D1
:105AC00087FD05900598FFF795FD04900198FFF775
:105AD000ADFD03468DF80F300198FFF7BCFD03467E
